{
  "_format": "hh-sol-artifact-1",
  "contractName": "Exchange",
  "sourceName": "contracts/Exchange.sol",
  "abi": [
    {
      "inputs": [
        {
          "internalType": "address",
          "name": "_system",
          "type": "address"
        }
      ],
      "stateMutability": "nonpayable",
      "type": "constructor"
    },
    {
      "anonymous": false,
      "inputs": [
        {
          "indexed": false,
          "internalType": "bytes32",
          "name": "orderId",
          "type": "bytes32"
        }
      ],
      "name": "OrderCancelled",
      "type": "event"
    },
    {
      "anonymous": false,
      "inputs": [
        {
          "indexed": false,
          "internalType": "bytes32",
          "name": "orderId",
          "type": "bytes32"
        },
        {
          "indexed": false,
          "internalType": "address",
          "name": "maker",
          "type": "address"
        },
        {
          "indexed": false,
          "internalType": "address",
          "name": "token0",
          "type": "address"
        },
        {
          "indexed": false,
          "internalType": "address",
          "name": "token1",
          "type": "address"
        },
        {
          "indexed": false,
          "internalType": "uint256",
          "name": "amount",
          "type": "uint256"
        },
        {
          "indexed": false,
          "internalType": "uint216",
          "name": "_exchangeRate",
          "type": "uint216"
        },
        {
          "indexed": false,
          "internalType": "bool",
          "name": "buy",
          "type": "bool"
        },
        {
          "indexed": false,
          "internalType": "uint32",
          "name": "salt",
          "type": "uint32"
        }
      ],
      "name": "OrderCreated",
      "type": "event"
    },
    {
      "anonymous": false,
      "inputs": [
        {
          "indexed": false,
          "internalType": "bytes32",
          "name": "orderId",
          "type": "bytes32"
        },
        {
          "indexed": false,
          "internalType": "address",
          "name": "taker",
          "type": "address"
        },
        {
          "indexed": false,
          "internalType": "uint256",
          "name": "fillAmount",
          "type": "uint256"
        }
      ],
      "name": "OrderExecuted",
      "type": "event"
    },
    {
      "anonymous": false,
      "inputs": [
        {
          "indexed": false,
          "internalType": "bytes32",
          "name": "orderId",
          "type": "bytes32"
        },
        {
          "indexed": false,
          "internalType": "uint256",
          "name": "amount",
          "type": "uint256"
        },
        {
          "indexed": false,
          "internalType": "uint256",
          "name": "_exchangeRate",
          "type": "uint256"
        }
      ],
      "name": "OrderUpdated",
      "type": "event"
    },
    {
      "anonymous": false,
      "inputs": [
        {
          "indexed": false,
          "internalType": "bytes32",
          "name": "pairId",
          "type": "bytes32"
        },
        {
          "indexed": false,
          "internalType": "address",
          "name": "token0",
          "type": "address"
        },
        {
          "indexed": false,
          "internalType": "address",
          "name": "token1",
          "type": "address"
        },
        {
          "indexed": false,
          "internalType": "uint256",
          "name": "exchangeRateDecimals",
          "type": "uint256"
        },
        {
          "indexed": false,
          "internalType": "uint256",
          "name": "minToken0Order",
          "type": "uint256"
        },
        {
          "indexed": false,
          "internalType": "uint256",
          "name": "minToken1Order",
          "type": "uint256"
        }
      ],
      "name": "PairCreated",
      "type": "event"
    },
    {
      "inputs": [
        {
          "internalType": "bytes",
          "name": "signature",
          "type": "bytes"
        },
        {
          "components": [
            {
              "internalType": "address",
              "name": "maker",
              "type": "address"
            },
            {
              "internalType": "address",
              "name": "token0",
              "type": "address"
            },
            {
              "internalType": "address",
              "name": "token1",
              "type": "address"
            },
            {
              "internalType": "uint256",
              "name": "amount",
              "type": "uint256"
            },
            {
              "internalType": "bool",
              "name": "buy",
              "type": "bool"
            },
            {
              "internalType": "uint32",
              "name": "salt",
              "type": "uint32"
            },
            {
              "internalType": "uint216",
              "name": "exchangeRate",
              "type": "uint216"
            }
          ],
          "internalType": "struct IExchange.Order",
          "name": "order",
          "type": "tuple"
        }
      ],
      "name": "cancelOrder",
      "outputs": [],
      "stateMutability": "nonpayable",
      "type": "function"
    },
    {
      "inputs": [
        {
          "internalType": "address",
          "name": "token",
          "type": "address"
        },
        {
          "internalType": "address",
          "name": "cToken",
          "type": "address"
        }
      ],
      "name": "enableMarginTrading",
      "outputs": [],
      "stateMutability": "nonpayable",
      "type": "function"
    },
    {
      "inputs": [
        {
          "internalType": "bytes",
          "name": "signature",
          "type": "bytes"
        },
        {
          "components": [
            {
              "internalType": "address",
              "name": "maker",
              "type": "address"
            },
            {
              "internalType": "address",
              "name": "token0",
              "type": "address"
            },
            {
              "internalType": "address",
              "name": "token1",
              "type": "address"
            },
            {
              "internalType": "uint256",
              "name": "amount",
              "type": "uint256"
            },
            {
              "internalType": "bool",
              "name": "long",
              "type": "bool"
            },
            {
              "internalType": "uint32",
              "name": "salt",
              "type": "uint32"
            },
            {
              "internalType": "uint176",
              "name": "exchangeRate",
              "type": "uint176"
            },
            {
              "internalType": "uint32",
              "name": "borrowLimit",
              "type": "uint32"
            },
            {
              "internalType": "uint8",
              "name": "loops",
              "type": "uint8"
            }
          ],
          "internalType": "struct IExchange.LeverageOrder",
          "name": "order",
          "type": "tuple"
        },
        {
          "internalType": "uint256",
          "name": "amountToFill",
          "type": "uint256"
        }
      ],
      "name": "executeLeverageOrder",
      "outputs": [
        {
          "internalType": "uint256",
          "name": "",
          "type": "uint256"
        }
      ],
      "stateMutability": "nonpayable",
      "type": "function"
    },
    {
      "inputs": [
        {
          "internalType": "bytes",
          "name": "signature",
          "type": "bytes"
        },
        {
          "components": [
            {
              "internalType": "address",
              "name": "maker",
              "type": "address"
            },
            {
              "internalType": "address",
              "name": "token0",
              "type": "address"
            },
            {
              "internalType": "address",
              "name": "token1",
              "type": "address"
            },
            {
              "internalType": "uint256",
              "name": "amount",
              "type": "uint256"
            },
            {
              "internalType": "bool",
              "name": "buy",
              "type": "bool"
            },
            {
              "internalType": "uint32",
              "name": "salt",
              "type": "uint32"
            },
            {
              "internalType": "uint216",
              "name": "exchangeRate",
              "type": "uint216"
            }
          ],
          "internalType": "struct IExchange.Order",
          "name": "order",
          "type": "tuple"
        },
        {
          "internalType": "uint256",
          "name": "amountToFill",
          "type": "uint256"
        }
      ],
      "name": "executeLimitOrder",
      "outputs": [
        {
          "internalType": "uint256",
          "name": "",
          "type": "uint256"
        }
      ],
      "stateMutability": "nonpayable",
      "type": "function"
    },
    {
      "inputs": [
        {
          "internalType": "bytes[]",
          "name": "signatures",
          "type": "bytes[]"
        },
        {
          "components": [
            {
              "internalType": "address",
              "name": "maker",
              "type": "address"
            },
            {
              "internalType": "address",
              "name": "token0",
              "type": "address"
            },
            {
              "internalType": "address",
              "name": "token1",
              "type": "address"
            },
            {
              "internalType": "uint256",
              "name": "amount",
              "type": "uint256"
            },
            {
              "internalType": "bool",
              "name": "buy",
              "type": "bool"
            },
            {
              "internalType": "uint32",
              "name": "salt",
              "type": "uint32"
            },
            {
              "internalType": "uint216",
              "name": "exchangeRate",
              "type": "uint216"
            }
          ],
          "internalType": "struct IExchange.Order[]",
          "name": "orders",
          "type": "tuple[]"
        },
        {
          "internalType": "uint256",
          "name": "token0AmountToFill",
          "type": "uint256"
        }
      ],
      "name": "executeMultipleLimitOrders",
      "outputs": [],
      "stateMutability": "nonpayable",
      "type": "function"
    },
    {
      "inputs": [
        {
          "internalType": "bytes[]",
          "name": "signatures",
          "type": "bytes[]"
        },
        {
          "components": [
            {
              "internalType": "address",
              "name": "maker",
              "type": "address"
            },
            {
              "internalType": "address",
              "name": "token0",
              "type": "address"
            },
            {
              "internalType": "address",
              "name": "token1",
              "type": "address"
            },
            {
              "internalType": "uint256",
              "name": "amount",
              "type": "uint256"
            },
            {
              "internalType": "bool",
              "name": "buy",
              "type": "bool"
            },
            {
              "internalType": "uint32",
              "name": "salt",
              "type": "uint32"
            },
            {
              "internalType": "uint216",
              "name": "exchangeRate",
              "type": "uint216"
            }
          ],
          "internalType": "struct IExchange.Order[]",
          "name": "orders",
          "type": "tuple[]"
        },
        {
          "internalType": "uint256",
          "name": "token1AmountToFill",
          "type": "uint256"
        }
      ],
      "name": "executeMultipleMarketOrders",
      "outputs": [],
      "stateMutability": "nonpayable",
      "type": "function"
    },
    {
      "inputs": [
        {
          "internalType": "bytes",
          "name": "signature",
          "type": "bytes"
        },
        {
          "components": [
            {
              "internalType": "address",
              "name": "maker",
              "type": "address"
            },
            {
              "internalType": "address",
              "name": "token0",
              "type": "address"
            },
            {
              "internalType": "address",
              "name": "token1",
              "type": "address"
            },
            {
              "internalType": "uint256",
              "name": "amount",
              "type": "uint256"
            },
            {
              "internalType": "bool",
              "name": "long",
              "type": "bool"
            },
            {
              "internalType": "uint32",
              "name": "salt",
              "type": "uint32"
            },
            {
              "internalType": "uint176",
              "name": "exchangeRate",
              "type": "uint176"
            },
            {
              "internalType": "uint32",
              "name": "borrowLimit",
              "type": "uint32"
            },
            {
              "internalType": "uint8",
              "name": "loops",
              "type": "uint8"
            }
          ],
          "internalType": "struct IExchange.LeverageOrder",
          "name": "order",
          "type": "tuple"
        },
        {
          "internalType": "uint256",
          "name": "amountToFill",
          "type": "uint256"
        }
      ],
      "name": "executeReverseLeverageOrder",
      "outputs": [
        {
          "internalType": "uint256",
          "name": "",
          "type": "uint256"
        }
      ],
      "stateMutability": "nonpayable",
      "type": "function"
    },
    {
      "inputs": [
        {
          "internalType": "address",
          "name": "token0",
          "type": "address"
        },
        {
          "internalType": "address",
          "name": "token1",
          "type": "address"
        }
      ],
      "name": "getPairHash",
      "outputs": [
        {
          "internalType": "bytes32",
          "name": "",
          "type": "bytes32"
        }
      ],
      "stateMutability": "pure",
      "type": "function"
    },
    {
      "inputs": [
        {
          "internalType": "bytes32",
          "name": "digest",
          "type": "bytes32"
        }
      ],
      "name": "loopFill",
      "outputs": [
        {
          "internalType": "uint256",
          "name": "",
          "type": "uint256"
        }
      ],
      "stateMutability": "view",
      "type": "function"
    },
    {
      "inputs": [
        {
          "internalType": "bytes32",
          "name": "digest",
          "type": "bytes32"
        }
      ],
      "name": "loops",
      "outputs": [
        {
          "internalType": "uint256",
          "name": "",
          "type": "uint256"
        }
      ],
      "stateMutability": "view",
      "type": "function"
    },
    {
      "inputs": [],
      "name": "makerFee",
      "outputs": [
        {
          "internalType": "uint256",
          "name": "",
          "type": "uint256"
        }
      ],
      "stateMutability": "view",
      "type": "function"
    },
    {
      "inputs": [
        {
          "internalType": "bytes32",
          "name": "pair",
          "type": "bytes32"
        }
      ],
      "name": "minToken0Amount",
      "outputs": [
        {
          "internalType": "uint256",
          "name": "",
          "type": "uint256"
        }
      ],
      "stateMutability": "view",
      "type": "function"
    },
    {
      "inputs": [
        {
          "internalType": "bytes32",
          "name": "digest",
          "type": "bytes32"
        }
      ],
      "name": "orderFills",
      "outputs": [
        {
          "internalType": "uint256",
          "name": "",
          "type": "uint256"
        }
      ],
      "stateMutability": "view",
      "type": "function"
    },
    {
      "inputs": [
        {
          "internalType": "bytes32",
          "name": "orderId",
          "type": "bytes32"
        }
      ],
      "name": "placedOrders",
      "outputs": [
        {
          "components": [
            {
              "internalType": "address",
              "name": "maker",
              "type": "address"
            },
            {
              "internalType": "address",
              "name": "token0",
              "type": "address"
            },
            {
              "internalType": "address",
              "name": "token1",
              "type": "address"
            },
            {
              "internalType": "uint256",
              "name": "amount",
              "type": "uint256"
            },
            {
              "internalType": "bool",
              "name": "buy",
              "type": "bool"
            },
            {
              "internalType": "uint32",
              "name": "salt",
              "type": "uint32"
            },
            {
              "internalType": "uint216",
              "name": "exchangeRate",
              "type": "uint216"
            }
          ],
          "internalType": "struct IExchange.Order",
          "name": "",
          "type": "tuple"
        }
      ],
      "stateMutability": "view",
      "type": "function"
    },
    {
      "inputs": [
        {
          "internalType": "uint256",
          "name": "amount",
          "type": "uint256"
        },
        {
          "internalType": "uint256",
          "name": "borrowLimit",
          "type": "uint256"
        },
        {
          "internalType": "uint256",
          "name": "loop",
          "type": "uint256"
        }
      ],
      "name": "scaledByBorrowLimit",
      "outputs": [
        {
          "internalType": "uint256",
          "name": "",
          "type": "uint256"
        }
      ],
      "stateMutability": "pure",
      "type": "function"
    },
    {
      "inputs": [],
      "name": "system",
      "outputs": [
        {
          "internalType": "contract System",
          "name": "",
          "type": "address"
        }
      ],
      "stateMutability": "view",
      "type": "function"
    },
    {
      "inputs": [],
      "name": "takerFee",
      "outputs": [
        {
          "internalType": "uint256",
          "name": "",
          "type": "uint256"
        }
      ],
      "stateMutability": "view",
      "type": "function"
    },
    {
      "inputs": [
        {
          "internalType": "bytes",
          "name": "signature",
          "type": "bytes"
        },
        {
          "components": [
            {
              "internalType": "address",
              "name": "maker",
              "type": "address"
            },
            {
              "internalType": "address",
              "name": "token0",
              "type": "address"
            },
            {
              "internalType": "address",
              "name": "token1",
              "type": "address"
            },
            {
              "internalType": "uint256",
              "name": "amount",
              "type": "uint256"
            },
            {
              "internalType": "bool",
              "name": "long",
              "type": "bool"
            },
            {
              "internalType": "uint32",
              "name": "salt",
              "type": "uint32"
            },
            {
              "internalType": "uint176",
              "name": "exchangeRate",
              "type": "uint176"
            },
            {
              "internalType": "uint32",
              "name": "borrowLimit",
              "type": "uint32"
            },
            {
              "internalType": "uint8",
              "name": "loops",
              "type": "uint8"
            }
          ],
          "internalType": "struct IExchange.LeverageOrder",
          "name": "order",
          "type": "tuple"
        }
      ],
      "name": "verifyLeverageOrderHash",
      "outputs": [
        {
          "internalType": "bytes32",
          "name": "",
          "type": "bytes32"
        }
      ],
      "stateMutability": "view",
      "type": "function"
    },
    {
      "inputs": [
        {
          "internalType": "bytes",
          "name": "signature",
          "type": "bytes"
        },
        {
          "components": [
            {
              "internalType": "address",
              "name": "maker",
              "type": "address"
            },
            {
              "internalType": "address",
              "name": "token0",
              "type": "address"
            },
            {
              "internalType": "address",
              "name": "token1",
              "type": "address"
            },
            {
              "internalType": "uint256",
              "name": "amount",
              "type": "uint256"
            },
            {
              "internalType": "bool",
              "name": "buy",
              "type": "bool"
            },
            {
              "internalType": "uint32",
              "name": "salt",
              "type": "uint32"
            },
            {
              "internalType": "uint216",
              "name": "exchangeRate",
              "type": "uint216"
            }
          ],
          "internalType": "struct IExchange.Order",
          "name": "order",
          "type": "tuple"
        }
      ],
      "name": "verifyOrderHash",
      "outputs": [
        {
          "internalType": "bytes32",
          "name": "",
          "type": "bytes32"
        }
      ],
      "stateMutability": "view",
      "type": "function"
    }
  ],
  "bytecode": "0x610140346200018d57601f620026ff38819003918201601f19168301926001600160401b0392909183851183861017620001775781602092849260409788528339810103126200018d57516001600160a01b038116908190036200018d578251906200006b8262000192565b60048252600160208301637a65786560e01b8152602086516200008e8162000192565b8381520193603160f81b855251902092208260e052610100948186524660a05280519060208201927f8b73c3c69bb8fe3d512ecc4cf759cc79239f7b179b0ffacaa9a75d522b39400f958685528284015260608301524660808301523060a083015260a0825260c08201958287109087111762000177578590525190206080523060c052610120918252670de0b6b3a76400008060075560085560018060a01b031960005416176000556125509283620001af843960805183612174015260a0518361223f015260c0518361213e015260e051836121c3015251826121e9015251816121a00152f35b634e487b7160e01b600052604160045260246000fd5b600080fd5b604081019081106001600160401b03821117620001775760405256fe6080604052600436101561001257600080fd5b60003560e01c80630b5d301714610ead5780630f20019114610d565780631251cd4514610d325780631e41be5a14610c2c57806327a7415014610bd457806343f0179b14610bb65780634b3bb0a214610b9d5780634d6688e1146107435780635728e161146107175780635d3f535614610598578063611fbb60146104be5780638ef9f003146102ed57806395bf75fd146102c4578063bb30ef1614610298578063bed29b631461026c578063caea68b014610170578063d7b7961c1461013c578063f7213db6146101105763fc741c7c146100ed57600080fd5b3461010b57600036600319011261010b576020600754604051908152f35b600080fd5b3461010b57602036600319011261010b5760043560005260036020526020604060002054604051908152f35b3461010b57604036600319011261010b57602061016861015a6113bf565b6101626113d5565b90611bf4565b604051908152f35b3461010b5761014036600319011261010b576004356001600160401b03811161010b576101a1903690600401611378565b61012036602319011261010b576040516101ba81611320565b6001600160a01b03602435818116810361010b578252604435818116810361010b576020830152606435908116810361010b576040820152608435606082015260a435801515810361010b57608082015263ffffffff60c435818116810361010b5760a083015260e4356001600160b01b038116810361010b5760c083015261010435908116810361010b5760e0820152610124359060ff8216820361010b5760209261016892610100830152612265565b3461010b57602036600319011261010b5760043560005260046020526020604060002054604051908152f35b3461010b57602036600319011261010b5760043560005260026020526020604060002054604051908152f35b3461010b57600036600319011261010b576000546040516001600160a01b039091168152602090f35b3461010b57606036600319011261010b576001600160401b0360043581811161010b573660238201121561010b578060040135610329816114f1565b92610337604051948561133c565b8184526020928385016024809460051b8301019136831161010b57848101915b8383106104985750505050813590811161010b573660238201121561010b57806004013592610385846114f1565b93610393604051958661133c565b8085528360e083870192028401019236841161010b578401905b83821061047f5750505050604435926103c98151845114611af0565b60005b835181101561046857670de0b6b3a76400008086029580870482149015171561046a5761045360018060d81b0361043e61041860c099838b61040e898d611b5f565b5101511690611ad0565b61043881610426888a611b5f565b51610431898d611b5f565b519061167f565b90611ab0565b976104498589611b5f565b5101511687611abd565b0494156104685761046390611b50565b6103cc565b005b83634e487b7160e01b60005260116004526000fd5b8260e09161048d3685611508565b8152019101906103ad565b823585811161010b5787916104b38392893691870101611378565b815201920191610357565b3461010b5761012036600319011261010b576004356001600160401b03811161010b576104ef903690600401611378565b60e036602319011261010b5760405190610508826112ef565b6001600160a01b03602435818116810361010b578352604435818116810361010b576020840152606435908116810361010b576040830152608435606083015260a435801515810361010b57608083015260c43563ffffffff8116810361010b5760a083015260e435906001600160d81b038216820361010b57826101689260c06020950152610104359161167f565b3461010b57604036600319011261010b576105b16113bf565b6105b96113d5565b600054604051638da5cb5b60e01b8152602093926001600160a01b039290919085908290600490829087165afa80156106b95783916000916106fa575b501633036106c5578382806004931694169384600052600682526040600020816bffffffffffffffffffffffff60a01b82541617905560405192838092636f307dc360e01b82525afa9081156106b95760009161068c575b50160361065757005b6064906040519062461bcd60e51b82526004820152600e60248201526d24b73b30b634b21031aa37b5b2b760911b6044820152fd5b6106ac9150843d86116106b2575b6106a4818361133c565b810190611bd5565b8461064e565b503d61069a565b6040513d6000823e3d90fd5b60405162461bcd60e51b815260048101859052600d60248201526c139bdd105d5d1a1bdc9a5e9959609a1b6044820152606490fd5b6107119150863d88116106b2576106a4818361133c565b866105f6565b3461010b57602036600319011261010b5760043560005260056020526020604060002054604051908152f35b3461010b57610751366113ff565b6020808301516001600160a01b03908116600090815260069092526040808320548186015183168452922054918116949293929116906107a8908390610798871515611b89565b6107a3841515611b89565b612265565b908160005260056020526040600020545b600160ff610100860151160160ff8111610a7e5760ff16811015610b90576107f181606086015163ffffffff60e088015116906124e6565b9483600052600460205261080a60406000205487611ab0565b80821015610b8b5750805b60018060a01b038651169133608088015115610b83575b6020888101516040516323b872dd60e01b81526001600160a01b0384811660048301528781166024830152604482018790529096929187916064918391600091165af19182156106b9576108f695602093610b66575b5060408a015160c08b01516001600160a01b039091169190600090670de0b6b3a7640000906108ba906001600160b01b031689611abd565b6040516323b872dd60e01b81526001600160a01b0396871660048201529390951660248401529093046044820152958692839182906064820190565b03925af19283156106b95761092b93610b37575b508560005260046020526040600020610924838254611aa3565b9055611ab0565b80958460005260046020526040600020541480610b25575b61096b575b1561095b5761095690611b50565b6107b9565b5050505060209150604051908152f35b620f424061098960406000205463ffffffff60e08901511690611abd565b0483670de0b6b3a76400006109aa60018060b01b0360c08a01511684611abd565b0489918360808a0151610aea575b5088516040516361d8983f60e01b81526001600160a01b0390911660048201526024810192909252602090829081600081604481015b03926001600160a01b03165af180156106b957610abf575b508651604051635267b05560e11b81526001600160a01b039182166004820152602481019390935260209183916044918391600091165af180156106b957610a94575b5083600052600560205260406000208054600181018111610a7e57600101905583600052600460205260006040812055610948565b634e487b7160e01b600052601160045260246000fd5b602090813d8311610ab8575b610aaa818361133c565b8101031261010b5787610a49565b503d610aa0565b602090813d8311610ae3575b610ad5818361133c565b8101031261010b5789610a06565b503d610acb565b60c08a01518c95508894506109ee935060209250670de0b6b3a764000090610b1b906001600160b01b031683611abd565b04949150916109b8565b5060ff61010086015116821415610943565b610b589060203d602011610b5f575b610b50818361133c565b810190611667565b508961090a565b503d610b46565b610b7c90843d8611610b5f57610b50818361133c565b508c610882565b50339261082c565b610815565b5050505060209150610168565b3461010b576020610168610bb0366115a2565b90611db8565b3461010b57600036600319011261010b576020600854604051908152f35b3461010b577f5152abf959f6564662358c2e52b702259b78bac5ee7842a0f01937e670efcc7d6020610c126060610c0a366115a2565b809391611db8565b9101518160005260038352604060002055604051908152a1005b3461010b57602036600319011261010b57600060c0604051610c4d816112ef565b8281528260208201528260408201528260608201528260808201528260a08201520152600435600052600160205260e06040600020604051610c8e816112ef565b60018060a01b03908183541692838252826001820154169060208301918252836002820154169060408401918252600460038201549160608601928352015494608085019260ff8716151584528160a087019560c063ffffffff98898b60081c168952019860281c8952604051998a5251166020890152511660408701525160608601525115156080850152511660a083015260018060d81b0390511660c0820152f35b3461010b57606036600319011261010b5760206101686044356024356004356124e6565b3461010b57606036600319011261010b576001600160401b0360043581811161010b573660238201121561010b57806004013591610d93836114f1565b91610da1604051938461133c565b8383526020908184016024809660051b8301019136831161010b57868101915b838310610e875750505050833591821161010b573660238301121561010b578160040135610dee816114f1565b94610dfc604051968761133c565b8186528060e084880193028501019336851161010b5701905b838210610e6e578585604435610e2e8251845114611af0565b6000905b83518210156104685780610438610e5892610e4d8587611b5f565b516104318689611b5f565b90811561046857610e6890611b50565b90610e32565b8260e091610e7c3685611508565b815201910190610e15565b823586811161010b578591610ea283928b3691870101611378565b815201920191610dc1565b3461010b57610ebb366113ff565b6020828101516001600160a01b0390811660009081526006909252604080832054818601518316845292205492949181169392169190610efc908290612265565b918260005260056020526040600020545b60ff610100840151168110156112e257606083015163ffffffff60e08501511690600183018311610a7e57610f469160018401916124e6565b846000526004602052604060002054968715611162575b610f678883611ab0565b8082101561115d5750805b602086015160408701518751608089015160c08a01516001600160a01b03948516946001600160b01b03909116939281169216903390839015611152575b506040516323b872dd60e01b81526001600160a01b038281166004830152841660248201526044810187905294602090869060649082906000905af19384156106b957670de0b6b3a764000061101560009261105198602098611135575b5089611abd565b6040516323b872dd60e01b81526001600160a01b0396871660048201529390951660248401529093046044820152938492839182906064820190565b03925af180156106b95761108a93611084928492611116575b508960005260046020526040600020610924838254611aa3565b98611aa3565b146110e2575b602083015160408401516110b0916001600160a01b039182169116611bf4565b600052600260205260406000205486106110d2576110cd90611b50565b610f0d565b5050505050602090604051908152f35b83600052600560205260406000208054600181018111610a7e57600101905583600052600460205260006040812055611090565b61112e9060203d602011610b5f57610b50818361133c565b508c61106a565b61114b90893d8b11610b5f57610b50818361133c565b503861100e565b33935090508e610fb0565b610f72565b60c0850180516001600160b01b039186918a918691670de0b6b3a764000090819061118f90881685611abd565b049560808c0151156112bf575b505050620f4240918183810204831482151715610a7e576111cf6020926112089463ffffffff60e08e0151169102611ad0565b8a516040516361d8983f60e01b81526001600160a01b039091166004820152602481019190915292839190829060009082906044820190565b03926001600160a01b03165af180156106b957611294575b508651604051635267b05560e11b81526001600160a01b039182166004820152602481019390935260209183916044918391600091165af180156106b957611269575b50610f5d565b602090813d831161128d575b61127f818361133c565b8101031261010b5788611263565b503d611275565b602090813d83116112b8575b6112aa818361133c565b8101031261010b578a611220565b503d6112a0565b9250935093506112d491508793511685611abd565b0490889084928c808061119c565b5050505050602090610168565b60e081019081106001600160401b0382111761130a57604052565b634e487b7160e01b600052604160045260246000fd5b61012081019081106001600160401b0382111761130a57604052565b90601f801991011681019081106001600160401b0382111761130a57604052565b6001600160401b03811161130a57601f01601f191660200190565b81601f8201121561010b5780359061138f8261135d565b9261139d604051948561133c565b8284526020838301011161010b57816000926020809301838601378301015290565b600435906001600160a01b038216820361010b57565b602435906001600160a01b038216820361010b57565b35906001600160a01b038216820361010b57565b9061016060031983011261010b576004356001600160401b03811161010b5761142e8361012092600401611378565b92602319011261010b5760405161144481611320565b6001600160a01b03602435818116810361010b578252604435818116810361010b576020830152606435908116810361010b576040820152608435606082015260a435801515810361010b57608082015263ffffffff60c435818116810361010b5760a083015260e4356001600160b01b038116810361010b5760c083015261010435908116810361010b5760e08201526101243560ff8116810361010b57610100820152906101443590565b6001600160401b03811161130a5760051b60200190565b91908260e091031261010b57604051611520816112ef565b809261152b816113eb565b8252611539602082016113eb565b602083015261154a604082016113eb565b6040830152606081013560608301526080810135801515810361010b57608083015260a08101359063ffffffff8216820361010b5760a083019190915260c00135906001600160d81b038216820361010b5760c00152565b9061010060031983011261010b576004356001600160401b03811161010b576115d08360e092600401611378565b92602319011261010b576040516115e6816112ef565b6001600160a01b03602435818116810361010b578252604435818116810361010b576020830152606435908116810361010b576040820152608435606082015260a435801515810361010b57608082015260c43563ffffffff8116810361010b5760a082015260e4356001600160d81b038116810361010b5760c082015290565b9081602091031261010b5751801515810361010b5790565b91908115611a54576060810190815115611a035760c08101805190936001600160d81b039390918416156119b257602083810180516001600160a01b039792959291908816156119785760409687840199898b51161561193f57898351168a8c5116146118ef5789855116156118b757846116f991611db8565b986000968a8852600389526117138a892054809851611ab0565b808210156118af57509a5b8b156118a057908b95949392916117358789611aa3565b8c8a5260038b528b8a2055818651169360803397015115611896575b518b516323b872dd60e01b8082526001600160a01b038981166004840152871660248301526044820199909952908b90829060649082908e9088165af1801561188c578b979695948f9194670de0b6b3a7640000946117bd948e9761186f575b50511696511690611abd565b8b519788526001600160a01b0393841660048901529490921660248701529204604485015283916064918391905af1801561186557928561182d89606098957fe96da7d7f9b1253f3f855c25f35f32d0a83a96c1a75acdecf0f3bc7cc3bb1ccf9a98958298611848575b50611aa3565b9186815260038452205581519384523390840152820152a190565b61185e90873d8911610b5f57610b50818361133c565b5038611827565b85513d85823e3d90fd5b611885908c8d3d10610b5f57610b50818361133c565b50386117b1565b8c513d8c823e3d90fd5b9395503393611751565b50505050505050935050505090565b90509a61171e565b885162461bcd60e51b81526004810189905260116024820152701b585ad95c881b5d5cdd081899481cd95d607a1b6044820152606490fd5b885162461bcd60e51b815260048101899052602360248201527f746f6b656e3020616e6420746f6b656e31206d75737420626520646966666572604482015262195b9d60ea1b6064820152608490fd5b885162461bcd60e51b81526004810189905260126024820152711d1bdad95b8c481b5d5cdd081899481cd95d60721b6044820152606490fd5b60405162461bcd60e51b81526004810187905260126024820152711d1bdad95b8c081b5d5cdd081899481cd95d60721b6044820152606490fd5b60405162461bcd60e51b8152602060048201526024808201527f65786368616e67652072617465206d75737420626520677265617465722074686044820152630616e20360e41b6064820152608490fd5b60405162461bcd60e51b815260206004820152602360248201527f6f7264657220616d6f756e74206d75737420626520677265617465722074686160448201526206e20360ec1b6064820152608490fd5b60405162461bcd60e51b815260206004820152602160248201527f66696c6c416d6f756e74206d7573742062652067726561746572207468616e206044820152600360fc1b6064820152608490fd5b91908201809211610a7e57565b91908203918211610a7e57565b81810292918115918404141715610a7e57565b8115611ada570490565b634e487b7160e01b600052601260045260246000fd5b15611af757565b60405162461bcd60e51b815260206004820152602b60248201527f7369676e61747572657320616e64206f7264657273206d75737420686176652060448201526a0e6c2daca40d8cadccee8d60ab1b6064820152608490fd5b6000198114610a7e5760010190565b8051821015611b735760209160051b010190565b634e487b7160e01b600052603260045260246000fd5b15611b9057565b60405162461bcd60e51b815260206004820152601a60248201527f4d617267696e2074726164696e67206e6f7420656e61626c65640000000000006044820152606490fd5b9081602091031261010b57516001600160a01b038116810361010b5790565b6040519060208201926bffffffffffffffffffffffff19809260601b16845260601b16603482015260288152606081018181106001600160401b0382111761130a5760405251902090565b15611c4657565b60405162461bcd60e51b815260206004820152602260248201527f6f72646572416d6f756e74206d7573742062652067726561746572207468616e604482015261020360f41b6064820152608490fd5b15611c9d57565b60405162461bcd60e51b815260206004820152602360248201527f65786368616e676552617465206d75737420626520677265617465722074686160448201526206e20360ec1b6064820152608490fd5b15611cf557565b60405162461bcd60e51b8152602060048201526016602482015275496e76616c696420746f6b656e30206164647265737360501b6044820152606490fd5b15611d3a57565b60405162461bcd60e51b8152602060048201526016602482015275496e76616c696420746f6b656e31206164647265737360501b6044820152606490fd5b15611d7f57565b60405162461bcd60e51b8152602060048201526011602482015270696e76616c6964207369676e617475726560781b6044820152606490fd5b906060810190611dca82511515611c3f565b60c081019260018060d81b0391611de5838651161515611c96565b602081019360018060a01b0395611e00878751161515611cee565b6040830194611e13888751161515611d33565b8780808651169851169651169251608085015115159163ffffffff60a087015116935116936040519760208901997f72947dbb8d2ba67a74e333a748b7a9619ef219198f5cec602fd6d3211397dfbf8b5260408a01526060890152608088015260a087015260c086015260e08501526101009081850152835261012083018381106001600160401b0382111761130a57611ec994611ec494611eba926040525190206120f4565b9485915116611ecc565b611d78565b90565b611ed68383612007565b6005811015611ff157159081611fdb575b50611fd3576040519260209384810191630b135d3f60e11b948584526024830152604060448301528051908160648401528660005b838110611fbe575050509181611f5260848286600083819a9899829a010152601f8019910116810103606481018452018261133c565b51915afa913d15611fb7573d611f678161135d565b90611f75604051928361133c565b81523d60008383013e5b83611fac575b83611f91575b50505090565b90809293508180518101031261010b57015114388080611f8b565b805182149350611f85565b6060611f7f565b81818401015160848287010152018790611f1c565b505050600190565b6001600160a01b03838116911614905038611ee7565b634e487b7160e01b600052602160045260246000fd5b90604181511460001461203557612031916020820151906060604084015193015160001a9061203f565b9091565b5050600090600290565b9291907f7fffffffffffffffffffffffffffffff5d576e7357a4501ddfe92f46681b20a083116120e85760ff16601b811415806120dd575b6120d1579160809493916020936040519384528484015260408301526060820152600093849182805260015afa156120c45781516001600160a01b038116156120be579190565b50600190565b50604051903d90823e3d90fd5b50505050600090600490565b50601c811415612077565b50505050600090600390565b6120fc61213b565b9060405190602082019261190160f01b84526022830152604282015260428152608081018181106001600160401b0382111761130a5760405251902090565b307f00000000000000000000000000000000000000000000000000000000000000006001600160a01b0316148061223c575b15612196577f000000000000000000000000000000000000000000000000000000000000000090565b60405160208101907f000000000000000000000000000000000000000000000000000000000000000082527f000000000000000000000000000000000000000000000000000000000000000060408201527f000000000000000000000000000000000000000000000000000000000000000060608201524660808201523060a082015260a0815260c081018181106001600160401b0382111761130a5760405251902090565b507f0000000000000000000000000000000000000000000000000000000000000000461461216d565b606082019161227683511515611c3f565b60c0810180516001600160b01b03906122929082161515611c96565b60e083019163ffffffff91828451161561249657620f4240838551161015612447576101009687860160ff81511615612402576020870180516001600160a01b039a91978b969092916122e89088161515611cee565b8960409687820199898b511615156122ff90611d33565b898c51169960009a8b526006602052808a8c205416151561231f90611b89565b808c51168b526006602052808a8c205416151561233b90611b89565b80808551169d51169b511697519181608085015115159460a0015116945116955116955160ff169688519a60208c019c7f4b5ce9bff05b2eb1b04a66685b9bbe715805ee88470a2d38bc2068b29b9566618e528a8d015260608c015260808b015260a08a015260c089015260e0880152860152610120850152610140908185015283526101608301918383106001600160401b038411176123ee575052519020611ec992611ec4929091611eba906120f4565b634e487b7160e01b81526041600452602490fd5b60405162461bcd60e51b815260206004820152601f60248201527f6c65766572616765206d7573742062652067726561746572207468616e2030006044820152606490fd5b60405162461bcd60e51b815260206004820152602160248201527f626f72726f774c696d6974206d757374206265206c657373207468616e2031656044820152601b60f91b6064820152608490fd5b60405162461bcd60e51b815260206004820152602260248201527f626f72726f774c696d6974206d7573742062652067726561746572207468616e604482015261020360f41b6064820152608490fd5b916000915b8183106124f85750505090565b909192620f424061250c8361251393611abd565b0493611b50565b91906124eb56fea2646970667358221220ee1c14466d8255269e56c7ef14764ef4991c4ecf4157eb50f99ad70124db6fc964736f6c63430008110033",
  "linkReferences": {},
  "deployedLinkReferences": {}
}