{
  "_format": "hh-sol-artifact-1",
  "contractName": "Exchange",
  "sourceName": "contracts/Exchange.sol",
  "abi": [
    {
      "inputs": [],
      "stateMutability": "nonpayable",
      "type": "constructor"
    },
    {
      "anonymous": false,
      "inputs": [
        {
          "indexed": false,
          "internalType": "address",
          "name": "token",
          "type": "address"
        },
        {
          "indexed": false,
          "internalType": "address",
          "name": "cToken",
          "type": "address"
        }
      ],
      "name": "MarginEnabled",
      "type": "event"
    },
    {
      "anonymous": false,
      "inputs": [
        {
          "indexed": false,
          "internalType": "address",
          "name": "token",
          "type": "address"
        },
        {
          "indexed": false,
          "internalType": "uint256",
          "name": "amount",
          "type": "uint256"
        }
      ],
      "name": "MinTokenAmountSet",
      "type": "event"
    },
    {
      "anonymous": false,
      "inputs": [
        {
          "indexed": false,
          "internalType": "bytes32",
          "name": "orderId",
          "type": "bytes32"
        }
      ],
      "name": "OrderCancelled",
      "type": "event"
    },
    {
      "anonymous": false,
      "inputs": [
        {
          "indexed": false,
          "internalType": "bytes32",
          "name": "orderId",
          "type": "bytes32"
        },
        {
          "indexed": false,
          "internalType": "address",
          "name": "maker",
          "type": "address"
        },
        {
          "indexed": false,
          "internalType": "address",
          "name": "token0",
          "type": "address"
        },
        {
          "indexed": false,
          "internalType": "address",
          "name": "token1",
          "type": "address"
        },
        {
          "indexed": false,
          "internalType": "uint256",
          "name": "amount",
          "type": "uint256"
        },
        {
          "indexed": false,
          "internalType": "uint216",
          "name": "_exchangeRate",
          "type": "uint216"
        },
        {
          "indexed": false,
          "internalType": "bool",
          "name": "buy",
          "type": "bool"
        },
        {
          "indexed": false,
          "internalType": "uint32",
          "name": "salt",
          "type": "uint32"
        }
      ],
      "name": "OrderCreated",
      "type": "event"
    },
    {
      "anonymous": false,
      "inputs": [
        {
          "indexed": false,
          "internalType": "bytes32",
          "name": "orderId",
          "type": "bytes32"
        },
        {
          "indexed": false,
          "internalType": "address",
          "name": "taker",
          "type": "address"
        },
        {
          "indexed": false,
          "internalType": "uint256",
          "name": "fillAmount",
          "type": "uint256"
        }
      ],
      "name": "OrderExecuted",
      "type": "event"
    },
    {
      "anonymous": false,
      "inputs": [
        {
          "indexed": false,
          "internalType": "bytes32",
          "name": "orderId",
          "type": "bytes32"
        },
        {
          "indexed": false,
          "internalType": "uint256",
          "name": "amount",
          "type": "uint256"
        },
        {
          "indexed": false,
          "internalType": "uint256",
          "name": "_exchangeRate",
          "type": "uint256"
        }
      ],
      "name": "OrderUpdated",
      "type": "event"
    },
    {
      "anonymous": false,
      "inputs": [
        {
          "indexed": true,
          "internalType": "address",
          "name": "previousOwner",
          "type": "address"
        },
        {
          "indexed": true,
          "internalType": "address",
          "name": "newOwner",
          "type": "address"
        }
      ],
      "name": "OwnershipTransferred",
      "type": "event"
    },
    {
      "anonymous": false,
      "inputs": [
        {
          "indexed": false,
          "internalType": "bytes32",
          "name": "pairId",
          "type": "bytes32"
        },
        {
          "indexed": false,
          "internalType": "address",
          "name": "token0",
          "type": "address"
        },
        {
          "indexed": false,
          "internalType": "address",
          "name": "token1",
          "type": "address"
        },
        {
          "indexed": false,
          "internalType": "uint256",
          "name": "exchangeRateDecimals",
          "type": "uint256"
        },
        {
          "indexed": false,
          "internalType": "uint256",
          "name": "minToken0Order",
          "type": "uint256"
        },
        {
          "indexed": false,
          "internalType": "uint256",
          "name": "minToken1Order",
          "type": "uint256"
        }
      ],
      "name": "PairCreated",
      "type": "event"
    },
    {
      "inputs": [
        {
          "internalType": "address",
          "name": "token",
          "type": "address"
        },
        {
          "internalType": "uint256",
          "name": "amount",
          "type": "uint256"
        }
      ],
      "name": "borrow",
      "outputs": [],
      "stateMutability": "nonpayable",
      "type": "function"
    },
    {
      "inputs": [
        {
          "internalType": "bytes",
          "name": "signature",
          "type": "bytes"
        },
        {
          "components": [
            {
              "internalType": "address",
              "name": "maker",
              "type": "address"
            },
            {
              "internalType": "address",
              "name": "token0",
              "type": "address"
            },
            {
              "internalType": "address",
              "name": "token1",
              "type": "address"
            },
            {
              "internalType": "uint256",
              "name": "amount",
              "type": "uint256"
            },
            {
              "internalType": "enum IExchange.OrderType",
              "name": "orderType",
              "type": "uint8"
            },
            {
              "internalType": "uint32",
              "name": "salt",
              "type": "uint32"
            },
            {
              "internalType": "uint176",
              "name": "exchangeRate",
              "type": "uint176"
            },
            {
              "internalType": "uint32",
              "name": "borrowLimit",
              "type": "uint32"
            },
            {
              "internalType": "uint8",
              "name": "loops",
              "type": "uint8"
            }
          ],
          "internalType": "struct IExchange.Order",
          "name": "order",
          "type": "tuple"
        }
      ],
      "name": "cancelOrder",
      "outputs": [],
      "stateMutability": "nonpayable",
      "type": "function"
    },
    {
      "inputs": [
        {
          "internalType": "address",
          "name": "asset",
          "type": "address"
        },
        {
          "internalType": "address",
          "name": "from",
          "type": "address"
        },
        {
          "internalType": "uint256",
          "name": "amount",
          "type": "uint256"
        }
      ],
      "name": "doTransferIn",
      "outputs": [
        {
          "internalType": "uint256",
          "name": "",
          "type": "uint256"
        }
      ],
      "stateMutability": "nonpayable",
      "type": "function"
    },
    {
      "inputs": [
        {
          "internalType": "address",
          "name": "asset",
          "type": "address"
        },
        {
          "internalType": "address payable",
          "name": "to",
          "type": "address"
        },
        {
          "internalType": "uint256",
          "name": "amount",
          "type": "uint256"
        }
      ],
      "name": "doTransferOut",
      "outputs": [],
      "stateMutability": "nonpayable",
      "type": "function"
    },
    {
      "inputs": [
        {
          "internalType": "address",
          "name": "token",
          "type": "address"
        },
        {
          "internalType": "address",
          "name": "cToken",
          "type": "address"
        }
      ],
      "name": "enableMarginTrading",
      "outputs": [],
      "stateMutability": "nonpayable",
      "type": "function"
    },
    {
      "inputs": [
        {
          "internalType": "bytes[]",
          "name": "signatures",
          "type": "bytes[]"
        },
        {
          "components": [
            {
              "internalType": "address",
              "name": "maker",
              "type": "address"
            },
            {
              "internalType": "address",
              "name": "token0",
              "type": "address"
            },
            {
              "internalType": "address",
              "name": "token1",
              "type": "address"
            },
            {
              "internalType": "uint256",
              "name": "amount",
              "type": "uint256"
            },
            {
              "internalType": "enum IExchange.OrderType",
              "name": "orderType",
              "type": "uint8"
            },
            {
              "internalType": "uint32",
              "name": "salt",
              "type": "uint32"
            },
            {
              "internalType": "uint176",
              "name": "exchangeRate",
              "type": "uint176"
            },
            {
              "internalType": "uint32",
              "name": "borrowLimit",
              "type": "uint32"
            },
            {
              "internalType": "uint8",
              "name": "loops",
              "type": "uint8"
            }
          ],
          "internalType": "struct IExchange.Order[]",
          "name": "orders",
          "type": "tuple[]"
        },
        {
          "internalType": "uint256",
          "name": "token0AmountToFill",
          "type": "uint256"
        }
      ],
      "name": "executeLimitOrders",
      "outputs": [],
      "stateMutability": "nonpayable",
      "type": "function"
    },
    {
      "inputs": [
        {
          "internalType": "bytes[]",
          "name": "signatures",
          "type": "bytes[]"
        },
        {
          "components": [
            {
              "internalType": "address",
              "name": "maker",
              "type": "address"
            },
            {
              "internalType": "address",
              "name": "token0",
              "type": "address"
            },
            {
              "internalType": "address",
              "name": "token1",
              "type": "address"
            },
            {
              "internalType": "uint256",
              "name": "amount",
              "type": "uint256"
            },
            {
              "internalType": "enum IExchange.OrderType",
              "name": "orderType",
              "type": "uint8"
            },
            {
              "internalType": "uint32",
              "name": "salt",
              "type": "uint32"
            },
            {
              "internalType": "uint176",
              "name": "exchangeRate",
              "type": "uint176"
            },
            {
              "internalType": "uint32",
              "name": "borrowLimit",
              "type": "uint32"
            },
            {
              "internalType": "uint8",
              "name": "loops",
              "type": "uint8"
            }
          ],
          "internalType": "struct IExchange.Order[]",
          "name": "orders",
          "type": "tuple[]"
        },
        {
          "internalType": "uint256",
          "name": "token1AmountToFill",
          "type": "uint256"
        }
      ],
      "name": "executeMarketOrders",
      "outputs": [],
      "stateMutability": "nonpayable",
      "type": "function"
    },
    {
      "inputs": [
        {
          "internalType": "bytes32",
          "name": "digest",
          "type": "bytes32"
        }
      ],
      "name": "loopFill",
      "outputs": [
        {
          "internalType": "uint256",
          "name": "",
          "type": "uint256"
        }
      ],
      "stateMutability": "view",
      "type": "function"
    },
    {
      "inputs": [
        {
          "internalType": "bytes32",
          "name": "digest",
          "type": "bytes32"
        }
      ],
      "name": "loops",
      "outputs": [
        {
          "internalType": "uint256",
          "name": "",
          "type": "uint256"
        }
      ],
      "stateMutability": "view",
      "type": "function"
    },
    {
      "inputs": [],
      "name": "makerFee",
      "outputs": [
        {
          "internalType": "uint256",
          "name": "",
          "type": "uint256"
        }
      ],
      "stateMutability": "view",
      "type": "function"
    },
    {
      "inputs": [
        {
          "internalType": "address",
          "name": "token",
          "type": "address"
        }
      ],
      "name": "minTokenAmount",
      "outputs": [
        {
          "internalType": "uint256",
          "name": "",
          "type": "uint256"
        }
      ],
      "stateMutability": "view",
      "type": "function"
    },
    {
      "inputs": [
        {
          "internalType": "address",
          "name": "token",
          "type": "address"
        },
        {
          "internalType": "uint256",
          "name": "amount",
          "type": "uint256"
        }
      ],
      "name": "mint",
      "outputs": [],
      "stateMutability": "nonpayable",
      "type": "function"
    },
    {
      "inputs": [
        {
          "internalType": "bytes32",
          "name": "digest",
          "type": "bytes32"
        }
      ],
      "name": "orderFills",
      "outputs": [
        {
          "internalType": "uint256",
          "name": "",
          "type": "uint256"
        }
      ],
      "stateMutability": "view",
      "type": "function"
    },
    {
      "inputs": [],
      "name": "owner",
      "outputs": [
        {
          "internalType": "address",
          "name": "",
          "type": "address"
        }
      ],
      "stateMutability": "view",
      "type": "function"
    },
    {
      "inputs": [
        {
          "internalType": "address",
          "name": "token",
          "type": "address"
        },
        {
          "internalType": "uint256",
          "name": "amount",
          "type": "uint256"
        }
      ],
      "name": "redeem",
      "outputs": [],
      "stateMutability": "nonpayable",
      "type": "function"
    },
    {
      "inputs": [],
      "name": "renounceOwnership",
      "outputs": [],
      "stateMutability": "nonpayable",
      "type": "function"
    },
    {
      "inputs": [
        {
          "internalType": "address",
          "name": "token",
          "type": "address"
        },
        {
          "internalType": "uint256",
          "name": "amount",
          "type": "uint256"
        }
      ],
      "name": "repay",
      "outputs": [],
      "stateMutability": "nonpayable",
      "type": "function"
    },
    {
      "inputs": [
        {
          "internalType": "uint256",
          "name": "amount",
          "type": "uint256"
        },
        {
          "internalType": "uint256",
          "name": "borrowLimit",
          "type": "uint256"
        },
        {
          "internalType": "uint256",
          "name": "loop",
          "type": "uint256"
        }
      ],
      "name": "scaledByBorrowLimit",
      "outputs": [
        {
          "internalType": "uint256",
          "name": "",
          "type": "uint256"
        }
      ],
      "stateMutability": "pure",
      "type": "function"
    },
    {
      "inputs": [
        {
          "internalType": "address",
          "name": "token",
          "type": "address"
        },
        {
          "internalType": "uint256",
          "name": "amount",
          "type": "uint256"
        }
      ],
      "name": "setMinTokenAmount",
      "outputs": [],
      "stateMutability": "nonpayable",
      "type": "function"
    },
    {
      "inputs": [],
      "name": "takerFee",
      "outputs": [
        {
          "internalType": "uint256",
          "name": "",
          "type": "uint256"
        }
      ],
      "stateMutability": "view",
      "type": "function"
    },
    {
      "inputs": [
        {
          "internalType": "address",
          "name": "newOwner",
          "type": "address"
        }
      ],
      "name": "transferOwnership",
      "outputs": [],
      "stateMutability": "nonpayable",
      "type": "function"
    },
    {
      "inputs": [
        {
          "components": [
            {
              "internalType": "address",
              "name": "maker",
              "type": "address"
            },
            {
              "internalType": "address",
              "name": "token0",
              "type": "address"
            },
            {
              "internalType": "address",
              "name": "token1",
              "type": "address"
            },
            {
              "internalType": "uint256",
              "name": "amount",
              "type": "uint256"
            },
            {
              "internalType": "enum IExchange.OrderType",
              "name": "orderType",
              "type": "uint8"
            },
            {
              "internalType": "uint32",
              "name": "salt",
              "type": "uint32"
            },
            {
              "internalType": "uint176",
              "name": "exchangeRate",
              "type": "uint176"
            },
            {
              "internalType": "uint32",
              "name": "borrowLimit",
              "type": "uint32"
            },
            {
              "internalType": "uint8",
              "name": "loops",
              "type": "uint8"
            }
          ],
          "internalType": "struct IExchange.Order",
          "name": "order",
          "type": "tuple"
        }
      ],
      "name": "validateOrder",
      "outputs": [
        {
          "internalType": "bool",
          "name": "",
          "type": "bool"
        }
      ],
      "stateMutability": "view",
      "type": "function"
    },
    {
      "inputs": [
        {
          "internalType": "bytes",
          "name": "signature",
          "type": "bytes"
        },
        {
          "components": [
            {
              "internalType": "address",
              "name": "maker",
              "type": "address"
            },
            {
              "internalType": "address",
              "name": "token0",
              "type": "address"
            },
            {
              "internalType": "address",
              "name": "token1",
              "type": "address"
            },
            {
              "internalType": "uint256",
              "name": "amount",
              "type": "uint256"
            },
            {
              "internalType": "enum IExchange.OrderType",
              "name": "orderType",
              "type": "uint8"
            },
            {
              "internalType": "uint32",
              "name": "salt",
              "type": "uint32"
            },
            {
              "internalType": "uint176",
              "name": "exchangeRate",
              "type": "uint176"
            },
            {
              "internalType": "uint32",
              "name": "borrowLimit",
              "type": "uint32"
            },
            {
              "internalType": "uint8",
              "name": "loops",
              "type": "uint8"
            }
          ],
          "internalType": "struct IExchange.Order",
          "name": "order",
          "type": "tuple"
        }
      ],
      "name": "verifyOrderHash",
      "outputs": [
        {
          "internalType": "bytes32",
          "name": "",
          "type": "bytes32"
        }
      ],
      "stateMutability": "view",
      "type": "function"
    }
  ],
  "bytecode": "0x6101408060405234620001795762000017816200017e565b60048152600160208201637a65786560e01b815260206040516200003b816200017e565b8381520192603160f81b845251902091208160e052610100918183524660a0526040519160208301907f8b73c3c69bb8fe3d512ecc4cf759cc79239f7b179b0ffacaa9a75d522b39400f92838352604085015260608401524660808401523060a084015260a0835260c083019280841060018060401b03851117620001635760408490525190206080523060c05261012090815260008054336001600160a01b0319821681178355916001600160a01b03909116907f8be0079c531659141344cd1fd0a4f28419497f9722a3daafe3b4186f6b6457e09080a3670de0b6b3a764000080600655600755612ad992836200019b84396080518361250a015260a051836125c5015260c051836124d4015260e051836125590152518261257f015251816125360152f35b634e487b7160e01b600052604160045260246000fd5b600080fd5b604081019081106001600160401b03821117620001635760405256fe60806040526004361015610013575b600080fd5b60003560e01c80631251cd45146101df5780631bceb8d4146101d65780631e9a6950146101cd57806322867d78146101c457806340c10f19146101bb57806343f0179b146101b25780634b8a3529146101a95780634ca58b11146101a05780635728e161146101975780635d3f53561461018e578063715018a61461018557806379e650621461017c5780637ddd6daf146101735780638da5cb5b1461016a578063973b03e614610161578063bed29b6314610158578063c37f7f7f1461014f578063c66c253614610146578063d212ae521461013d578063e290ea8a14610134578063f2fde38b1461012b578063f7213db6146101225763fc741c7c1461011a57600080fd5b61000e6113be565b5061000e611397565b5061000e6112cf565b5061000e6111a4565b5061000e611108565b5061000e611047565b5061000e610e97565b5061000e610e70565b5061000e610e17565b5061000e610ded565b5061000e610d10565b5061000e610ab4565b5061000e610a55565b5061000e61093d565b5061000e610916565b5061000e6108ea565b5061000e610572565b5061000e610553565b5061000e610485565b5061000e6103c2565b5061000e61029c565b5061000e61025e565b503461000e57606036600319011261000e576020610204604435602435600435612a17565b604051908152f35b6001600160a01b0381160361000e57565b6004359061022a8261020c565b565b6024359061022a8261020c565b6044359061022a8261020c565b6064359061022a8261020c565b359061022a8261020c565b503461000e57602036600319011261000e5760206102046004356102818161020c565b6001600160a01b031660009081526001602052604090205490565b503461000e57604036600319011261000e576103856000602061036a6004356102c48161020c565b6024356103406103376103086102fc6102ef8660018060a01b03166000526005602052604060002090565b546001600160a01b031690565b6001600160a01b031690565b9361031d6001600160a01b0386161515611a83565b6001600160a01b0316600090815260016020526040902090565b54821015611acf565b6040516301e9a69560e41b8152336004820152602481019190915293849283919082906044820190565b03925af19081156103b5575b600091610387575b5015611b57565b005b6103a8915060203d81116103ae575b6103a08183610689565b810190611b0e565b3861037e565b503d610396565b6103bd611567565b610376565b503461000e57604036600319011261000e576103856000602061043f6004356103ea8161020c565b6024356104156103376103086102fc6102ef8660018060a01b03166000526005602052604060002090565b60405163157b6bd560e31b8152336004820152602481019190915293849283919082906044820190565b03925af1908115610478575b60009161045a575b5015611bcf565b610472915060203d81116103ae576103a08183610689565b38610453565b610480611567565b61044b565b503461000e57604036600319011261000e57610385600060206105026004356104ad8161020c565b6024356104d86103376103086102fc6102ef8660018060a01b03166000526005602052604060002090565b6040516340c10f1960e01b8152336004820152602481019190915293849283919082906044820190565b03925af190811561053b575b60009161051d575b5015611b1d565b610535915060203d81116103ae576103a08183610689565b38610516565b610543611567565b61050e565b600091031261000e57565b503461000e57600036600319011261000e576020600754604051908152f35b503461000e57604036600319011261000e57610385600060206105ef60043561059a8161020c565b6024356105c56103376103086102fc6102ef8660018060a01b03166000526005602052604060002090565b604051634b8a352960e01b8152336004820152602481019190915293849283919082906044820190565b03925af1908115610628575b60009161060a575b5015611b93565b610622915060203d81116103ae576103a08183610689565b38610603565b610630611567565b6105fb565b50634e487b7160e01b600052604160045260246000fd5b67ffffffffffffffff811161066057604052565b610668610635565b604052565b60c0810190811067ffffffffffffffff82111761066057604052565b90601f8019910116810190811067ffffffffffffffff82111761066057604052565b60405190610120820182811067ffffffffffffffff82111761066057604052565b60209067ffffffffffffffff81116106ea575b601f01601f19160190565b6106f2610635565b6106df565b81601f8201121561000e5780359061070e826106cc565b9261071c6040519485610689565b8284526020838301011161000e57816000926020809301838601378301015290565b60843590600482101561000e57565b60a43590600482101561000e57565b3590600482101561000e57565b60a4359063ffffffff8216820361000e57565b60e4359063ffffffff8216820361000e57565b60c4359063ffffffff8216820361000e57565b610104359063ffffffff8216820361000e57565b359063ffffffff8216820361000e57565b60c435906001600160b01b038216820361000e57565b60e435906001600160b01b038216820361000e57565b35906001600160b01b038216820361000e57565b610104359060ff8216820361000e57565b610124359060ff8216820361000e57565b359060ff8216820361000e57565b9061014060031983011261000e5760043567ffffffffffffffff811161000e5761086783610120926004016106f7565b92602319011261000e576108796106ab565b61088161022c565b815261088b610239565b6020820152610898610246565b604082015260843560608201526108ad61074d565b60808201526108ba61078f565b60a08201526108c76107dd565b60c08201526108d46107a2565b60e08201526108e1610818565b61010082015290565b503461000e5760206102046108fe36610837565b906120e8565b602090600319011261000e5760043590565b503461000e5761092536610904565b60005260046020526020604060002054604051908152f35b503461000e57604036600319011261000e577f51d94f40b0b92318fe811ce606c1fb8b340724e59936221206e511d53f2be88560043561097c8161020c565b602435906109898261020c565b6109916113dd565b6001600160a01b03818116600081815260056020908152604090912080546001600160a01b0319168685169081179091556109f69391600491604051636f307dc360e01b815292839182905afa908115610a48575b600091610a1a575b501614611cb7565b604080516001600160a01b039283168152929091166020830152819081015b0390a1005b610a3b915060203d8111610a41575b610a338183610689565b810190611ca2565b386109ee565b503d610a29565b610a50611567565b6109e6565b503461000e57600080600319360112610ab157610a706113dd565b80546001600160a01b03198116825581906001600160a01b03167f8be0079c531659141344cd1fd0a4f28419497f9722a3daafe3b4186f6b6457e08280a380f35b80fd5b503461000e57604036600319011261000e577f88440433b8dcdcdd027c68be7f3df5a4e98fce1c8244078225229214a059e1c2600435610af38161020c565b60243590610aff6113dd565b6001600160a01b031660008181526001602090815260409182902084905581519283528201929092529081908101610a15565b60209067ffffffffffffffff8111610b4c575b60051b0190565b610b54610635565b610b45565b81601f8201121561000e57803590610b7082610b32565b92604090610b8082519586610689565b83855260209182860191836101208097028601019481861161000e578401925b858410610bb1575050505050505090565b868483031261000e57848791610bc56106ab565b610bce87610253565b8152610bdb838801610253565b83820152610bea868801610253565b86820152606080880135908201526080610c0581890161075c565b9082015260a0610c168189016107b6565b9082015260c0610c278189016107f3565b9082015260e0610c388189016107b6565b90820152610100610c4a818901610829565b90820152815201930192610ba0565b90606060031983011261000e576004359167ffffffffffffffff9081841161000e578060238501121561000e57836004013593610c9585610b32565b90610ca36040519283610689565b8582526020908183016024809860051b8301019185831161000e57888101915b838310610ceb575050505050933591821161000e57610ce491600401610b59565b9060443590565b823588811161000e578591610d05898d85948701016106f7565b815201920191610cc3565b503461000e57610d1f36610c59565b919091610d2f8251845114611435565b6000905b835182101561038557610d95906080610d5781610d5086896114c8565b510161151b565b610d6081611509565b15908115610dcb575b5015610dab57610d8f81610d7d85876114c8565b51610d8886896114c8565b5190611574565b90611533565b90811561038557610da5906114ac565b90610d33565b610d8f81610db985876114c8565b51610dc486896114c8565b5190611853565b60019150610ddd90610d5086896114c8565b610de681611509565b1438610d69565b503461000e57600036600319011261000e576000546040516001600160a01b039091168152602090f35b503461000e577f5152abf959f6564662358c2e52b702259b78bac5ee7842a0f01937e670efcc7d6020610e566060610e4e36610837565b8093916120e8565b9101518160005260028352604060002055604051908152a1005b503461000e57610e7f36610904565b60005260036020526020604060002054604051908152f35b503461000e57606036600319011261000e57600435610eb58161020c565b60243590610ec28261020c565b6040516370a0823160e01b8082523060048301526001600160a01b0392909216926020908183602481885afa92831561103a575b60009361101b575b50843b1561000e576040516323b872dd60e01b81526001600160a01b03919091166004820152306024820152604480359082015260008160648183895af1801561100e575b610ff5575b503d8015610fe057602014610f5c57600080fd5b610fb29381610fa294816000803e610f75600051611c0a565b60405190815230600482015291829060249082905afa918215610fd3575b600092610fb6575b5050611533565b6040519081529081906020820190565b0390f35b610fcc9250803d106103ae576103a08183610689565b3880610f9b565b610fdb611567565b610f93565b50610fb29381610fa294610f75600019611c0a565b806110026110089261064c565b80610548565b38610f48565b611016611567565b610f43565b611033919350823d84116103ae576103a08183610689565b9138610efe565b611042611567565b610ef6565b503461000e57606036600319011261000e576004356110658161020c565b6024356110718161020c565b6001600160a01b03918216803b1561000e5760405192839263a9059cbb60e01b845216600483015260443560248301528160446000948580945af180156110fb575b6110e8575b503d80156110dc576020146110ca5780fd5b602081803e6110d98151611c56565b80f35b506110d9600019611c56565b806110026110f59261064c565b386110b8565b611103611567565b6110b3565b503461000e5761012036600319011261000e57602061119a6111286106ab565b61113061021d565b815261113a61022c565b83820152611146610239565b6040820152606435606082015261115b61073e565b6080820152611168610769565b60a08201526111756107c7565b60c082015261118261077c565b60e082015261118f610807565b610100820152612875565b6040519015158152f35b503461000e576111b336610c59565b916111c18151835114611435565b6000925b82518410156103855761127f61127161126b61120d61126061121f6111ea8a976117eb565b61121961120d8b6111fe60c09e8f926114c8565b5101516001600160b01b031690565b6001600160b01b031690565b90611833565b608061122f81610d508a8d6114c8565b61123881611509565b159081156112ad575b501561129457610d8f81611255898b6114c8565b51610d888a8d6114c8565b976111fe86896114c8565b86611820565b670de0b6b3a7640000900490565b93156103855761128e906114ac565b926111c5565b610d8f816112a2898b6114c8565b51610dc48a8d6114c8565b600191506112bf90610d508a8d6114c8565b6112c881611509565b1438611241565b503461000e57602036600319011261000e576004356112ed8161020c565b6112f56113dd565b6001600160a01b03908116801561134357600080546001600160a01b03198116831782559092167f8be0079c531659141344cd1fd0a4f28419497f9722a3daafe3b4186f6b6457e08380a380f35b60405162461bcd60e51b815260206004820152602660248201527f4f776e61626c653a206e6577206f776e657220697320746865207a65726f206160448201526564647265737360d01b6064820152608490fd5b503461000e576113a636610904565b60005260026020526020604060002054604051908152f35b503461000e57600036600319011261000e576020600654604051908152f35b6000546001600160a01b031633036113f157565b606460405162461bcd60e51b815260206004820152602060248201527f4f776e61626c653a2063616c6c6572206973206e6f7420746865206f776e65726044820152fd5b1561143c57565b60405162461bcd60e51b815260206004820152602b60248201527f7369676e61747572657320616e64206f7264657273206d75737420686176652060448201526a0e6c2daca40d8cadccee8d60ab1b6064820152608490fd5b50634e487b7160e01b600052601160045260246000fd5b60019060001981146114bc570190565b6114c4611495565b0190565b80518210156114dc5760209160051b010190565b634e487b7160e01b600052603260045260246000fd5b50634e487b7160e01b600052602160045260246000fd5b6004111561151357565b61022a6114f2565b5160048110156115285790565b6115306114f2565b90565b9190820391821161154057565b61022a611495565b1561000e57565b9081602091031261000e5751801515810361000e5790565b506040513d6000823e3d90fd5b81611581919392936120e8565b9161159361158e82612875565b611548565b6115c06115aa846000526002602052604060002090565b54926115ba846060850151611533565b906117be565b9283156117b557611708847fe96da7d7f9b1253f3f855c25f35f32d0a83a96c1a75acdecf0f3bc7cc3bb1ccf94848261160081975160018060a01b031690565b336001608085015161161181611509565b61161a81611509565b146117a1575b602093849261163d6102fc6102fc8685015160018060a01b031690565b6040516323b872dd60e01b8082526001600160a01b038681166004840152841660248301526044820197909752908590829060649082906000905af18015611794575b611777575b5060006116c46112716116be61120d60c06116af6102fc6102fc60408b015160018060a01b031690565b9701516001600160b01b031690565b8b611820565b6040519687526001600160a01b039283166004880152919093166024860152604485015283918290816064810103925af1801561176a575b61173c575b50506117de565b61171c826000526002602052604060002090565b556040805191825233602083015281019190915280606081015b0390a190565b8161175b92903d10611763575b6117538183610689565b81019061154f565b503880611701565b503d611749565b611772611567565b6116fc565b61178d90853d8711611763576117538183610689565b5038611685565b61179c611567565b611680565b505081516001600160a01b03163390611620565b50505050600090565b90808210156117cb575090565b905090565b906001820180921161154057565b9190820180921161154057565b90670de0b6b3a76400009182810292818404149015171561154057565b90620f42409182810292818404149015171561154057565b8181029291811591840414171561154057565b811561183d570490565b634e487b7160e01b600052601260045260246000fd5b60208201805191929091611889906102ef906001600160a01b03165b6001600160a01b0316600090815260056020526040902090565b936118ad826118a76102ef61186f604084015160018060a01b031690565b956120e8565b926118ba61158e84612875565b6000806118d1866000526004602052604060002090565b545b6118eb6118e561010088015160ff1690565b60ff1690565b811015611a7557611922606087015161190b60e089015163ffffffff1690565b9063ffffffff61191a856117d0565b921690612a17565b91611937886000526003602052604060002090565b54928a88828c8715611a63575b506119a7925061199f915061195c8761196292611533565b8a6117be565b61196d8180966117de565b9961197982338e611cf4565b61198d8d6000526003602052604060002090565b6119988382546117de565b9055611533565b9283956117de565b14611a28575b84516119c1906001600160a01b0316610281565b10156119d8576119d0906114ac565b9390936118d3565b5096505050919250505b806119ec57505090565b604080519283523360208401528201527fe96da7d7f9b1253f3f855c25f35f32d0a83a96c1a75acdecf0f3bc7cc3bb1ccf908060608101611736565b611a3c886000526004602052604060002090565b611a4681546117d0565b905583611a5d896000526003602052604060002090565b556119ad565b611a6c93611ed5565b8a88828c611944565b5094955050509350506119e2565b15611a8a57565b60405162461bcd60e51b815260206004820152601a60248201527f4d617267696e2074726164696e67206e6f7420656e61626c65640000000000006044820152606490fd5b15611ad657565b60405162461bcd60e51b815260206004820152601060248201526f105b5bdd5b9d081d1bdbc81cdb585b1b60821b6044820152606490fd5b9081602091031261000e575190565b15611b2457565b60405162461bcd60e51b815260206004820152600b60248201526a135a5b9d0819985a5b195960aa1b6044820152606490fd5b15611b5e57565b60405162461bcd60e51b815260206004820152600d60248201526c14995919595b4819985a5b1959609a1b6044820152606490fd5b15611b9a57565b60405162461bcd60e51b815260206004820152600d60248201526c109bdc9c9bddc819985a5b1959609a1b6044820152606490fd5b15611bd657565b60405162461bcd60e51b815260206004820152600c60248201526b14995c185e4819985a5b195960a21b6044820152606490fd5b15611c1157565b60405162461bcd60e51b815260206004820152601860248201527f544f4b454e5f5452414e534645525f494e5f4641494c454400000000000000006044820152606490fd5b15611c5d57565b60405162461bcd60e51b815260206004820152601960248201527f544f4b454e5f5452414e534645525f4f55545f4641494c4544000000000000006044820152606490fd5b9081602091031261000e57516115308161020c565b15611cbe57565b60405162461bcd60e51b815260206004820152600e60248201526d24b73b30b634b21031aa37b5b2b760911b6044820152606490fd5b8051909291906001600160a01b031690806080850160018151611d1681611509565b611d1f81611509565b14908115611e73575b50611e5d575b506020848101516040516323b872dd60e01b8082526001600160a01b03858116600484015280871660248401526044830188905293979096889691949193909291879183916064918391165a90600091f1600092611dcd92611271928015611e50575b611e33575b50611dc761120d60c0611db86102fc6102fc60408c015160018060a01b031690565b9801516001600160b01b031690565b90611820565b6040519687526001600160a01b039283166004880152919093166024860152604485015283918290816064810103925af18015611e26575b611e0d575050565b81611e2392903d10611763576117538183610689565b50565b611e2e611567565b611e05565b611e4990893d8b11611763576117538183610689565b5038611d96565b611e58611567565b611d91565b84519092506001600160a01b0316905038611d2e565b6003915051611e8181611509565b611e8a81611509565b1438611d28565b604051906040820182811067ffffffffffffffff821117611ec8575b6040526009825268537570706c79696e6760b81b6020830152565b611ed0610635565b611ead565b9061200492611fa59492808290849360c08701611f07611271611f0161120d845160018060b01b031690565b84611820565b96600360808a0151611f1881611509565b611f2181611509565b14612065575b50505050611fce611f59611f3c600093611808565b611219611f5060e08a015163ffffffff1690565b63ffffffff1690565b95611f6b87611f66611e91565b612a4b565b80516040516340c10f1960e01b81526001600160a01b03909116600482015260248101979097526020988997908890829081906044820190565b03818760018060a01b03809a165af18015612058575b61203b575b50516001600160a01b031690565b604051634b8a352960e01b81526001600160a01b0390911660048201526024810194909452929485938492909183906044820190565b0393165af1801561202e575b612018575050565b81611e2392903d106103ae576103a08183610689565b612036611567565b612010565b61205190883d8a116103ae576103a08183610689565b5038611fc0565b612060611567565b611fbb565b9051929650909450925060009150611fce90611f5990611f3c9061209f9061127190612099906001600160b01b031661120d565b88611820565b96959693611f27565b156120af57565b60405162461bcd60e51b8152602060048201526011602482015270696e76616c6964207369676e617475726560781b6044820152606490fd5b6122486115309161224393612231612106825160018060a01b031690565b60208301516001600160a01b03166040840151612229906001600160a01b03169161221b6060870151608088015161213d81611509565b61214681611509565b60a089015163ffffffff1660c08a01516001600160b01b03169061217160e08c015163ffffffff1690565b926121816101008d015160ff1690565b604080517f4e0653ab806c929ee2b9ffd833f4f44bb6a40e749b1947288629dcdbfb3eca0f602082019081526001600160a01b039d8e1692820192909252988c1660608a01529a909916608088015260a087019490945260ff93841660c087015263ffffffff90811660e08701526001600160b01b0390911661010086015216610120840152909316610140820152918290610160820190565b03601f198101835282610689565b51902061247b565b9051909485916001600160a01b031690565b6122d4565b6120a8565b919082519283825260005b848110612279575050826000602080949584010152601f8019910116010190565b602081830181015184830182015201612258565b60409061153093928152816020820152019061224d565b3d156122cf573d906122b5826106cc565b916122c36040519384610689565b82523d6000602084013e565b606090565b90916122e0818461238d565b6005811015612380575b15908161236a575b506123625760009182916040516123208161221b6020820194630b135d3f60e11b998a87526024840161228d565b51915afa9061232d6122a4565b82612356575b8261233d57505090565b61235291925060208082518301019101611b0e565b1490565b80516020149250612333565b505050600190565b6001600160a01b038481169116149050386122f2565b6123886114f2565b6122ea565b9060418151146000146123bb576123b7916020820151906060604084015193015160001a906123c5565b9091565b5050600090600290565b9291907f7fffffffffffffffffffffffffffffff5d576e7357a4501ddfe92f46681b20a0831161246f5760ff16601b81141580612464575b612458579160809493916020936040519384528484015260408301526060820152600093849182805260015afa1561244b575b81516001600160a01b03811615612445579190565b50600190565b612453611567565b612430565b50505050600090600490565b50601c8114156123fd565b50505050600090600390565b6124836124d1565b9060405190602082019261190160f01b845260228301526042820152604281526080810181811067ffffffffffffffff8211176124c4575b60405251902090565b6124cc610635565b6124bb565b307f00000000000000000000000000000000000000000000000000000000000000006001600160a01b031614806125c2575b1561252c577f000000000000000000000000000000000000000000000000000000000000000090565b60405160208101907f000000000000000000000000000000000000000000000000000000000000000082527f000000000000000000000000000000000000000000000000000000000000000060408201527f000000000000000000000000000000000000000000000000000000000000000060608201524660808201523060a082015260a081526125bc8161066d565b51902090565b507f00000000000000000000000000000000000000000000000000000000000000004614612503565b156125f257565b60405162461bcd60e51b815260206004820152602260248201527f4f72646572416d6f756e74206d7573742062652067726561746572207468616e604482015261020360f41b6064820152608490fd5b1561264957565b60405162461bcd60e51b815260206004820152602360248201527f45786368616e676552617465206d75737420626520677265617465722074686160448201526206e20360ec1b6064820152608490fd5b156126a157565b60405162461bcd60e51b815260206004820152602260248201527f426f72726f774c696d6974206d7573742062652067726561746572207468616e604482015261020360f41b6064820152608490fd5b156126f857565b60405162461bcd60e51b815260206004820152602160248201527f626f72726f774c696d6974206d757374206265206c657373207468616e2031656044820152601b60f91b6064820152608490fd5b1561274e57565b60405162461bcd60e51b815260206004820152601f60248201527f6c65766572616765206d7573742062652067726561746572207468616e2030006044820152606490fd5b1561279a57565b60405162461bcd60e51b8152602060048201526016602482015275496e76616c696420746f6b656e30206164647265737360501b6044820152606490fd5b156127df57565b60405162461bcd60e51b8152602060048201526016602482015275496e76616c696420746f6b656e31206164647265737360501b6044820152606490fd5b1561282457565b60405162461bcd60e51b815260206004820152602360248201527f746f6b656e3020616e6420746f6b656e31206d75737420626520646966666572604482015262195b9d60ea1b6064820152608490fd5b61293e90612888606082015115156125eb565b60c08101516128a1906001600160b01b03161515612642565b60808101600281516128b281611509565b6128bb81611509565b149081156129f9575b50612943575b60208101805190916001600160a01b0391612935916102fc91612927916040916128f79087161515612793565b01805190959061291a90612913906001600160a01b03166102fc565b15156127d8565b516001600160a01b031690565b93516001600160a01b031690565b9116141561281d565b600190565b612982620f424060e0830161297b63ffffffff9161297183612969835163ffffffff1690565b16151561269a565b5163ffffffff1690565b16106126f1565b61299e60ff61299661010084015160ff1690565b161515612747565b60208101516129cb906001600160a01b03906129c3906102fc906102ef90841661186f565b161515611a83565b6129f46129ed6102fc6102fc6102ef61186f604087015160018060a01b031690565b1515611a83565b6128ca565b6003915051612a0781611509565b612a1081611509565b14386128c4565b916000915b818310612a295750505090565b909192620f4240612a3d83612a4493611820565b04936114ac565b9190612a1c565b600091908291612a906040518092612a7c6020830195632d839cb360e21b875260406024850152606484019061224d565b90604483015203601f198101835282610689565b51906a636f6e736f6c652e6c6f675afa5056fea2646970667358221220b283be9a785f0629bbf6130f956c608cd4bfc1856d289aa30659dd22c188519264736f6c63430008110033",
  "linkReferences": {},
  "deployedLinkReferences": {}
}