{
  "_format": "hh-sol-artifact-1",
  "contractName": "Lever",
  "sourceName": "contracts/lending/Lever.sol",
  "abi": [
    {
      "inputs": [
        {
          "internalType": "contract System",
          "name": "__system",
          "type": "address"
        },
        {
          "internalType": "contract ZEXE",
          "name": "_zexe",
          "type": "address"
        }
      ],
      "stateMutability": "nonpayable",
      "type": "constructor"
    },
    {
      "anonymous": false,
      "inputs": [
        {
          "indexed": false,
          "internalType": "contract LendingMarket",
          "name": "cToken",
          "type": "address"
        },
        {
          "indexed": false,
          "internalType": "string",
          "name": "action",
          "type": "string"
        },
        {
          "indexed": false,
          "internalType": "bool",
          "name": "pauseState",
          "type": "bool"
        }
      ],
      "name": "ActionPaused",
      "type": "event"
    },
    {
      "anonymous": false,
      "inputs": [
        {
          "indexed": false,
          "internalType": "string",
          "name": "action",
          "type": "string"
        },
        {
          "indexed": false,
          "internalType": "bool",
          "name": "pauseState",
          "type": "bool"
        }
      ],
      "name": "ActionPausedGlobally",
      "type": "event"
    },
    {
      "anonymous": false,
      "inputs": [
        {
          "indexed": true,
          "internalType": "address",
          "name": "user",
          "type": "address"
        },
        {
          "indexed": false,
          "internalType": "uint256",
          "name": "oldCompAccrued",
          "type": "uint256"
        },
        {
          "indexed": false,
          "internalType": "uint256",
          "name": "newCompAccrued",
          "type": "uint256"
        }
      ],
      "name": "CompAccruedAdjusted",
      "type": "event"
    },
    {
      "anonymous": false,
      "inputs": [
        {
          "indexed": true,
          "internalType": "contract LendingMarket",
          "name": "cToken",
          "type": "address"
        },
        {
          "indexed": false,
          "internalType": "uint256",
          "name": "newSpeed",
          "type": "uint256"
        }
      ],
      "name": "CompBorrowSpeedUpdated",
      "type": "event"
    },
    {
      "anonymous": false,
      "inputs": [
        {
          "indexed": false,
          "internalType": "address",
          "name": "recipient",
          "type": "address"
        },
        {
          "indexed": false,
          "internalType": "uint256",
          "name": "amount",
          "type": "uint256"
        }
      ],
      "name": "CompGranted",
      "type": "event"
    },
    {
      "anonymous": false,
      "inputs": [
        {
          "indexed": true,
          "internalType": "address",
          "name": "user",
          "type": "address"
        },
        {
          "indexed": false,
          "internalType": "uint256",
          "name": "oldCompReceivable",
          "type": "uint256"
        },
        {
          "indexed": false,
          "internalType": "uint256",
          "name": "newCompReceivable",
          "type": "uint256"
        }
      ],
      "name": "CompReceivableUpdated",
      "type": "event"
    },
    {
      "anonymous": false,
      "inputs": [
        {
          "indexed": true,
          "internalType": "contract LendingMarket",
          "name": "cToken",
          "type": "address"
        },
        {
          "indexed": false,
          "internalType": "uint256",
          "name": "newSpeed",
          "type": "uint256"
        }
      ],
      "name": "CompSupplySpeedUpdated",
      "type": "event"
    },
    {
      "anonymous": false,
      "inputs": [
        {
          "indexed": true,
          "internalType": "address",
          "name": "contributor",
          "type": "address"
        },
        {
          "indexed": false,
          "internalType": "uint256",
          "name": "newSpeed",
          "type": "uint256"
        }
      ],
      "name": "ContributorCompSpeedUpdated",
      "type": "event"
    },
    {
      "anonymous": false,
      "inputs": [
        {
          "indexed": true,
          "internalType": "contract LendingMarket",
          "name": "cToken",
          "type": "address"
        },
        {
          "indexed": true,
          "internalType": "address",
          "name": "borrower",
          "type": "address"
        },
        {
          "indexed": false,
          "internalType": "uint256",
          "name": "compDelta",
          "type": "uint256"
        },
        {
          "indexed": false,
          "internalType": "uint256",
          "name": "compBorrowIndex",
          "type": "uint256"
        }
      ],
      "name": "DistributedBorrowerComp",
      "type": "event"
    },
    {
      "anonymous": false,
      "inputs": [
        {
          "indexed": true,
          "internalType": "contract LendingMarket",
          "name": "cToken",
          "type": "address"
        },
        {
          "indexed": true,
          "internalType": "address",
          "name": "supplier",
          "type": "address"
        },
        {
          "indexed": false,
          "internalType": "uint256",
          "name": "compDelta",
          "type": "uint256"
        },
        {
          "indexed": false,
          "internalType": "uint256",
          "name": "compSupplyIndex",
          "type": "uint256"
        }
      ],
      "name": "DistributedSupplierComp",
      "type": "event"
    },
    {
      "anonymous": false,
      "inputs": [
        {
          "indexed": false,
          "internalType": "uint256",
          "name": "error",
          "type": "uint256"
        },
        {
          "indexed": false,
          "internalType": "uint256",
          "name": "info",
          "type": "uint256"
        },
        {
          "indexed": false,
          "internalType": "uint256",
          "name": "detail",
          "type": "uint256"
        }
      ],
      "name": "Failure",
      "type": "event"
    },
    {
      "anonymous": false,
      "inputs": [
        {
          "indexed": false,
          "internalType": "contract LendingMarket",
          "name": "cToken",
          "type": "address"
        },
        {
          "indexed": false,
          "internalType": "address",
          "name": "account",
          "type": "address"
        }
      ],
      "name": "MarketEntered",
      "type": "event"
    },
    {
      "anonymous": false,
      "inputs": [
        {
          "indexed": false,
          "internalType": "contract LendingMarket",
          "name": "cToken",
          "type": "address"
        },
        {
          "indexed": false,
          "internalType": "address",
          "name": "account",
          "type": "address"
        }
      ],
      "name": "MarketExited",
      "type": "event"
    },
    {
      "anonymous": false,
      "inputs": [
        {
          "indexed": false,
          "internalType": "contract LendingMarket",
          "name": "cToken",
          "type": "address"
        }
      ],
      "name": "MarketListed",
      "type": "event"
    },
    {
      "anonymous": false,
      "inputs": [
        {
          "indexed": true,
          "internalType": "contract LendingMarket",
          "name": "cToken",
          "type": "address"
        },
        {
          "indexed": false,
          "internalType": "uint256",
          "name": "newBorrowCap",
          "type": "uint256"
        }
      ],
      "name": "NewBorrowCap",
      "type": "event"
    },
    {
      "anonymous": false,
      "inputs": [
        {
          "indexed": false,
          "internalType": "address",
          "name": "oldBorrowCapGuardian",
          "type": "address"
        },
        {
          "indexed": false,
          "internalType": "address",
          "name": "newBorrowCapGuardian",
          "type": "address"
        }
      ],
      "name": "NewBorrowCapGuardian",
      "type": "event"
    },
    {
      "anonymous": false,
      "inputs": [
        {
          "indexed": false,
          "internalType": "uint256",
          "name": "oldCloseFactorMantissa",
          "type": "uint256"
        },
        {
          "indexed": false,
          "internalType": "uint256",
          "name": "newCloseFactorMantissa",
          "type": "uint256"
        }
      ],
      "name": "NewCloseFactor",
      "type": "event"
    },
    {
      "anonymous": false,
      "inputs": [
        {
          "indexed": false,
          "internalType": "contract LendingMarket",
          "name": "cToken",
          "type": "address"
        },
        {
          "indexed": false,
          "internalType": "uint256",
          "name": "oldCollateralFactorMantissa",
          "type": "uint256"
        },
        {
          "indexed": false,
          "internalType": "uint256",
          "name": "newCollateralFactorMantissa",
          "type": "uint256"
        }
      ],
      "name": "NewCollateralFactor",
      "type": "event"
    },
    {
      "anonymous": false,
      "inputs": [
        {
          "indexed": false,
          "internalType": "uint256",
          "name": "oldLiquidationIncentiveMantissa",
          "type": "uint256"
        },
        {
          "indexed": false,
          "internalType": "uint256",
          "name": "newLiquidationIncentiveMantissa",
          "type": "uint256"
        }
      ],
      "name": "NewLiquidationIncentive",
      "type": "event"
    },
    {
      "anonymous": false,
      "inputs": [
        {
          "indexed": false,
          "internalType": "address",
          "name": "oldPauseGuardian",
          "type": "address"
        },
        {
          "indexed": false,
          "internalType": "address",
          "name": "newPauseGuardian",
          "type": "address"
        }
      ],
      "name": "NewPauseGuardian",
      "type": "event"
    },
    {
      "anonymous": false,
      "inputs": [
        {
          "indexed": false,
          "internalType": "contract PriceOracle",
          "name": "oldPriceOracle",
          "type": "address"
        },
        {
          "indexed": false,
          "internalType": "contract PriceOracle",
          "name": "newPriceOracle",
          "type": "address"
        }
      ],
      "name": "NewPriceOracle",
      "type": "event"
    },
    {
      "inputs": [
        {
          "internalType": "contract Unitroller",
          "name": "unitroller",
          "type": "address"
        }
      ],
      "name": "_become",
      "outputs": [],
      "stateMutability": "nonpayable",
      "type": "function"
    },
    {
      "inputs": [],
      "name": "_borrowGuardianPaused",
      "outputs": [
        {
          "internalType": "bool",
          "name": "",
          "type": "bool"
        }
      ],
      "stateMutability": "view",
      "type": "function"
    },
    {
      "inputs": [
        {
          "internalType": "address",
          "name": "recipient",
          "type": "address"
        },
        {
          "internalType": "uint256",
          "name": "amount",
          "type": "uint256"
        }
      ],
      "name": "_grantComp",
      "outputs": [],
      "stateMutability": "nonpayable",
      "type": "function"
    },
    {
      "inputs": [],
      "name": "_mintGuardianPaused",
      "outputs": [
        {
          "internalType": "bool",
          "name": "",
          "type": "bool"
        }
      ],
      "stateMutability": "view",
      "type": "function"
    },
    {
      "inputs": [
        {
          "internalType": "address",
          "name": "newBorrowCapGuardian",
          "type": "address"
        }
      ],
      "name": "_setBorrowCapGuardian",
      "outputs": [],
      "stateMutability": "nonpayable",
      "type": "function"
    },
    {
      "inputs": [
        {
          "internalType": "contract LendingMarket",
          "name": "cToken",
          "type": "address"
        },
        {
          "internalType": "bool",
          "name": "state",
          "type": "bool"
        }
      ],
      "name": "_setBorrowPaused",
      "outputs": [
        {
          "internalType": "bool",
          "name": "",
          "type": "bool"
        }
      ],
      "stateMutability": "nonpayable",
      "type": "function"
    },
    {
      "inputs": [
        {
          "internalType": "uint256",
          "name": "newCloseFactorMantissa",
          "type": "uint256"
        }
      ],
      "name": "_setCloseFactor",
      "outputs": [
        {
          "internalType": "uint256",
          "name": "",
          "type": "uint256"
        }
      ],
      "stateMutability": "nonpayable",
      "type": "function"
    },
    {
      "inputs": [
        {
          "internalType": "contract LendingMarket",
          "name": "cToken",
          "type": "address"
        },
        {
          "internalType": "uint256",
          "name": "newCollateralFactorMantissa",
          "type": "uint256"
        }
      ],
      "name": "_setCollateralFactor",
      "outputs": [
        {
          "internalType": "uint256",
          "name": "",
          "type": "uint256"
        }
      ],
      "stateMutability": "nonpayable",
      "type": "function"
    },
    {
      "inputs": [
        {
          "internalType": "contract LendingMarket[]",
          "name": "cTokens",
          "type": "address[]"
        },
        {
          "internalType": "uint256[]",
          "name": "supplySpeeds",
          "type": "uint256[]"
        },
        {
          "internalType": "uint256[]",
          "name": "borrowSpeeds",
          "type": "uint256[]"
        }
      ],
      "name": "_setCompSpeeds",
      "outputs": [],
      "stateMutability": "nonpayable",
      "type": "function"
    },
    {
      "inputs": [
        {
          "internalType": "address",
          "name": "contributor",
          "type": "address"
        },
        {
          "internalType": "uint256",
          "name": "compSpeed",
          "type": "uint256"
        }
      ],
      "name": "_setContributorCompSpeed",
      "outputs": [],
      "stateMutability": "nonpayable",
      "type": "function"
    },
    {
      "inputs": [
        {
          "internalType": "uint256",
          "name": "newLiquidationIncentiveMantissa",
          "type": "uint256"
        }
      ],
      "name": "_setLiquidationIncentive",
      "outputs": [
        {
          "internalType": "uint256",
          "name": "",
          "type": "uint256"
        }
      ],
      "stateMutability": "nonpayable",
      "type": "function"
    },
    {
      "inputs": [
        {
          "internalType": "contract LendingMarket[]",
          "name": "cTokens",
          "type": "address[]"
        },
        {
          "internalType": "uint256[]",
          "name": "newBorrowCaps",
          "type": "uint256[]"
        }
      ],
      "name": "_setMarketBorrowCaps",
      "outputs": [],
      "stateMutability": "nonpayable",
      "type": "function"
    },
    {
      "inputs": [
        {
          "internalType": "contract LendingMarket",
          "name": "cToken",
          "type": "address"
        },
        {
          "internalType": "bool",
          "name": "state",
          "type": "bool"
        }
      ],
      "name": "_setMintPaused",
      "outputs": [
        {
          "internalType": "bool",
          "name": "",
          "type": "bool"
        }
      ],
      "stateMutability": "nonpayable",
      "type": "function"
    },
    {
      "inputs": [
        {
          "internalType": "address",
          "name": "newPauseGuardian",
          "type": "address"
        }
      ],
      "name": "_setPauseGuardian",
      "outputs": [
        {
          "internalType": "uint256",
          "name": "",
          "type": "uint256"
        }
      ],
      "stateMutability": "nonpayable",
      "type": "function"
    },
    {
      "inputs": [
        {
          "internalType": "contract PriceOracle",
          "name": "newOracle",
          "type": "address"
        }
      ],
      "name": "_setPriceOracle",
      "outputs": [
        {
          "internalType": "uint256",
          "name": "",
          "type": "uint256"
        }
      ],
      "stateMutability": "nonpayable",
      "type": "function"
    },
    {
      "inputs": [
        {
          "internalType": "bool",
          "name": "state",
          "type": "bool"
        }
      ],
      "name": "_setSeizePaused",
      "outputs": [
        {
          "internalType": "bool",
          "name": "",
          "type": "bool"
        }
      ],
      "stateMutability": "nonpayable",
      "type": "function"
    },
    {
      "inputs": [
        {
          "internalType": "bool",
          "name": "state",
          "type": "bool"
        }
      ],
      "name": "_setTransferPaused",
      "outputs": [
        {
          "internalType": "bool",
          "name": "",
          "type": "bool"
        }
      ],
      "stateMutability": "nonpayable",
      "type": "function"
    },
    {
      "inputs": [
        {
          "internalType": "contract LendingMarket",
          "name": "cToken",
          "type": "address"
        }
      ],
      "name": "_supportMarket",
      "outputs": [
        {
          "internalType": "uint256",
          "name": "",
          "type": "uint256"
        }
      ],
      "stateMutability": "nonpayable",
      "type": "function"
    },
    {
      "inputs": [],
      "name": "_system",
      "outputs": [
        {
          "internalType": "contract System",
          "name": "",
          "type": "address"
        }
      ],
      "stateMutability": "view",
      "type": "function"
    },
    {
      "inputs": [
        {
          "internalType": "address",
          "name": "",
          "type": "address"
        },
        {
          "internalType": "uint256",
          "name": "",
          "type": "uint256"
        }
      ],
      "name": "accountAssets",
      "outputs": [
        {
          "internalType": "contract LendingMarket",
          "name": "",
          "type": "address"
        }
      ],
      "stateMutability": "view",
      "type": "function"
    },
    {
      "inputs": [],
      "name": "admin",
      "outputs": [
        {
          "internalType": "address",
          "name": "",
          "type": "address"
        }
      ],
      "stateMutability": "view",
      "type": "function"
    },
    {
      "inputs": [
        {
          "internalType": "uint256",
          "name": "",
          "type": "uint256"
        }
      ],
      "name": "allMarkets",
      "outputs": [
        {
          "internalType": "contract LendingMarket",
          "name": "",
          "type": "address"
        }
      ],
      "stateMutability": "view",
      "type": "function"
    },
    {
      "inputs": [
        {
          "internalType": "address",
          "name": "cToken",
          "type": "address"
        },
        {
          "internalType": "address",
          "name": "borrower",
          "type": "address"
        },
        {
          "internalType": "uint256",
          "name": "borrowAmount",
          "type": "uint256"
        }
      ],
      "name": "borrowAllowed",
      "outputs": [
        {
          "internalType": "uint256",
          "name": "",
          "type": "uint256"
        }
      ],
      "stateMutability": "nonpayable",
      "type": "function"
    },
    {
      "inputs": [],
      "name": "borrowCapGuardian",
      "outputs": [
        {
          "internalType": "address",
          "name": "",
          "type": "address"
        }
      ],
      "stateMutability": "view",
      "type": "function"
    },
    {
      "inputs": [
        {
          "internalType": "address",
          "name": "",
          "type": "address"
        }
      ],
      "name": "borrowCaps",
      "outputs": [
        {
          "internalType": "uint256",
          "name": "",
          "type": "uint256"
        }
      ],
      "stateMutability": "view",
      "type": "function"
    },
    {
      "inputs": [
        {
          "internalType": "address",
          "name": "",
          "type": "address"
        }
      ],
      "name": "borrowGuardianPaused",
      "outputs": [
        {
          "internalType": "bool",
          "name": "",
          "type": "bool"
        }
      ],
      "stateMutability": "view",
      "type": "function"
    },
    {
      "inputs": [
        {
          "internalType": "address",
          "name": "cToken",
          "type": "address"
        },
        {
          "internalType": "address",
          "name": "borrower",
          "type": "address"
        },
        {
          "internalType": "uint256",
          "name": "borrowAmount",
          "type": "uint256"
        }
      ],
      "name": "borrowVerify",
      "outputs": [],
      "stateMutability": "nonpayable",
      "type": "function"
    },
    {
      "inputs": [
        {
          "internalType": "address",
          "name": "account",
          "type": "address"
        },
        {
          "internalType": "contract LendingMarket",
          "name": "cToken",
          "type": "address"
        }
      ],
      "name": "checkMembership",
      "outputs": [
        {
          "internalType": "bool",
          "name": "",
          "type": "bool"
        }
      ],
      "stateMutability": "view",
      "type": "function"
    },
    {
      "inputs": [
        {
          "internalType": "address",
          "name": "holder",
          "type": "address"
        },
        {
          "internalType": "contract LendingMarket[]",
          "name": "cTokens",
          "type": "address[]"
        }
      ],
      "name": "claimComp",
      "outputs": [],
      "stateMutability": "nonpayable",
      "type": "function"
    },
    {
      "inputs": [
        {
          "internalType": "address[]",
          "name": "holders",
          "type": "address[]"
        },
        {
          "internalType": "contract LendingMarket[]",
          "name": "cTokens",
          "type": "address[]"
        },
        {
          "internalType": "bool",
          "name": "borrowers",
          "type": "bool"
        },
        {
          "internalType": "bool",
          "name": "suppliers",
          "type": "bool"
        }
      ],
      "name": "claimComp",
      "outputs": [],
      "stateMutability": "nonpayable",
      "type": "function"
    },
    {
      "inputs": [
        {
          "internalType": "address",
          "name": "holder",
          "type": "address"
        }
      ],
      "name": "claimComp",
      "outputs": [],
      "stateMutability": "nonpayable",
      "type": "function"
    },
    {
      "inputs": [],
      "name": "closeFactorMantissa",
      "outputs": [
        {
          "internalType": "uint256",
          "name": "",
          "type": "uint256"
        }
      ],
      "stateMutability": "view",
      "type": "function"
    },
    {
      "inputs": [
        {
          "internalType": "address",
          "name": "",
          "type": "address"
        }
      ],
      "name": "compAccrued",
      "outputs": [
        {
          "internalType": "uint256",
          "name": "",
          "type": "uint256"
        }
      ],
      "stateMutability": "view",
      "type": "function"
    },
    {
      "inputs": [
        {
          "internalType": "address",
          "name": "",
          "type": "address"
        }
      ],
      "name": "compBorrowSpeeds",
      "outputs": [
        {
          "internalType": "uint256",
          "name": "",
          "type": "uint256"
        }
      ],
      "stateMutability": "view",
      "type": "function"
    },
    {
      "inputs": [
        {
          "internalType": "address",
          "name": "",
          "type": "address"
        }
      ],
      "name": "compBorrowState",
      "outputs": [
        {
          "internalType": "uint224",
          "name": "index",
          "type": "uint224"
        },
        {
          "internalType": "uint32",
          "name": "block",
          "type": "uint32"
        }
      ],
      "stateMutability": "view",
      "type": "function"
    },
    {
      "inputs": [
        {
          "internalType": "address",
          "name": "",
          "type": "address"
        },
        {
          "internalType": "address",
          "name": "",
          "type": "address"
        }
      ],
      "name": "compBorrowerIndex",
      "outputs": [
        {
          "internalType": "uint256",
          "name": "",
          "type": "uint256"
        }
      ],
      "stateMutability": "view",
      "type": "function"
    },
    {
      "inputs": [
        {
          "internalType": "address",
          "name": "",
          "type": "address"
        }
      ],
      "name": "compContributorSpeeds",
      "outputs": [
        {
          "internalType": "uint256",
          "name": "",
          "type": "uint256"
        }
      ],
      "stateMutability": "view",
      "type": "function"
    },
    {
      "inputs": [],
      "name": "compInitialIndex",
      "outputs": [
        {
          "internalType": "uint224",
          "name": "",
          "type": "uint224"
        }
      ],
      "stateMutability": "view",
      "type": "function"
    },
    {
      "inputs": [
        {
          "internalType": "address",
          "name": "",
          "type": "address"
        },
        {
          "internalType": "address",
          "name": "",
          "type": "address"
        }
      ],
      "name": "compSupplierIndex",
      "outputs": [
        {
          "internalType": "uint256",
          "name": "",
          "type": "uint256"
        }
      ],
      "stateMutability": "view",
      "type": "function"
    },
    {
      "inputs": [
        {
          "internalType": "address",
          "name": "",
          "type": "address"
        }
      ],
      "name": "compSupplySpeeds",
      "outputs": [
        {
          "internalType": "uint256",
          "name": "",
          "type": "uint256"
        }
      ],
      "stateMutability": "view",
      "type": "function"
    },
    {
      "inputs": [
        {
          "internalType": "address",
          "name": "",
          "type": "address"
        }
      ],
      "name": "compSupplyState",
      "outputs": [
        {
          "internalType": "uint224",
          "name": "index",
          "type": "uint224"
        },
        {
          "internalType": "uint32",
          "name": "block",
          "type": "uint32"
        }
      ],
      "stateMutability": "view",
      "type": "function"
    },
    {
      "inputs": [],
      "name": "comptrollerImplementation",
      "outputs": [
        {
          "internalType": "address",
          "name": "",
          "type": "address"
        }
      ],
      "stateMutability": "view",
      "type": "function"
    },
    {
      "inputs": [
        {
          "internalType": "address[]",
          "name": "cTokens",
          "type": "address[]"
        }
      ],
      "name": "enterMarkets",
      "outputs": [
        {
          "internalType": "uint256[]",
          "name": "",
          "type": "uint256[]"
        }
      ],
      "stateMutability": "nonpayable",
      "type": "function"
    },
    {
      "inputs": [
        {
          "internalType": "address",
          "name": "cTokenAddress",
          "type": "address"
        }
      ],
      "name": "exitMarket",
      "outputs": [
        {
          "internalType": "uint256",
          "name": "",
          "type": "uint256"
        }
      ],
      "stateMutability": "nonpayable",
      "type": "function"
    },
    {
      "inputs": [
        {
          "internalType": "address",
          "name": "account",
          "type": "address"
        }
      ],
      "name": "getAccountLiquidity",
      "outputs": [
        {
          "internalType": "uint256",
          "name": "",
          "type": "uint256"
        },
        {
          "internalType": "uint256",
          "name": "",
          "type": "uint256"
        },
        {
          "internalType": "uint256",
          "name": "",
          "type": "uint256"
        }
      ],
      "stateMutability": "view",
      "type": "function"
    },
    {
      "inputs": [],
      "name": "getAllMarkets",
      "outputs": [
        {
          "internalType": "contract LendingMarket[]",
          "name": "",
          "type": "address[]"
        }
      ],
      "stateMutability": "view",
      "type": "function"
    },
    {
      "inputs": [
        {
          "internalType": "address",
          "name": "account",
          "type": "address"
        }
      ],
      "name": "getAssetsIn",
      "outputs": [
        {
          "internalType": "contract LendingMarket[]",
          "name": "",
          "type": "address[]"
        }
      ],
      "stateMutability": "view",
      "type": "function"
    },
    {
      "inputs": [],
      "name": "getBlockNumber",
      "outputs": [
        {
          "internalType": "uint256",
          "name": "",
          "type": "uint256"
        }
      ],
      "stateMutability": "view",
      "type": "function"
    },
    {
      "inputs": [
        {
          "internalType": "address",
          "name": "account",
          "type": "address"
        },
        {
          "internalType": "address",
          "name": "cTokenModify",
          "type": "address"
        },
        {
          "internalType": "uint256",
          "name": "redeemTokens",
          "type": "uint256"
        },
        {
          "internalType": "uint256",
          "name": "borrowAmount",
          "type": "uint256"
        }
      ],
      "name": "getHypotheticalAccountLiquidity",
      "outputs": [
        {
          "internalType": "uint256",
          "name": "",
          "type": "uint256"
        },
        {
          "internalType": "uint256",
          "name": "",
          "type": "uint256"
        },
        {
          "internalType": "uint256",
          "name": "",
          "type": "uint256"
        }
      ],
      "stateMutability": "view",
      "type": "function"
    },
    {
      "inputs": [],
      "name": "isComptroller",
      "outputs": [
        {
          "internalType": "bool",
          "name": "",
          "type": "bool"
        }
      ],
      "stateMutability": "view",
      "type": "function"
    },
    {
      "inputs": [
        {
          "internalType": "contract LendingMarket",
          "name": "cToken",
          "type": "address"
        }
      ],
      "name": "isDeprecated",
      "outputs": [
        {
          "internalType": "bool",
          "name": "",
          "type": "bool"
        }
      ],
      "stateMutability": "view",
      "type": "function"
    },
    {
      "inputs": [
        {
          "internalType": "address",
          "name": "",
          "type": "address"
        }
      ],
      "name": "lastContributorBlock",
      "outputs": [
        {
          "internalType": "uint256",
          "name": "",
          "type": "uint256"
        }
      ],
      "stateMutability": "view",
      "type": "function"
    },
    {
      "inputs": [
        {
          "internalType": "address",
          "name": "cTokenBorrowed",
          "type": "address"
        },
        {
          "internalType": "address",
          "name": "cTokenCollateral",
          "type": "address"
        },
        {
          "internalType": "address",
          "name": "liquidator",
          "type": "address"
        },
        {
          "internalType": "address",
          "name": "borrower",
          "type": "address"
        },
        {
          "internalType": "uint256",
          "name": "repayAmount",
          "type": "uint256"
        }
      ],
      "name": "liquidateBorrowAllowed",
      "outputs": [
        {
          "internalType": "uint256",
          "name": "",
          "type": "uint256"
        }
      ],
      "stateMutability": "view",
      "type": "function"
    },
    {
      "inputs": [
        {
          "internalType": "address",
          "name": "cTokenBorrowed",
          "type": "address"
        },
        {
          "internalType": "address",
          "name": "cTokenCollateral",
          "type": "address"
        },
        {
          "internalType": "address",
          "name": "liquidator",
          "type": "address"
        },
        {
          "internalType": "address",
          "name": "borrower",
          "type": "address"
        },
        {
          "internalType": "uint256",
          "name": "actualRepayAmount",
          "type": "uint256"
        },
        {
          "internalType": "uint256",
          "name": "seizeTokens",
          "type": "uint256"
        }
      ],
      "name": "liquidateBorrowVerify",
      "outputs": [],
      "stateMutability": "nonpayable",
      "type": "function"
    },
    {
      "inputs": [
        {
          "internalType": "address",
          "name": "cTokenBorrowed",
          "type": "address"
        },
        {
          "internalType": "address",
          "name": "cTokenCollateral",
          "type": "address"
        },
        {
          "internalType": "uint256",
          "name": "actualRepayAmount",
          "type": "uint256"
        }
      ],
      "name": "liquidateCalculateSeizeTokens",
      "outputs": [
        {
          "internalType": "uint256",
          "name": "",
          "type": "uint256"
        },
        {
          "internalType": "uint256",
          "name": "",
          "type": "uint256"
        }
      ],
      "stateMutability": "view",
      "type": "function"
    },
    {
      "inputs": [],
      "name": "liquidationIncentiveMantissa",
      "outputs": [
        {
          "internalType": "uint256",
          "name": "",
          "type": "uint256"
        }
      ],
      "stateMutability": "view",
      "type": "function"
    },
    {
      "inputs": [
        {
          "internalType": "address",
          "name": "",
          "type": "address"
        }
      ],
      "name": "markets",
      "outputs": [
        {
          "internalType": "bool",
          "name": "isListed",
          "type": "bool"
        },
        {
          "internalType": "uint256",
          "name": "collateralFactorMantissa",
          "type": "uint256"
        }
      ],
      "stateMutability": "view",
      "type": "function"
    },
    {
      "inputs": [],
      "name": "maxAssets",
      "outputs": [
        {
          "internalType": "uint256",
          "name": "",
          "type": "uint256"
        }
      ],
      "stateMutability": "view",
      "type": "function"
    },
    {
      "inputs": [
        {
          "internalType": "address",
          "name": "cToken",
          "type": "address"
        },
        {
          "internalType": "address",
          "name": "minter",
          "type": "address"
        },
        {
          "internalType": "uint256",
          "name": "mintAmount",
          "type": "uint256"
        }
      ],
      "name": "mintAllowed",
      "outputs": [
        {
          "internalType": "uint256",
          "name": "",
          "type": "uint256"
        }
      ],
      "stateMutability": "nonpayable",
      "type": "function"
    },
    {
      "inputs": [
        {
          "internalType": "address",
          "name": "",
          "type": "address"
        }
      ],
      "name": "mintGuardianPaused",
      "outputs": [
        {
          "internalType": "bool",
          "name": "",
          "type": "bool"
        }
      ],
      "stateMutability": "view",
      "type": "function"
    },
    {
      "inputs": [
        {
          "internalType": "address",
          "name": "cToken",
          "type": "address"
        },
        {
          "internalType": "address",
          "name": "minter",
          "type": "address"
        },
        {
          "internalType": "uint256",
          "name": "actualMintAmount",
          "type": "uint256"
        },
        {
          "internalType": "uint256",
          "name": "mintTokens",
          "type": "uint256"
        }
      ],
      "name": "mintVerify",
      "outputs": [],
      "stateMutability": "nonpayable",
      "type": "function"
    },
    {
      "inputs": [],
      "name": "oracle",
      "outputs": [
        {
          "internalType": "contract PriceOracle",
          "name": "",
          "type": "address"
        }
      ],
      "stateMutability": "view",
      "type": "function"
    },
    {
      "inputs": [],
      "name": "pauseGuardian",
      "outputs": [
        {
          "internalType": "address",
          "name": "",
          "type": "address"
        }
      ],
      "stateMutability": "view",
      "type": "function"
    },
    {
      "inputs": [],
      "name": "pendingAdmin",
      "outputs": [
        {
          "internalType": "address",
          "name": "",
          "type": "address"
        }
      ],
      "stateMutability": "view",
      "type": "function"
    },
    {
      "inputs": [],
      "name": "pendingComptrollerImplementation",
      "outputs": [
        {
          "internalType": "address",
          "name": "",
          "type": "address"
        }
      ],
      "stateMutability": "view",
      "type": "function"
    },
    {
      "inputs": [
        {
          "internalType": "address",
          "name": "cToken",
          "type": "address"
        },
        {
          "internalType": "address",
          "name": "redeemer",
          "type": "address"
        },
        {
          "internalType": "uint256",
          "name": "redeemTokens",
          "type": "uint256"
        }
      ],
      "name": "redeemAllowed",
      "outputs": [
        {
          "internalType": "uint256",
          "name": "",
          "type": "uint256"
        }
      ],
      "stateMutability": "nonpayable",
      "type": "function"
    },
    {
      "inputs": [
        {
          "internalType": "address",
          "name": "cToken",
          "type": "address"
        },
        {
          "internalType": "address",
          "name": "redeemer",
          "type": "address"
        },
        {
          "internalType": "uint256",
          "name": "redeemAmount",
          "type": "uint256"
        },
        {
          "internalType": "uint256",
          "name": "redeemTokens",
          "type": "uint256"
        }
      ],
      "name": "redeemVerify",
      "outputs": [],
      "stateMutability": "pure",
      "type": "function"
    },
    {
      "inputs": [
        {
          "internalType": "address",
          "name": "cToken",
          "type": "address"
        },
        {
          "internalType": "address",
          "name": "payer",
          "type": "address"
        },
        {
          "internalType": "address",
          "name": "borrower",
          "type": "address"
        },
        {
          "internalType": "uint256",
          "name": "repayAmount",
          "type": "uint256"
        }
      ],
      "name": "repayBorrowAllowed",
      "outputs": [
        {
          "internalType": "uint256",
          "name": "",
          "type": "uint256"
        }
      ],
      "stateMutability": "nonpayable",
      "type": "function"
    },
    {
      "inputs": [
        {
          "internalType": "address",
          "name": "cToken",
          "type": "address"
        },
        {
          "internalType": "address",
          "name": "payer",
          "type": "address"
        },
        {
          "internalType": "address",
          "name": "borrower",
          "type": "address"
        },
        {
          "internalType": "uint256",
          "name": "actualRepayAmount",
          "type": "uint256"
        },
        {
          "internalType": "uint256",
          "name": "borrowerIndex",
          "type": "uint256"
        }
      ],
      "name": "repayBorrowVerify",
      "outputs": [],
      "stateMutability": "nonpayable",
      "type": "function"
    },
    {
      "inputs": [
        {
          "internalType": "address",
          "name": "cTokenCollateral",
          "type": "address"
        },
        {
          "internalType": "address",
          "name": "cTokenBorrowed",
          "type": "address"
        },
        {
          "internalType": "address",
          "name": "liquidator",
          "type": "address"
        },
        {
          "internalType": "address",
          "name": "borrower",
          "type": "address"
        },
        {
          "internalType": "uint256",
          "name": "seizeTokens",
          "type": "uint256"
        }
      ],
      "name": "seizeAllowed",
      "outputs": [
        {
          "internalType": "uint256",
          "name": "",
          "type": "uint256"
        }
      ],
      "stateMutability": "nonpayable",
      "type": "function"
    },
    {
      "inputs": [],
      "name": "seizeGuardianPaused",
      "outputs": [
        {
          "internalType": "bool",
          "name": "",
          "type": "bool"
        }
      ],
      "stateMutability": "view",
      "type": "function"
    },
    {
      "inputs": [
        {
          "internalType": "address",
          "name": "cTokenCollateral",
          "type": "address"
        },
        {
          "internalType": "address",
          "name": "cTokenBorrowed",
          "type": "address"
        },
        {
          "internalType": "address",
          "name": "liquidator",
          "type": "address"
        },
        {
          "internalType": "address",
          "name": "borrower",
          "type": "address"
        },
        {
          "internalType": "uint256",
          "name": "seizeTokens",
          "type": "uint256"
        }
      ],
      "name": "seizeVerify",
      "outputs": [],
      "stateMutability": "nonpayable",
      "type": "function"
    },
    {
      "inputs": [],
      "name": "system",
      "outputs": [
        {
          "internalType": "contract System",
          "name": "",
          "type": "address"
        }
      ],
      "stateMutability": "view",
      "type": "function"
    },
    {
      "inputs": [
        {
          "internalType": "address",
          "name": "cToken",
          "type": "address"
        },
        {
          "internalType": "address",
          "name": "src",
          "type": "address"
        },
        {
          "internalType": "address",
          "name": "dst",
          "type": "address"
        },
        {
          "internalType": "uint256",
          "name": "transferTokens",
          "type": "uint256"
        }
      ],
      "name": "transferAllowed",
      "outputs": [
        {
          "internalType": "uint256",
          "name": "",
          "type": "uint256"
        }
      ],
      "stateMutability": "nonpayable",
      "type": "function"
    },
    {
      "inputs": [],
      "name": "transferGuardianPaused",
      "outputs": [
        {
          "internalType": "bool",
          "name": "",
          "type": "bool"
        }
      ],
      "stateMutability": "view",
      "type": "function"
    },
    {
      "inputs": [
        {
          "internalType": "address",
          "name": "cToken",
          "type": "address"
        },
        {
          "internalType": "address",
          "name": "src",
          "type": "address"
        },
        {
          "internalType": "address",
          "name": "dst",
          "type": "address"
        },
        {
          "internalType": "uint256",
          "name": "transferTokens",
          "type": "uint256"
        }
      ],
      "name": "transferVerify",
      "outputs": [],
      "stateMutability": "nonpayable",
      "type": "function"
    },
    {
      "inputs": [
        {
          "internalType": "address",
          "name": "contributor",
          "type": "address"
        }
      ],
      "name": "updateContributorRewards",
      "outputs": [],
      "stateMutability": "nonpayable",
      "type": "function"
    },
    {
      "inputs": [],
      "name": "zexe",
      "outputs": [
        {
          "internalType": "contract ZEXE",
          "name": "",
          "type": "address"
        }
      ],
      "stateMutability": "view",
      "type": "function"
    }
  ],
  "bytecode": "0x6080346200009b57601f6200540d38819003918201601f19168301916001600160401b03831184841017620000a05780849260409485528339810103126200009b5780516001600160a01b0391828216918290036200009b57602001519182168092036200009b5760018060a01b0319903382600054161760005581600454161760045560065416176006556040516153569081620000b78239f35b600080fd5b634e487b7160e01b600052604160045260246000fdfe608080604052600436101561001357600080fd5b60003560e01c9081627e3dd214611f455750806318c882a514611e405780631c3db2e014611e035780631d504dc614611c8c5780631ededc9114611c6157806321af456914611c3857806324008a6214611c1c57806324a3d62214611bf35780632678224714611bca57806327efe3cb14611ac45780632d70db78146119f3578063317b0b7714611945578063391957d7146118655780633bcf7ec1146117625780633c94786f1461173c57806341c728b91461172e57806342cbb15c14611713578063467050f9146116ea57806347ef3b3b146116aa5780634a584432146116705780634ada90af146116525780634e79238f1461162f5780634ef4c3e1146116155780634fd42e17146115f757806351dff9891461159457806352d84d1e1461154b57806355ee1fe11461151c578063598ee1cb146114685780635c7786051461145a5780635ec88c791461140d5780635f5af1aa146113ea5780635fc7e71e146113cd578063607ef6c1146112185780636810dfa614610fa75780636a56947e14610f995780636aa875b514610f5f5780636b79c38d14610f0d5780636d154ea514610ece5780636d35bf9114610ec0578063731f0c2b14610e81578063741b252514610e605780637dc0d1d014610e3757806387f7630314610e115780638c57804e14610dbf5780638e8f294b14610d775780638ebf636414610ca3578063929fe9a114610c4b57806394543c1514610c1e57806394b2294b14610c0057806395bf75fd146105fe578063986ab83814610bc6578063a76b3fda14610ba3578063a7f0e23114610b7a578063a8b43948146108af578063abfceffc14610875578063ac0b0bb71461084f578063b0772d0b14610823578063b21be7fd146107d2578063bb82aa5e146107a9578063bdcdc2581461078d578063bea6b8b814610753578063c29982381461064c578063c488847b14610627578063c6ac8a4b146105fe578063ca0af043146105ad578063cc7ebdc414610573578063d02f735114610556578063da3d454c1461053d578063dce15449146104e4578063dcfbc0c7146104bb578063e4028eee14610494578063e6653f3d1461046e578063e875544614610450578063e9af029214610424578063eabe7d911461040b578063ede4edd0146103e0578063f4a433c0146103a65763f851a4401461037857600080fd5b346103a15760003660031901126103a1576000546040516001600160a01b039091168152602090f35b600080fd5b346103a15760203660031901126103a1576001600160a01b036103c7611f5f565b1660005260176020526020604060002054604051908152f35b346103a15760203660031901126103a15760206104036103fe611f5f565b61251b565b604051908152f35b346103a157602061040361041e3661214c565b91612875565b346103a15760203660031901126103a15761044e610440611f5f565b6104486122d1565b90614e60565b005b346103a15760003660031901126103a1576020600754604051908152f35b346103a15760003660031901126103a157602060ff600c5460a81c166040519015158152f35b346103a15760403660031901126103a15760206104036104b2611f5f565b602435906140de565b346103a15760003660031901126103a1576003546040516001600160a01b039091168152602090f35b346103a15760403660031901126103a1576104fd611f5f565b6024359060018060a01b03809116600052600a602052604060002080548310156103a15760209261052d91612181565b9190546040519260031b1c168152f35b346103a15760206104036105503661214c565b9161291f565b346103a1576020610403610569366121af565b5092919091612f71565b346103a15760203660031901126103a1576001600160a01b03610594611f5f565b1660005260166020526020604060002054604051908152f35b346103a15760403660031901126103a1576105c6611f5f565b6105ce611f75565b9060018060a01b038091166000526015602052604060002091166000526020526020604060002054604051908152f35b346103a15760003660031901126103a1576004546040516001600160a01b039091168152602090f35b346103a157604061064061063a3661214c565b91613e2a565b82519182526020820152f35b346103a1576020806003193601126103a15760043567ffffffffffffffff81116103a15761067e903690600401612064565b80516106898161204c565b90610697604051928361202a565b8082526106a38161204c565b8285019390601f190136853760005b8281106106fd5750505090604051928392818401908285525180915260408401929160005b8281106106e657505050500390f35b8351855286955093810193928101926001016106d7565b61071a336001600160a01b0361071384866123b4565b51166123c8565b90601282101561073d576107389161073282876123b4565b5261238f565b6106b2565b634e487b7160e01b600052602160045260246000fd5b346103a15760203660031901126103a1576001600160a01b03610774611f5f565b16600052601a6020526020604060002054604051908152f35b346103a15760206104036107a0366120d2565b929190916130e6565b346103a15760003660031901126103a1576002546040516001600160a01b039091168152602090f35b346103a15760403660031901126103a1576107eb611f5f565b6107f3611f75565b9060018060a01b038091166000526014602052604060002091166000526020526020604060002054604051908152f35b346103a15760003660031901126103a15761084b61083f6122d1565b6040519182918261228d565b0390f35b346103a15760003660031901126103a157602060ff600c5460b81c166040519015158152f35b346103a15760203660031901126103a1576001600160a01b03610896611f5f565b16600052600a60205261084b61083f6040600020612337565b346103a15760603660031901126103a15767ffffffffffffffff6004358181116103a1576108e1903690600401612064565b602480358381116103a1576108fa90369060040161222f565b9060449384359081116103a15761091590369060040161222f565b61092561092061519f565b6151c5565b8351938351851480610b70575b15610b1b5760005b85811061094357005b6001600160a01b0361095582846123b4565b51169061096281876123b4565b519161096e82866123b4565b519281600052602090600b825260ff6040600020541615610ad857829081600052826018918282528060406000205403610a90575b50505060005260179384825280604060002054036109ce575b5050506109c9915061238f565b61093a565b60405163aa5af0fd60e01b81528281600481875afa908115610a8457600091610a4f575b50906109c995610a337f20af8e791cc98f74b2d7a391c80980ca8e5aebf3d4060bf581997b6acae2e537949360405190610a2b82611fbf565b8152866149c4565b84600052825280604060002055604051908152a28880806109bc565b928092915083813d8311610a7d575b610a68818361202a565b810103126103a15791519091906109c96109f2565b503d610a5e565b6040513d6000823e3d90fd5b7fdeafccd0c0b768b2529f7dcbbe58e155d6023059150b7490ed4535cc3744b92d92610abb85614715565b84600052825280604060002055604051908152a2818b82816109a3565b60405162461bcd60e51b8152600481018390526019818a01527f636f6d70206d61726b6574206973206e6f74206c697374656400000000000000818d0152606490fd5b60405162461bcd60e51b8152602060048201526029818501527f436f6d7074726f6c6c65723a3a5f736574436f6d7053706565647320696e766181880152681b1a59081a5b9c1d5d60ba1b6064820152608490fd5b5081518514610932565b346103a15760003660031901126103a15760206040516a0c097ce7bc90715b34b9f160241b8152f35b346103a15760203660031901126103a1576020610403610bc1611f5f565b614348565b346103a15760203660031901126103a1576001600160a01b03610be7611f5f565b1660005260196020526020604060002054604051908152f35b346103a15760003660031901126103a1576020600954604051908152f35b346103a15760203660031901126103a1576020610c41610c3c611f5f565b615211565b6040519015158152f35b346103a15760403660031901126103a157610c64611f5f565b6001600160a01b0380610c75611f75565b16600052600b60205260026040600020019116600052602052602060ff604060002054166040519015158152f35b346103a15760203660031901126103a1576020610cbe611f9a565b600c54906001600160a01b0333818416148015610d6a575b610cdf90614674565b6000541633148015610d5e575b610cf5906146d0565b15159060ff60b01b8260b01b169060ff60b01b191617600c557f27ee2b767de43e8b48d1666d8c451a273fbf857e760fda6e95d0d582f68534bc60806040516040815260086040820152672a3930b739b332b960c11b60608201528385820152a1604051908152f35b50801515600114610cec565b5060005481163314610cd6565b346103a15760203660031901126103a1576001600160a01b03610d98611f5f565b16600052600b602052604080600020600160ff825416910154825191151582526020820152f35b346103a15760203660031901126103a1576001600160a01b03610de0611f5f565b166000908152601360209081526040918290205482516001600160e01b038216815260e09190911c91810191909152f35b346103a15760003660031901126103a157602060ff600c5460b01c166040519015158152f35b346103a15760003660031901126103a1576005546040516001600160a01b039091168152602090f35b346103a15760203660031901126103a15761044e610e7c611f5f565b614dd8565b346103a15760203660031901126103a1576001600160a01b03610ea2611f5f565b16600052600d602052602060ff604060002054166040519015158152f35b346103a15761044e366121af565b346103a15760203660031901126103a1576001600160a01b03610eef611f5f565b16600052600e602052602060ff604060002054166040519015158152f35b346103a15760203660031901126103a1576001600160a01b03610f2e611f5f565b166000908152601260209081526040918290205482516001600160e01b038216815260e09190911c91810191909152f35b346103a15760203660031901126103a1576001600160a01b03610f80611f5f565b1660005260186020526020604060002054604051908152f35b346103a15761044e366120d2565b346103a15760803660031901126103a15767ffffffffffffffff6004358181116103a157610fd9903690600401612064565b906024359081116103a157610ff2903690600401612064565b604435918215158093036103a1576064358015158091036103a15760005b83518110156111a9576001600160a01b0361102b82866123b4565b511680600052600b60205260ff604060002054161561116c57600186146110b5575b60018314611065575b506110609061238f565b611010565b94909361107186614715565b60005b84518110156110a8576110a39061109e6001600160a01b0361109683896123b4565b511689614b0b565b61238f565b611074565b5090945092611060611056565b949291936040519363aa5af0fd60e01b85526020856004818a5afa948515610a8457600095611138575b50604051946110ed86611fbf565b85526110f985886149c4565b60005b845181101561112c576111279061109e876001600160a01b0361111f848a6123b4565b51168b614c6c565b6110fc565b5095909492935061104d565b9094506020813d602011611164575b816111546020938361202a565b810103126103a1575193876110df565b3d9150611147565b60405162461bcd60e51b81526020600482015260156024820152741b585c9ad95d081b5d5cdd081899481b1a5cdd1959605a1b6044820152606490fd5b8260005b815181101561044e57611213906001600160a01b03806111cd83866123b4565b5116816111da84876123b4565b51166000526016906111f7602091838352604060002054906150ae565b9261120285886123b4565b51166000525260406000205561238f565b6111ad565b346103a15760403660031901126103a15767ffffffffffffffff6004358181116103a15761124a9036906004016121fe565b916024359081116103a1576112639036906004016121fe565b9260018060a01b03928360005416331480156113c0575b1561135d5781151580611354575b1561131f5760005b82811061129957005b806112a861131a928887614554565b35866112bd6112b8848888614554565b614564565b16600052602090601182526040600020557f6f1951b2aad10f3fc81b86d91105b413a5b3f847a34bbc5ce1904201b14438f66112fd6112b8848888614554565b918861130a858c8b614554565b35936040519485521692a261238f565b611290565b60405162461bcd60e51b815260206004820152600d60248201526c1a5b9d985b1a59081a5b9c1d5d609a1b6044820152606490fd5b50848214611288565b60405162461bcd60e51b815260206004820152603560248201527f6f6e6c792061646d696e206f7220626f72726f772063617020677561726469616044820152746e2063616e2073657420626f72726f77206361707360581b6064820152608490fd5b508360105416331461127a565b346103a15760206104036113e0366121af565b9390929150612d3c565b346103a15760203660031901126103a1576020610403611408611f5f565b614578565b346103a15760203660031901126103a15761142e611429611f5f565b613157565b6012839293101561073d5761084b90604051938493846040919493926060820195825260208201520152565b346103a15761044e3661214c565b346103a15760403660031901126103a157611481611f5f565b7f386537fa92edc3319af95f1f904dcf1900021e4f3f4e08169a577a09076e66b36020602435926114b361092061519f565b6114bc81614dd8565b836114fd576001600160a01b0381166000908152601a835260408120555b6001600160a01b03166000818152601983526040908190208590555193845292a2005b6001600160a01b0381166000908152601a8352604090204390556114da565b346103a15760203660031901126103a1576004356001600160a01b03811681036103a157610403602091614048565b346103a15760203660031901126103a157600435600f548110156103a157600f60005260008051602061530183398151915201546040516001600160a01b039091168152602090f35b346103a1576115a236612113565b1592509050816115ed575b506115b457005b60405162461bcd60e51b815260206004820152601160248201527072656465656d546f6b656e73207a65726f60781b6044820152606490fd5b90501515816115ad565b346103a15760203660031901126103a15760206104036004356142b5565b346103a15760206104036116283661214c565b50906127e8565b346103a15761142e61164036612113565b9290916001600160a01b031690613ad0565b346103a15760003660031901126103a1576020600854604051908152f35b346103a15760203660031901126103a1576001600160a01b03611691611f5f565b1660005260116020526020604060002054604051908152f35b346103a15760c03660031901126103a1576116c3611f5f565b506116cc611f75565b506116d5611fa9565b506064356001600160a01b038116036103a157005b346103a15760003660031901126103a1576006546040516001600160a01b039091168152602090f35b346103a15760003660031901126103a1576020604051438152f35b346103a15761044e36612113565b346103a15760003660031901126103a157602060ff600c5460a01c166040519015158152f35b346103a15760403660031901126103a157602061177d611f5f565b7f71aec636243f9709bb0007ae15e9afb8150ab01716d75fd7573be5cc096e03b060a06117a8611f8b565b600180831b038094169384600052600b86526117cb60ff60406000205416614617565b80600c541633148015611858575b6117e290614674565b600054163314801561184c575b6117f8906146d0565b83600052600d855261181a8160406000209060ff801983541691151516179055565b6040519384526060858501526004606085015263135a5b9d60e21b6080850152151592836040820152a1604051908152f35b508015156001146117ef565b50600054811633146117d9565b346103a15760203660031901126103a15761187e611f5f565b6000546001600160a01b0390811633036118f157601080548383166001600160a01b031982161790915560408051929091166001600160a01b03908116835290921660208201527feda98690e518e9a05f8ec6837663e188211b2da8f4906648b323f2c1d4434e2991819081015b0390a1005b60405162461bcd60e51b815260206004820152602660248201527f6f6e6c792061646d696e2063616e2073657420626f72726f772063617020677560448201526530b93234b0b760d11b6064820152608490fd5b346103a15760203660031901126103a157600054600435906001600160a01b031633036119ae5760407f3b9670cf975d26958e754b57098eaa2ac914d8d2a31b83257997b9f346110fd991600754908060075582519182526020820152a1602060405160008152f35b60405162461bcd60e51b815260206004820152601f60248201527f6f6e6c792061646d696e2063616e2073657420636c6f736520666163746f72006044820152606490fd5b346103a15760203660031901126103a1576020611a0e611f9a565b600c54906001600160a01b0333818416148015611ab7575b611a2f90614674565b6000541633148015611aab575b611a45906146d0565b15159060ff60b81b8260b81b169060ff60b81b191617600c557f27ee2b767de43e8b48d1666d8c451a273fbf857e760fda6e95d0d582f68534bc60806040516040815260056040820152645365697a6560d81b60608201528385820152a1604051908152f35b50801515600114611a3c565b5060005481163314611a26565b346103a15760403660031901126103a157611add611f5f565b602435611ae861519f565b15611b8557611af781836150ae565b611b4057604080516001600160a01b03909316835260208301919091527f98b2f82a3a07f223a0be64b3d0f47711c64dccd1feafb94aa28156b38cd9695c9190819081016118ec565b60405162461bcd60e51b815260206004820152601b60248201527f696e73756666696369656e7420636f6d7020666f72206772616e7400000000006044820152606490fd5b60405162461bcd60e51b815260206004820152601960248201527f6f6e6c792061646d696e2063616e206772616e7420636f6d70000000000000006044820152606490fd5b346103a15760003660031901126103a1576001546040516001600160a01b039091168152602090f35b346103a15760003660031901126103a157600c546040516001600160a01b039091168152602090f35b346103a1576020610403611c2f366120d2565b50919050612c97565b346103a15760003660031901126103a1576010546040516001600160a01b039091168152602090f35b346103a15760a03660031901126103a157611c7a611f5f565b50611c83611f75565b5061044e611fa9565b346103a1576020806003193601126103a1576004356001600160a01b03818116918290036103a1576040516303e1469160e61b81528381600481865afa908115610a8457600091611dcd575b50163303611d78578160009160046040518094819363307a00cd60e21b83525af1908115610a8457600091611d4b575b50611d0f57005b6064906040519062461bcd60e51b82526004820152601560248201527418da185b99d9481b9bdd08185d5d1a1bdc9a5e9959605a1b6044820152fd5b90508181813d8311611d71575b611d62818361202a565b810103126103a1575182611d08565b503d611d58565b60405162461bcd60e51b815260048101839052602760248201527f6f6e6c7920756e6974726f6c6c65722061646d696e2063616e206368616e676560448201526620627261696e7360c81b6064820152608490fd5b90508381813d8311611dfc575b611de4818361202a565b810103126103a1575181811681036103a15784611cd8565b503d611dda565b346103a15760403660031901126103a157611e1c611f5f565b6024359067ffffffffffffffff82116103a15761044861044e923690600401612064565b346103a15760403660031901126103a1576020611e5b611f5f565b7f71aec636243f9709bb0007ae15e9afb8150ab01716d75fd7573be5cc096e03b060a0611e86611f8b565b600180831b038094169384600052600b8652611ea960ff60406000205416614617565b80600c541633148015611f38575b611ec090614674565b6000541633148015611f2c575b611ed6906146d0565b83600052600e8552611ef88160406000209060ff801983541691151516179055565b6040519384526060858501526006606085015265426f72726f7760d01b6080850152151592836040820152a1604051908152f35b50801515600114611ecd565b5060005481163314611eb7565b346103a15760003660031901126103a15780600160209252f35b600435906001600160a01b03821682036103a157565b602435906001600160a01b03821682036103a157565b6024359081151582036103a157565b6004359081151582036103a157565b604435906001600160a01b03821682036103a157565b6020810190811067ffffffffffffffff821117611fdb57604052565b634e487b7160e01b600052604160045260246000fd5b610140810190811067ffffffffffffffff821117611fdb57604052565b6040810190811067ffffffffffffffff821117611fdb57604052565b90601f8019910116810190811067ffffffffffffffff821117611fdb57604052565b67ffffffffffffffff8111611fdb5760051b60200190565b81601f820112156103a15780359161207b8361204c565b92612089604051948561202a565b808452602092838086019260051b8201019283116103a1578301905b8282106120b3575050505090565b81356001600160a01b03811681036103a15781529083019083016120a5565b60809060031901126103a1576001600160a01b0360043581811681036103a1579160243582811681036103a1579160443590811681036103a1579060643590565b60809060031901126103a1576001600160a01b039060043582811681036103a1579160243590811681036103a157906044359060643590565b60609060031901126103a1576001600160a01b039060043582811681036103a1579160243590811681036103a1579060443590565b80548210156121995760005260206000200190600090565b634e487b7160e01b600052603260045260246000fd5b60a09060031901126103a1576001600160a01b039060043582811681036103a1579160243581811681036103a1579160443582811681036103a1579160643590811681036103a1579060843590565b9181601f840112156103a15782359167ffffffffffffffff83116103a1576020808501948460051b0101116103a157565b81601f820112156103a1578035916122468361204c565b92612254604051948561202a565b808452602092838086019260051b8201019283116103a1578301905b82821061227e575050505090565b81358152908301908301612270565b6020908160408183019282815285518094520193019160005b8281106122b4575050505090565b83516001600160a01b0316855293810193928101926001016122a6565b60405190600f548083528260209182820190600f600052600080516020615301833981519152936000905b828210612314575050506123129250038361202a565b565b85546001600160a01b0316845260019586019588955093810193909101906122fc565b9060405191828154918282526020928383019160005283600020936000905b82821061236c575050506123129250038361202a565b85546001600160a01b031684526001958601958895509381019390910190612356565b600019811461239e5760010190565b634e487b7160e01b600052601160045260246000fd5b80518210156121995760209160051b010190565b6001600160a01b038082166000908152600b602052604081208054919493929160ff16156124c5576002918416855201602052600160ff6040852054161515146124c0576040808420805460ff19166001179055600a6020528320805490600160401b8210156124ac57826124698361248d9360017f3ab23ab0d51cccc0c3085aec51f99228625aa1a922b3a8ca89a26b0f2027a1a5989796018155612181565b90919082549060031b9160018060a01b039283811b93849216901b16911916179055565b604080516001600160a01b03928316815292909116602083015290a190565b634e487b7160e01b85526041600452602485fd5b505090565b5050505050600990565b91908260809103126103a1578151916020810151916060604083015192015190565b156124f857565b634e487b7160e01b600052600160045260246000fd5b9190820391821161239e57565b604080516361bfb47160e11b81523360048201526001600160a01b0383811693909190608082602481885afa80156127dd576000809381926127a7575b5061275557612725579061256d913390612895565b806126f9575082600052600b602052600282600020013360005260205260ff826000205416156126f1578160002060ff198154169055600a6020526125b482600020612337565b928351928360005b8181106126c4575b50846125d5929394959650106124f1565b33600052600a60205280600020928354946000199586810190811161239e5761263a91836126066126109389612181565b9390549289612181565b92909360031b1c169082549060031b9160018060a01b039283811b93849216901b16911916179055565b83549384156126ae577fe699a64c18b07ac5b7301aa273f36a2287239eb9501d81950672794afba29a0d956126a69501916126758383612181565b815460039190911b9290921b19909116905555516001600160a01b0390911681523360208201529081906040820190565b0390a1600090565b634e487b7160e01b600052603160045260246000fd5b83856126d0838a6123b4565b5116146126e5576126e09061238f565b6125bc565b909550935084386125c4565b505050600090565b8251600e81526003602082015292830152506000805160206152e18339815191529150606090a1600e90565b5050506000805160206152e183398151915291508060006060925191600c835260026020840152820152a1600c90565b845162461bcd60e51b815260206004820152602560248201527f657869744d61726b65743a206765744163636f756e74536e617073686f742066604482015264185a5b195960da1b6064820152608490fd5b9150506127cc91925060803d81116127d6575b6127c4818361202a565b8101906124cf565b5090929138612558565b503d6127ba565b84513d6000823e3d90fd5b6001600160a01b0381166000818152600d602052604090205491929160ff1661283f57600052600b60205260ff6040600020541615612838578161282e61283393614715565b614b0b565b600090565b5050600990565b60405162461bcd60e51b815260206004820152600e60248201526d1b5a5b9d081a5cc81c185d5cd95960921b6044820152606490fd5b91612881908284612895565b91826124c057612833925061282e81614715565b6001600160a01b039081166000818152600b60205260408120549094929060ff16156124c55760026040862001908416855260205260ff60408520541615612919576128e0926134ba565b919050601281101561290557806128ff57506128f95790565b50600490565b91505090565b634e487b7160e01b83526021600452602483fd5b50505090565b929160018060a01b039182851694600093868552602093600e855260409160ff8388205416612c5357888752600b865260ff838820541615612c4657908589926002858a200181881690818b52835260ff868b20541615612b98575b50906024916005541685519283809263fc57d4df60e01b825260049e8f8301525afa908115612b8e578891612b5d575b5015612b5057818752601186528287205480612a96575b506129ce9082866137f1565b9190506012811015612a835780612a785750612a7057849082519889809263aa5af0fd60e01b82525afa938415612a66578594612a2d575b50612a2a949596505192612a1984611fbf565b8352612a2583826149c4565b614c6c565b90565b90935086813d8311612a5f575b612a44818361202a565b81010312612a5b5794519394859492612a2a612a06565b8380fd5b503d612a3a565b81513d87823e3d90fd5b505050505050565b985050505050505050565b634e487b7160e01b885260218a52602488fd5b83516308f7a6e360e31b815287818c81875afa8015612b465783908a90612b11575b612ac29250612c8a565b1015612ace57386129c2565b825162461bcd60e51b8152808a01879052601960248201527f6d61726b657420626f72726f77206361702072656163686564000000000000006044820152606490fd5b50508781813d8311612b3f575b612b28818361202a565b81010312612b3b5782612ac29151612ab8565b8880fd5b503d612b1e565b85513d8b823e3d90fd5b50600d9750505050505050565b90508681813d8311612b87575b612b74818361202a565b81010312612b835751386129ab565b8780fd5b503d612b6a565b84513d8a823e3d90fd5b915091923303612c0a57612bac86336123c8565b6012811015612bf65780612bea5750868a9392602492858b52600b83526002878c2001908b528252612be360ff878c2054166124f1565b909161297b565b99505050505050505050565b634e487b7160e01b89526021600452602489fd5b835162461bcd60e51b815260048101889052601560248201527439b2b73232b91036bab9ba1031329031aa37b5b2b760591b6044820152606490fd5b5060099750505050505050565b825162461bcd60e51b815260048101879052601060248201526f189bdc9c9bddc81a5cc81c185d5cd95960821b6044820152606490fd5b9190820180921161239e57565b6001600160a01b0381166000818152600b602052604081205490939060ff1615612d335760206004926040519384809263aa5af0fd60e01b82525afa918215612d28578492612cf3575b50612a2a9260405192612a1984611fbf565b9091506020813d8211612d20575b81612d0e6020938361202a565b81010312612a5b575190612a2a612ce1565b3d9150612d01565b6040513d86823e3d90fd5b50505050600990565b919260018060a01b0380931692600094848652602094600b86526040948360ff878a20541615918215612ed1575b5050612ec55784516395dd919360e01b815292821660048401528583602481845afa928315612ebb578793612e86575b50612da490615211565b15612e08575010612db457505090565b60849250519062461bcd60e51b82526004820152602860248201527f43616e206e6f74207265706179206d6f7265207468616e2074686520746f74616044820152676c20626f72726f7760c01b6064820152fd5b612e159193929450613157565b9190506012811015612e725780612e69575015612e6057670de0b6b3a764000091612e5091600754905190612e4982611fbf565b8152612f04565b510410612e5a5790565b50601190565b50505050600390565b94505050505090565b634e487b7160e01b86526021600452602486fd5b9092508581813d8311612eb4575b612e9e818361202a565b81010312612eb0575191612da4612d9a565b8680fd5b503d612e94565b85513d89823e3d90fd5b50505050505050600990565b168852508487205460ff16158338612d6a565b8115612eee570490565b634e487b7160e01b600052601260045260246000fd5b90612f1e916000604051612f1781611fbf565b5251612f3f565b60405190612f2b82611fbf565b815290565b90600160009215171561239e57565b8181029291811591840414171561239e57565b908160209103126103a157516001600160a01b03811681036103a15790565b9291909260ff600c5460b81c166130af5760018060a01b03808216906000958287526020600b815260409160ff838a20541615801561309c575b61308e578251948286600481635fe3b56760e01b948582525afa958615613084578a96613059575b5091809160048694865195869384928352165afa9283156130505750908392918992613023575b50501691160361301a5761282e612a2a9361301483614715565b82614b0b565b50505050600290565b6130429250803d10613049575b61303a818361202a565b810190612f52565b3880612ffa565b503d613030565b513d8a823e3d90fd5b8392908392975061307960049188963d86116130495761303a818361202a565b979250509192612fd3565b84513d8c823e3d90fd5b505050505050505050600990565b50838116895260ff838a20541615612fab565b60405162461bcd60e51b815260206004820152600f60248201526e1cd95a5e99481a5cc81c185d5cd959608a1b6044820152606490fd5b909260ff600c5460b01c1661311d57613100908483612895565b80613116575061282e6128339361301483614715565b9250505090565b60405162461bcd60e51b81526020600482015260126024820152711d1c985b9cd9995c881a5cc81c185d5cd95960721b6044820152606490fd5b60405161316381611ff1565b6000815260006020820152600060408201526000606082015260006080820152600060a082015260405161319681611fbf565b6000815260c08201526040516131ab81611fbf565b6000815260e08201526040516131c081611fbf565b600081526101008201526040516131d681611fbf565b6000815261012082015260018060a01b038216600052600a6020526131fe6040600020612337565b6005549092906001600160a01b031660005b8451811015613477576001600160a01b0361322b82876123b4565b516040516361bfb47160e11b81526001600160a01b038616600482015291169190608081602481865afa8015610a8457600091600091600091600091613454575b506080890152606088015260408701526134435781600052600b6020526001604060002001546040519061329f82611fbf565b815260c08601526080850151604051906132b882611fbf565b815260e086015260405163fc57d4df60e01b81526004810183905291602083602481875afa928315610a845760009361340f575b508260a087015282156133fd576040516133949361330982611fbf565b815261010087015261333361332760c088015160e089015190613df6565b61010088015190613df6565b8061012088015261336160408801519188519061335a670de0b6b3a7640000948592612f04565b5104612c8a565b87526133806101008801518261335a60608b015160208c015193612f04565b9182602089015215613399575b505061238f565b613210565b6133d36133f192826133bf6101208b015160006040516133b881611fbf565b5251612f30565b806040516133cc81611fbf565b5204612c8a565b908160208901526133bf61010089015160006040516133b881611fbf565b6020860152388061338d565b50505050505050600d90600090600090565b9092506020813d60201161343b575b8161342b6020938361202a565b810103126103a1575191386132ec565b3d915061341e565b505050505050600f90600090600090565b92505050613471915060803d6080116127d6576127c4818361202a565b3861326c565b5050509050805160208201518082116000146134a75750508060206134a092519101519061250e565b6000918290565b6134b1925061250e565b60009160009190565b91604051916134c883611ff1565b6000835260006020840152600060408401526000606084015260006080840152600060a08401526040516134fb81611fbf565b6000815260c084015260405161351081611fbf565b6000815260e084015260405161352581611fbf565b6000815261010084015260405161353b81611fbf565b6000815261012084015260018060a01b038416600052600a6020526135636040600020612337565b6005549094906001600160a01b031660005b86518110156137c6576001600160a01b0361359082896123b4565b516040516361bfb47160e11b81526001600160a01b038616600482015291169190608081602481865afa8015610a84576000916000916000916000916137a3575b5060808b015260608a015260408901526137905781600052600b6020526001604060002001546040519061360482611fbf565b815260c088015260808701516040519061361d82611fbf565b815260e088015260405163fc57d4df60e01b815260048101839052602081602481875afa908115610a845760009161375e575b508060a0890152801561374a576137039287916040519061367082611fbf565b81526101008a01528861369b61368f60c083015160e084015190613df6565b61010083015190613df6565b91826101208301526136c360408301519383519061335a670de0b6b3a7640000968792612f04565b82526136e26101008301518461335a6060860151602087015193612f04565b60208301819052906001600160a01b038a1614613708575b5050505061238f565b613575565b8261335a61373c9561012061371e950151612f04565b908160208b01526133bf6101008b015160006040516133b881611fbf565b6020880152853888816136fa565b505050505050505050600d90600090600090565b90506020813d602011613788575b816137796020938361202a565b810103126103a1575138613650565b3d915061376c565b5050505050505050600f90600090600090565b925050506137c0915060803d6080116127d6576127c4818361202a565b386135d1565b50505050509050805160208201518082116000146134a75750508060206134a092519101519061250e565b604051916137fe83611ff1565b6000835260006020840152600060408401526000606084015260006080840152600060a084015260405161383181611fbf565b6000815260c084015260405161384681611fbf565b6000815260e084015260405161385b81611fbf565b6000815261010084015260405161387181611fbf565b6000815261012084015260018060a01b038216600052600a6020526138996040600020612337565b6005549094906001600160a01b031660005b86518110156137c6576001600160a01b036138c682896123b4565b516040516361bfb47160e11b81526001600160a01b038816600482015291169190608081602481865afa8015610a8457600091600091600091600091613aad575b5060808b015260608a015260408901526137905781600052600b6020526001604060002001546040519061393a82611fbf565b815260c088015260808701516040519061395382611fbf565b815260e088015260405163fc57d4df60e01b81526004810183905291602083602481875afa928315610a8457600093613a79575b508260a0890152821561374a57604051613a33936139a482611fbf565b81526101008901526139ce6139c260c08a015160e08b015190613df6565b6101008a015190613df6565b806101208a01526139f560408a0151918a519061335a670de0b6b3a7640000948592612f04565b8952613a156101008a01518261335a8c6020606082015191015193612f04565b60208a01819052916001600160a01b03881614613a3857505061238f565b6138ab565b613a57613a6d92826133bf6101208d015160006040516133b881611fbf565b908160208b015261335a876101008c0151612f04565b6020880152388061338d565b9092506020813d602011613aa5575b81613a956020938361202a565b810103126103a157519138613987565b3d9150613a88565b92505050613aca915060803d6080116127d6576127c4818361202a565b38613907565b929160405192613adf84611ff1565b6000845260006020850152600060408501526000606085015260006080850152600060a0850152604051613b1281611fbf565b6000815260c0850152604051613b2781611fbf565b6000815260e0850152604051613b3c81611fbf565b60008152610100850152604051613b5281611fbf565b6000815261012085015260018060a01b038516600052600a602052613b7a6040600020612337565b6005549095906001600160a01b031660005b8751811015613dca576001600160a01b03613ba7828a6123b4565b516040516361bfb47160e11b81526001600160a01b038616600482015291169190608081602481865afa8015610a8457600091600091600091600091613da7575b5060808c015260608b015260408a0152613d935781600052600b60205260016040600020015460405190613c1b82611fbf565b815260c0890152608088015160405190613c3482611fbf565b815260e089015260405163fc57d4df60e01b815260048101839052602081602481875afa908115610a8457600091613d61575b508060a08a01528015613d4c57613d0d92879160405190613c8782611fbf565b81526101008b015289613ca661368f60c083015160e084015190613df6565b9182610120830152613cce60408301519383519061335a670de0b6b3a7640000968792612f04565b8252613ced6101008301518461335a6060860151602087015193612f04565b60208301819052906001600160a01b038c1614613d12575050505061238f565b613b8c565b8261335a613d3e95610120613d28950151612f04565b908160208c015261335a886101008d0151612f04565b6020890152853889816136fa565b50505050505050505050600d90600090600090565b90506020813d602011613d8b575b81613d7c6020938361202a565b810103126103a1575138613c67565b3d9150613d6f565b505050505050505050600f90600090600090565b92505050613dc4915060803d6080116127d6576127c4818361202a565b38613be8565b5050505050509050805160208201518082116000146134a75750508060206134a092519101519061250e565b670de0b6b3a764000091613e1c916000604051613e1281611fbf565b5251905190612f3f565b0460405190612f2b82611fbf565b909160018060a01b038060055416936040938451928063fc57d4df60e01b9283865216600485015260209283856024818b5afa94851561403d5760009561400e575b509083911691602487518099819382528560048301525afa958615613fbe57600096613fdf575b5082158015613fd7575b613fc9578160049186519283809263182df0f560e01b82525afa918215613fbe57600092613f88575b5050613f1d613f389260008651613edc81611fbf565b5260008651613eea81611fbf565b5260008651613ef881611fbf565b52600854865190613f0882611fbf565b8152865191613f1683611fbf565b8252613df6565b94845190613f2a82611fbf565b8152845191613f1683611fbf565b9260008351613f4681611fbf565b525191670de0b6b3a7640000938484029380850486149015171561239e57613f7f93613f73915190612ee4565b905190612e4982611fbf565b51049060009190565b81819392933d8311613fb7575b613f9f818361202a565b81010312613fb4575051613f1d613f38613ec6565b80fd5b503d613f95565b85513d6000823e3d90fd5b505050505050600d90600090565b508515613e9d565b90958282813d8311614007575b613ff6818361202a565b81010312613fb45750519438613e93565b503d613fec565b90948482813d8311614036575b614025818361202a565b81010312613fb45750519383613e6c565b503d61401b565b87513d6000823e3d90fd5b6000546001600160a01b0390811633036140b0577fd52b2b9b7e9ee655fcb95d2e5b9e0c9f69e7ef2b8e9d2d0ea78402d576d22e229181604092600554921690816bffffffffffffffffffffffff60a01b8416176005558351921682526020820152a1600090565b50506000805160206152e18339815191526060604051600181526010602082015260006040820152a1600190565b6000805490926001600160a01b0392909183163303614286578216918284526020600b81526040918286209060ff8254161561425857835161411f81611fbf565b85815284519061412e82611fbf565b670c7d713b49da0000809252511161422a578285151591826141bc575b505061418f576001018054908490558251948552908401528201527f70483e6592cd5182d45ac970e05bc62cdcc90e9d8ef2c2dbe686cf383bcd7fc590606090a190565b50915060609250928360096000805160206152e1833981519152955193600d8552840152820152a1600d90565b602492506005541685519283809263fc57d4df60e01b82528a60048301525afa9081156142205787916141f3575b5015823861414b565b90508281813d8311614219575b61420a818361202a565b81010312612eb05751386141ea565b503d614200565b84513d89823e3d90fd5b5050915060609250928360086000805160206152e183398151915295519360068552840152820152a1600690565b5050915060609250928360076000805160206152e183398151915295519360098552840152820152a1600990565b50505060606000805160206152e1833981519152916040519060018252600660208301526040820152a1600190565b6000546001600160a01b031633036143035760407faeba5a6c40a8ac138134bff1aaa65debf25971188a58804bad717f82f0ec131691600854908060085582519182526020820152a1600090565b506000805160206152e1833981519152606060405160018152600b602082015260006040820152a1600190565b908160209103126103a1575180151581036103a15790565b600080546001600160a01b0393929084163303614524578316808252602090600b8252604060ff81852054166144f8578051637f4e225760e11b81526004969084818981875afa80156144ee576144c1575b50828552600b8452818520805460ff19166001908117825501859055600f805491865b83811061445c575050600160401b821015614449576001820180825582101561443657857fcf583bb0c569eb967f806b11601c4cb93c10310485c67add5f8362c2f212321f969798505260008051602061530183398151915201826bffffffffffffffffffffffff60a01b82541617905551908152a190565b634e487b7160e01b865260328852602486fd5b634e487b7160e01b865260418852602486fd5b82885285828260008051602061530183398151915201541614614487576144829061238f565b6143bd565b845162461bcd60e51b8152808b0188905260146024820152731b585c9ad95d08185b1c9958591e48185919195960621b6044820152606490fd5b6144e090853d87116144e7575b6144d8818361202a565b810190614330565b503861439a565b503d6144ce565b83513d88823e3d90fd5b6000805160206152e183398151915294955060609391506011815193600a8552840152820152a1600a90565b506000805160206152e18339815191529192506060906040519060018252601260208301526040820152a1600190565b91908110156121995760051b0190565b356001600160a01b03811681036103a15790565b6000546001600160a01b0390811633036145e957600c80549282166001600160a01b03198416811790915560408051929093166001600160a01b0390811683521660208201527f0613b6ee6a04f0d09f390e4d9318894b9f6ac7fd83897cd8d18896ba579c401e91819081016126a6565b50506000805160206152e18339815191526060604051600181526013602082015260006040820152a1600190565b1561461e57565b60405162461bcd60e51b815260206004820152602860248201527f63616e6e6f742070617573652061206d61726b65742074686174206973206e6f6044820152671d081b1a5cdd195960c21b6064820152608490fd5b1561467b57565b60405162461bcd60e51b815260206004820152602760248201527f6f6e6c7920706175736520677561726469616e20616e642061646d696e2063616044820152666e20706175736560c81b6064820152608490fd5b156146d757565b60405162461bcd60e51b81526020600482015260166024820152756f6e6c792061646d696e2063616e20756e706175736560501b6044820152606490fd5b60018060a01b0316906000918083526020601281526040908185209160188252808620549561477e82516147488161200e565b601c81527f626c6f636b206e756d6265722065786365656473203332206269747300000000858201526401000000004310614907565b63ffffffff431694614794855460e01c8761250e565b9081151580806148fe575b156148cd575090846004928551938480926318160ddd60e01b82525afa9182156148c357839261488e575b5061231297986147d991612f3f565b8115614878576147e9925061498b565b905b6148548454937f6e657720696e646578206578636565647320323234206269747300000000000061483484519561482187611fbf565b6001600160e01b0388811688529661496e565b519351916148418361200e565b601a8352820152600160e01b8310614907565b6001600160e01b0391161660e09390931b6001600160e01b03191692909217905550565b505081519061488682611fbf565b8152906147eb565b9091508481813d83116148bc575b6148a6818361202a565b810103126148b85751906123126147ca565b8280fd5b503d61489c565b84513d85823e3d90fd5b9597985050505050506148de575050565b81546001600160e01b031660e09190911b6001600160e01b031916179055565b5089151561479f565b1561490f5750565b6040519062461bcd60e51b82528160208060048301528251908160248401526000935b828510614955575050604492506000838284010152601f80199101168101030190fd5b8481018201518686016044015293810193859350614932565b90612f1e91600060405161498181611fbf565b5251905190612c8a565b90600060405161499a81611fbf565b526a0c097ce7bc90715b34b9f160241b9182810292818404149015171561239e57612f1e91612ee4565b91909160018060a01b0316916000838152602060138152604080832092601783528181205496614a2e83516149f88161200e565b601c81527f626c6f636b206e756d6265722065786365656473203332206269747300000000868201526401000000004310614907565b63ffffffff431695614a44865460e01c8861250e565b918215158080614add575b15614acb5750856004918651928380926308f7a6e360e31b82525afa908115614ac1578491614a92575b5098614a8c6147d9926123129a9b614ae6565b92612f3f565b90508581813d8311614aba575b614aa9818361202a565b81010312612a5b5751614a8c614a79565b503d614a9f565b85513d86823e3d90fd5b969899505050505050506148de575050565b508a1515614a4f565b670de0b6b3a76400009081810291818304149015171561239e57612a2a915190612ee4565b6001600160a01b03908116600081815260126020908152604080832054601483528184209690951680845295825280832080546001600160e01b03909616908190559196959490929190801580614c54575b614c3f575b614b6c908261250e565b96835197614b7989611fbf565b885283516370a0823160e01b8152600481018790528181602481895afa908115614ac1578491614c10575b50614be46a0c097ce7bc90715b34b9f160241b917f2caecd17d02f56fa897705dcc740da2d237c373f70686f4e0d9bd3bf0400ea7a9798999a5190612f3f565b04928781526016825284614bfb8582842054612c8a565b918981526016845220558351928352820152a3565b90508181813d8311614c38575b614c27818361202a565b81010312612a5b5751614be4614ba4565b503d614c1d565b506a0c097ce7bc90715b34b9f160241b614b62565b506a0c097ce7bc90715b34b9f160241b821015614b5d565b6001600160a01b03908116600081815260136020908152604080832054601583528184209690951680845295825280832080546001600160e01b0390961690819055969796939490939190801580614dc0575b614dab575b614cce908361250e565b97845198614cdb8a611fbf565b895284516395dd919360e01b81526004810188905282816024818a5afa908115614da1578591614d50575b507f1fc3ecc087d8d2d15e23d0032af5a47059c3892d003d8e139fdcb6bb327c99a696979899614d486a0c097ce7bc90715b34b9f160241b93614be493614ae6565b905190612f3f565b90508281813d8311614d9a575b614d67818361202a565b81010312614d9657517f1fc3ecc087d8d2d15e23d0032af5a47059c3892d003d8e139fdcb6bb327c99a6614d06565b8480fd5b503d614d5d565b86513d87823e3d90fd5b506a0c097ce7bc90715b34b9f160241b614cc4565b506a0c097ce7bc90715b34b9f160241b831015614cbf565b60018060a01b031660009080825260196020526040822054601a602052614e0360408420544361250e565b80151580614e57575b614e17575b50505050565b614e3691614e2491612f3f565b82845260166020526040842054612c8a565b90825260166020526040822055601a60205260404391205538808080614e11565b50811515614e0c565b604080519181830183811067ffffffffffffffff821117611fdb5782526001938484526020908185019082368337855115612199576001600160a01b039384169091526000865b614f25575b5050846000905b614ebf57505050505050565b8451811015614f20578083614ed7614f1a93886123b4565b511684614ee483896123b4565b5116600052614efd6016918286528760002054906150ae565b9085614f09848a6123b4565b51166000528452856000205561238f565b85614eb3565b612a70565b81518110156150a95783614f3982846123b4565b511680600052600b845260ff8660002054161561506d57855163aa5af0fd60e01b81528481600481855afa90811561403d57600091615040575b5086518994939291614f8482611fbf565b8152614f9081836149c4565b886000865b614ffd575b505050614fa681614715565b6000845b614fc1575b5050614fba9061238f565b9091614ea7565b88949192939451811015614ff3578061109e88614fe1614fe9948d6123b4565b511685614b0b565b8194939291614faa565b8194939250614faf565b888297939495969751821015615034578461109e9161501f84615027966123b4565b511687614c6c565b8990829695949392614f95565b50829695949350614f9a565b908582813d8311615066575b615056818361202a565b81010312613fb457505138614f73565b503d61504c565b855162461bcd60e51b81526004810185905260156024820152741b585c9ad95d081b5d5cdd081899481b1a5cdd1959605a1b6044820152606490fd5b614eac565b6006546040516370a0823160e01b8152306004820152602093926001600160a01b0390921691908481602481865afa908115610a8457600091615172575b508315159081615167575b50615103575050905090565b60405163a9059cbb60e01b81526001600160a01b0391909116600482015260248101929092528290829060449082906000905af18015610a8457615149575b5050600090565b8161515f92903d106144e7576144d8818361202a565b503880615142565b9050831115386150f7565b908582813d8311615198575b615188818361202a565b81010312613fb4575051386150ec565b503d61517e565b600054336001600160a01b03918216149081156151ba575090565b905060025416331490565b156151cc57565b60405162461bcd60e51b815260206004820152601d60248201527f6f6e6c792061646d696e2063616e2073657420636f6d702073706565640000006044820152606490fd5b6001600160a01b03166000818152600b602090815260408220600101541592909190836152c8575b836152445750505090565b6040516305cee64160e21b815293508290849060049082905afa9182156152bb578192615282575b5050670de0b6b3a7640000915014388080612919565b90915082813d83116152b4575b615299818361202a565b81010312613fb45750670de0b6b3a76400009051388061526c565b503d61528f565b50604051903d90823e3d90fd5b600e8352604082205460ff161515600114935061523956fe45b96fe442630264581b197e84bbada861235052c5a1aadfff9ea4e40a969aa08d1108e10bcb7c27dddfc02ed9d693a074039d026cf4ea4240b40f7d581ac802a26469706673582212202f3aaff42855ba80d9fe3532e9c9cd3d6e0730d79586fd186c3de7a8b6744de364736f6c63430008110033",
  "linkReferences": {},
  "deployedLinkReferences": {}
}