{
  "_format": "hh-sol-artifact-1",
  "contractName": "Lever",
  "sourceName": "contracts/lending/Lever.sol",
  "abi": [
    {
      "inputs": [
        {
          "internalType": "address",
          "name": "exchangeAddress",
          "type": "address"
        },
        {
          "internalType": "contract ZEXE",
          "name": "_zexe",
          "type": "address"
        }
      ],
      "stateMutability": "nonpayable",
      "type": "constructor"
    },
    {
      "anonymous": false,
      "inputs": [
        {
          "indexed": false,
          "internalType": "contract LendingMarket",
          "name": "cToken",
          "type": "address"
        },
        {
          "indexed": false,
          "internalType": "string",
          "name": "action",
          "type": "string"
        },
        {
          "indexed": false,
          "internalType": "bool",
          "name": "pauseState",
          "type": "bool"
        }
      ],
      "name": "ActionPaused",
      "type": "event"
    },
    {
      "anonymous": false,
      "inputs": [
        {
          "indexed": false,
          "internalType": "string",
          "name": "action",
          "type": "string"
        },
        {
          "indexed": false,
          "internalType": "bool",
          "name": "pauseState",
          "type": "bool"
        }
      ],
      "name": "ActionPausedGlobally",
      "type": "event"
    },
    {
      "anonymous": false,
      "inputs": [
        {
          "indexed": true,
          "internalType": "address",
          "name": "user",
          "type": "address"
        },
        {
          "indexed": false,
          "internalType": "uint256",
          "name": "oldCompAccrued",
          "type": "uint256"
        },
        {
          "indexed": false,
          "internalType": "uint256",
          "name": "newCompAccrued",
          "type": "uint256"
        }
      ],
      "name": "CompAccruedAdjusted",
      "type": "event"
    },
    {
      "anonymous": false,
      "inputs": [
        {
          "indexed": true,
          "internalType": "contract LendingMarket",
          "name": "cToken",
          "type": "address"
        },
        {
          "indexed": false,
          "internalType": "uint256",
          "name": "newSpeed",
          "type": "uint256"
        }
      ],
      "name": "CompBorrowSpeedUpdated",
      "type": "event"
    },
    {
      "anonymous": false,
      "inputs": [
        {
          "indexed": false,
          "internalType": "address",
          "name": "recipient",
          "type": "address"
        },
        {
          "indexed": false,
          "internalType": "uint256",
          "name": "amount",
          "type": "uint256"
        }
      ],
      "name": "CompGranted",
      "type": "event"
    },
    {
      "anonymous": false,
      "inputs": [
        {
          "indexed": true,
          "internalType": "address",
          "name": "user",
          "type": "address"
        },
        {
          "indexed": false,
          "internalType": "uint256",
          "name": "oldCompReceivable",
          "type": "uint256"
        },
        {
          "indexed": false,
          "internalType": "uint256",
          "name": "newCompReceivable",
          "type": "uint256"
        }
      ],
      "name": "CompReceivableUpdated",
      "type": "event"
    },
    {
      "anonymous": false,
      "inputs": [
        {
          "indexed": true,
          "internalType": "contract LendingMarket",
          "name": "cToken",
          "type": "address"
        },
        {
          "indexed": false,
          "internalType": "uint256",
          "name": "newSpeed",
          "type": "uint256"
        }
      ],
      "name": "CompSupplySpeedUpdated",
      "type": "event"
    },
    {
      "anonymous": false,
      "inputs": [
        {
          "indexed": true,
          "internalType": "address",
          "name": "contributor",
          "type": "address"
        },
        {
          "indexed": false,
          "internalType": "uint256",
          "name": "newSpeed",
          "type": "uint256"
        }
      ],
      "name": "ContributorCompSpeedUpdated",
      "type": "event"
    },
    {
      "anonymous": false,
      "inputs": [
        {
          "indexed": true,
          "internalType": "contract LendingMarket",
          "name": "cToken",
          "type": "address"
        },
        {
          "indexed": true,
          "internalType": "address",
          "name": "borrower",
          "type": "address"
        },
        {
          "indexed": false,
          "internalType": "uint256",
          "name": "compDelta",
          "type": "uint256"
        },
        {
          "indexed": false,
          "internalType": "uint256",
          "name": "compBorrowIndex",
          "type": "uint256"
        }
      ],
      "name": "DistributedBorrowerComp",
      "type": "event"
    },
    {
      "anonymous": false,
      "inputs": [
        {
          "indexed": true,
          "internalType": "contract LendingMarket",
          "name": "cToken",
          "type": "address"
        },
        {
          "indexed": true,
          "internalType": "address",
          "name": "supplier",
          "type": "address"
        },
        {
          "indexed": false,
          "internalType": "uint256",
          "name": "compDelta",
          "type": "uint256"
        },
        {
          "indexed": false,
          "internalType": "uint256",
          "name": "compSupplyIndex",
          "type": "uint256"
        }
      ],
      "name": "DistributedSupplierComp",
      "type": "event"
    },
    {
      "anonymous": false,
      "inputs": [
        {
          "indexed": false,
          "internalType": "uint256",
          "name": "error",
          "type": "uint256"
        },
        {
          "indexed": false,
          "internalType": "uint256",
          "name": "info",
          "type": "uint256"
        },
        {
          "indexed": false,
          "internalType": "uint256",
          "name": "detail",
          "type": "uint256"
        }
      ],
      "name": "Failure",
      "type": "event"
    },
    {
      "anonymous": false,
      "inputs": [
        {
          "indexed": false,
          "internalType": "contract LendingMarket",
          "name": "cToken",
          "type": "address"
        },
        {
          "indexed": false,
          "internalType": "address",
          "name": "account",
          "type": "address"
        }
      ],
      "name": "MarketEntered",
      "type": "event"
    },
    {
      "anonymous": false,
      "inputs": [
        {
          "indexed": false,
          "internalType": "contract LendingMarket",
          "name": "cToken",
          "type": "address"
        },
        {
          "indexed": false,
          "internalType": "address",
          "name": "account",
          "type": "address"
        }
      ],
      "name": "MarketExited",
      "type": "event"
    },
    {
      "anonymous": false,
      "inputs": [
        {
          "indexed": false,
          "internalType": "contract LendingMarket",
          "name": "cToken",
          "type": "address"
        }
      ],
      "name": "MarketListed",
      "type": "event"
    },
    {
      "anonymous": false,
      "inputs": [
        {
          "indexed": true,
          "internalType": "contract LendingMarket",
          "name": "cToken",
          "type": "address"
        },
        {
          "indexed": false,
          "internalType": "uint256",
          "name": "newBorrowCap",
          "type": "uint256"
        }
      ],
      "name": "NewBorrowCap",
      "type": "event"
    },
    {
      "anonymous": false,
      "inputs": [
        {
          "indexed": false,
          "internalType": "address",
          "name": "oldBorrowCapGuardian",
          "type": "address"
        },
        {
          "indexed": false,
          "internalType": "address",
          "name": "newBorrowCapGuardian",
          "type": "address"
        }
      ],
      "name": "NewBorrowCapGuardian",
      "type": "event"
    },
    {
      "anonymous": false,
      "inputs": [
        {
          "indexed": false,
          "internalType": "uint256",
          "name": "oldCloseFactorMantissa",
          "type": "uint256"
        },
        {
          "indexed": false,
          "internalType": "uint256",
          "name": "newCloseFactorMantissa",
          "type": "uint256"
        }
      ],
      "name": "NewCloseFactor",
      "type": "event"
    },
    {
      "anonymous": false,
      "inputs": [
        {
          "indexed": false,
          "internalType": "contract LendingMarket",
          "name": "cToken",
          "type": "address"
        },
        {
          "indexed": false,
          "internalType": "uint256",
          "name": "oldCollateralFactorMantissa",
          "type": "uint256"
        },
        {
          "indexed": false,
          "internalType": "uint256",
          "name": "newCollateralFactorMantissa",
          "type": "uint256"
        }
      ],
      "name": "NewCollateralFactor",
      "type": "event"
    },
    {
      "anonymous": false,
      "inputs": [
        {
          "indexed": false,
          "internalType": "uint256",
          "name": "oldLiquidationIncentiveMantissa",
          "type": "uint256"
        },
        {
          "indexed": false,
          "internalType": "uint256",
          "name": "newLiquidationIncentiveMantissa",
          "type": "uint256"
        }
      ],
      "name": "NewLiquidationIncentive",
      "type": "event"
    },
    {
      "anonymous": false,
      "inputs": [
        {
          "indexed": false,
          "internalType": "address",
          "name": "oldPauseGuardian",
          "type": "address"
        },
        {
          "indexed": false,
          "internalType": "address",
          "name": "newPauseGuardian",
          "type": "address"
        }
      ],
      "name": "NewPauseGuardian",
      "type": "event"
    },
    {
      "anonymous": false,
      "inputs": [
        {
          "indexed": false,
          "internalType": "contract PriceOracle",
          "name": "oldPriceOracle",
          "type": "address"
        },
        {
          "indexed": false,
          "internalType": "contract PriceOracle",
          "name": "newPriceOracle",
          "type": "address"
        }
      ],
      "name": "NewPriceOracle",
      "type": "event"
    },
    {
      "inputs": [
        {
          "internalType": "contract Unitroller",
          "name": "unitroller",
          "type": "address"
        }
      ],
      "name": "_become",
      "outputs": [],
      "stateMutability": "nonpayable",
      "type": "function"
    },
    {
      "inputs": [],
      "name": "_borrowGuardianPaused",
      "outputs": [
        {
          "internalType": "bool",
          "name": "",
          "type": "bool"
        }
      ],
      "stateMutability": "view",
      "type": "function"
    },
    {
      "inputs": [],
      "name": "_exchange",
      "outputs": [
        {
          "internalType": "address",
          "name": "",
          "type": "address"
        }
      ],
      "stateMutability": "view",
      "type": "function"
    },
    {
      "inputs": [
        {
          "internalType": "address",
          "name": "recipient",
          "type": "address"
        },
        {
          "internalType": "uint256",
          "name": "amount",
          "type": "uint256"
        }
      ],
      "name": "_grantComp",
      "outputs": [],
      "stateMutability": "nonpayable",
      "type": "function"
    },
    {
      "inputs": [],
      "name": "_mintGuardianPaused",
      "outputs": [
        {
          "internalType": "bool",
          "name": "",
          "type": "bool"
        }
      ],
      "stateMutability": "view",
      "type": "function"
    },
    {
      "inputs": [
        {
          "internalType": "address",
          "name": "newBorrowCapGuardian",
          "type": "address"
        }
      ],
      "name": "_setBorrowCapGuardian",
      "outputs": [],
      "stateMutability": "nonpayable",
      "type": "function"
    },
    {
      "inputs": [
        {
          "internalType": "contract LendingMarket",
          "name": "cToken",
          "type": "address"
        },
        {
          "internalType": "bool",
          "name": "state",
          "type": "bool"
        }
      ],
      "name": "_setBorrowPaused",
      "outputs": [
        {
          "internalType": "bool",
          "name": "",
          "type": "bool"
        }
      ],
      "stateMutability": "nonpayable",
      "type": "function"
    },
    {
      "inputs": [
        {
          "internalType": "uint256",
          "name": "newCloseFactorMantissa",
          "type": "uint256"
        }
      ],
      "name": "_setCloseFactor",
      "outputs": [
        {
          "internalType": "uint256",
          "name": "",
          "type": "uint256"
        }
      ],
      "stateMutability": "nonpayable",
      "type": "function"
    },
    {
      "inputs": [
        {
          "internalType": "contract LendingMarket",
          "name": "cToken",
          "type": "address"
        },
        {
          "internalType": "uint256",
          "name": "newCollateralFactorMantissa",
          "type": "uint256"
        }
      ],
      "name": "_setCollateralFactor",
      "outputs": [
        {
          "internalType": "uint256",
          "name": "",
          "type": "uint256"
        }
      ],
      "stateMutability": "nonpayable",
      "type": "function"
    },
    {
      "inputs": [
        {
          "internalType": "contract LendingMarket[]",
          "name": "cTokens",
          "type": "address[]"
        },
        {
          "internalType": "uint256[]",
          "name": "supplySpeeds",
          "type": "uint256[]"
        },
        {
          "internalType": "uint256[]",
          "name": "borrowSpeeds",
          "type": "uint256[]"
        }
      ],
      "name": "_setCompSpeeds",
      "outputs": [],
      "stateMutability": "nonpayable",
      "type": "function"
    },
    {
      "inputs": [
        {
          "internalType": "address",
          "name": "contributor",
          "type": "address"
        },
        {
          "internalType": "uint256",
          "name": "compSpeed",
          "type": "uint256"
        }
      ],
      "name": "_setContributorCompSpeed",
      "outputs": [],
      "stateMutability": "nonpayable",
      "type": "function"
    },
    {
      "inputs": [
        {
          "internalType": "uint256",
          "name": "newLiquidationIncentiveMantissa",
          "type": "uint256"
        }
      ],
      "name": "_setLiquidationIncentive",
      "outputs": [
        {
          "internalType": "uint256",
          "name": "",
          "type": "uint256"
        }
      ],
      "stateMutability": "nonpayable",
      "type": "function"
    },
    {
      "inputs": [
        {
          "internalType": "contract LendingMarket[]",
          "name": "cTokens",
          "type": "address[]"
        },
        {
          "internalType": "uint256[]",
          "name": "newBorrowCaps",
          "type": "uint256[]"
        }
      ],
      "name": "_setMarketBorrowCaps",
      "outputs": [],
      "stateMutability": "nonpayable",
      "type": "function"
    },
    {
      "inputs": [
        {
          "internalType": "contract LendingMarket",
          "name": "cToken",
          "type": "address"
        },
        {
          "internalType": "bool",
          "name": "state",
          "type": "bool"
        }
      ],
      "name": "_setMintPaused",
      "outputs": [
        {
          "internalType": "bool",
          "name": "",
          "type": "bool"
        }
      ],
      "stateMutability": "nonpayable",
      "type": "function"
    },
    {
      "inputs": [
        {
          "internalType": "address",
          "name": "newPauseGuardian",
          "type": "address"
        }
      ],
      "name": "_setPauseGuardian",
      "outputs": [
        {
          "internalType": "uint256",
          "name": "",
          "type": "uint256"
        }
      ],
      "stateMutability": "nonpayable",
      "type": "function"
    },
    {
      "inputs": [
        {
          "internalType": "contract PriceOracle",
          "name": "newOracle",
          "type": "address"
        }
      ],
      "name": "_setPriceOracle",
      "outputs": [
        {
          "internalType": "uint256",
          "name": "",
          "type": "uint256"
        }
      ],
      "stateMutability": "nonpayable",
      "type": "function"
    },
    {
      "inputs": [
        {
          "internalType": "bool",
          "name": "state",
          "type": "bool"
        }
      ],
      "name": "_setSeizePaused",
      "outputs": [
        {
          "internalType": "bool",
          "name": "",
          "type": "bool"
        }
      ],
      "stateMutability": "nonpayable",
      "type": "function"
    },
    {
      "inputs": [
        {
          "internalType": "bool",
          "name": "state",
          "type": "bool"
        }
      ],
      "name": "_setTransferPaused",
      "outputs": [
        {
          "internalType": "bool",
          "name": "",
          "type": "bool"
        }
      ],
      "stateMutability": "nonpayable",
      "type": "function"
    },
    {
      "inputs": [
        {
          "internalType": "contract LendingMarket",
          "name": "cToken",
          "type": "address"
        }
      ],
      "name": "_supportMarket",
      "outputs": [
        {
          "internalType": "uint256",
          "name": "",
          "type": "uint256"
        }
      ],
      "stateMutability": "nonpayable",
      "type": "function"
    },
    {
      "inputs": [
        {
          "internalType": "address",
          "name": "",
          "type": "address"
        },
        {
          "internalType": "uint256",
          "name": "",
          "type": "uint256"
        }
      ],
      "name": "accountAssets",
      "outputs": [
        {
          "internalType": "contract LendingMarket",
          "name": "",
          "type": "address"
        }
      ],
      "stateMutability": "view",
      "type": "function"
    },
    {
      "inputs": [],
      "name": "admin",
      "outputs": [
        {
          "internalType": "address",
          "name": "",
          "type": "address"
        }
      ],
      "stateMutability": "view",
      "type": "function"
    },
    {
      "inputs": [
        {
          "internalType": "uint256",
          "name": "",
          "type": "uint256"
        }
      ],
      "name": "allMarkets",
      "outputs": [
        {
          "internalType": "contract LendingMarket",
          "name": "",
          "type": "address"
        }
      ],
      "stateMutability": "view",
      "type": "function"
    },
    {
      "inputs": [
        {
          "internalType": "address",
          "name": "cToken",
          "type": "address"
        },
        {
          "internalType": "address",
          "name": "borrower",
          "type": "address"
        },
        {
          "internalType": "address",
          "name": "caller",
          "type": "address"
        },
        {
          "internalType": "uint256",
          "name": "borrowAmount",
          "type": "uint256"
        }
      ],
      "name": "borrowAllowed",
      "outputs": [
        {
          "internalType": "uint256",
          "name": "",
          "type": "uint256"
        }
      ],
      "stateMutability": "nonpayable",
      "type": "function"
    },
    {
      "inputs": [],
      "name": "borrowCapGuardian",
      "outputs": [
        {
          "internalType": "address",
          "name": "",
          "type": "address"
        }
      ],
      "stateMutability": "view",
      "type": "function"
    },
    {
      "inputs": [
        {
          "internalType": "address",
          "name": "",
          "type": "address"
        }
      ],
      "name": "borrowCaps",
      "outputs": [
        {
          "internalType": "uint256",
          "name": "",
          "type": "uint256"
        }
      ],
      "stateMutability": "view",
      "type": "function"
    },
    {
      "inputs": [
        {
          "internalType": "address",
          "name": "",
          "type": "address"
        }
      ],
      "name": "borrowGuardianPaused",
      "outputs": [
        {
          "internalType": "bool",
          "name": "",
          "type": "bool"
        }
      ],
      "stateMutability": "view",
      "type": "function"
    },
    {
      "inputs": [
        {
          "internalType": "address",
          "name": "cToken",
          "type": "address"
        },
        {
          "internalType": "address",
          "name": "borrower",
          "type": "address"
        },
        {
          "internalType": "uint256",
          "name": "borrowAmount",
          "type": "uint256"
        }
      ],
      "name": "borrowVerify",
      "outputs": [],
      "stateMutability": "nonpayable",
      "type": "function"
    },
    {
      "inputs": [
        {
          "internalType": "address",
          "name": "account",
          "type": "address"
        },
        {
          "internalType": "contract LendingMarket",
          "name": "cToken",
          "type": "address"
        }
      ],
      "name": "checkMembership",
      "outputs": [
        {
          "internalType": "bool",
          "name": "",
          "type": "bool"
        }
      ],
      "stateMutability": "view",
      "type": "function"
    },
    {
      "inputs": [
        {
          "internalType": "address",
          "name": "holder",
          "type": "address"
        },
        {
          "internalType": "contract LendingMarket[]",
          "name": "cTokens",
          "type": "address[]"
        }
      ],
      "name": "claimComp",
      "outputs": [],
      "stateMutability": "nonpayable",
      "type": "function"
    },
    {
      "inputs": [
        {
          "internalType": "address[]",
          "name": "holders",
          "type": "address[]"
        },
        {
          "internalType": "contract LendingMarket[]",
          "name": "cTokens",
          "type": "address[]"
        },
        {
          "internalType": "bool",
          "name": "borrowers",
          "type": "bool"
        },
        {
          "internalType": "bool",
          "name": "suppliers",
          "type": "bool"
        }
      ],
      "name": "claimComp",
      "outputs": [],
      "stateMutability": "nonpayable",
      "type": "function"
    },
    {
      "inputs": [
        {
          "internalType": "address",
          "name": "holder",
          "type": "address"
        }
      ],
      "name": "claimComp",
      "outputs": [],
      "stateMutability": "nonpayable",
      "type": "function"
    },
    {
      "inputs": [],
      "name": "closeFactorMantissa",
      "outputs": [
        {
          "internalType": "uint256",
          "name": "",
          "type": "uint256"
        }
      ],
      "stateMutability": "view",
      "type": "function"
    },
    {
      "inputs": [
        {
          "internalType": "address",
          "name": "",
          "type": "address"
        }
      ],
      "name": "compAccrued",
      "outputs": [
        {
          "internalType": "uint256",
          "name": "",
          "type": "uint256"
        }
      ],
      "stateMutability": "view",
      "type": "function"
    },
    {
      "inputs": [
        {
          "internalType": "address",
          "name": "",
          "type": "address"
        }
      ],
      "name": "compBorrowSpeeds",
      "outputs": [
        {
          "internalType": "uint256",
          "name": "",
          "type": "uint256"
        }
      ],
      "stateMutability": "view",
      "type": "function"
    },
    {
      "inputs": [
        {
          "internalType": "address",
          "name": "",
          "type": "address"
        }
      ],
      "name": "compBorrowState",
      "outputs": [
        {
          "internalType": "uint224",
          "name": "index",
          "type": "uint224"
        },
        {
          "internalType": "uint32",
          "name": "block",
          "type": "uint32"
        }
      ],
      "stateMutability": "view",
      "type": "function"
    },
    {
      "inputs": [
        {
          "internalType": "address",
          "name": "",
          "type": "address"
        },
        {
          "internalType": "address",
          "name": "",
          "type": "address"
        }
      ],
      "name": "compBorrowerIndex",
      "outputs": [
        {
          "internalType": "uint256",
          "name": "",
          "type": "uint256"
        }
      ],
      "stateMutability": "view",
      "type": "function"
    },
    {
      "inputs": [
        {
          "internalType": "address",
          "name": "",
          "type": "address"
        }
      ],
      "name": "compContributorSpeeds",
      "outputs": [
        {
          "internalType": "uint256",
          "name": "",
          "type": "uint256"
        }
      ],
      "stateMutability": "view",
      "type": "function"
    },
    {
      "inputs": [],
      "name": "compInitialIndex",
      "outputs": [
        {
          "internalType": "uint224",
          "name": "",
          "type": "uint224"
        }
      ],
      "stateMutability": "view",
      "type": "function"
    },
    {
      "inputs": [
        {
          "internalType": "address",
          "name": "",
          "type": "address"
        },
        {
          "internalType": "address",
          "name": "",
          "type": "address"
        }
      ],
      "name": "compSupplierIndex",
      "outputs": [
        {
          "internalType": "uint256",
          "name": "",
          "type": "uint256"
        }
      ],
      "stateMutability": "view",
      "type": "function"
    },
    {
      "inputs": [
        {
          "internalType": "address",
          "name": "",
          "type": "address"
        }
      ],
      "name": "compSupplySpeeds",
      "outputs": [
        {
          "internalType": "uint256",
          "name": "",
          "type": "uint256"
        }
      ],
      "stateMutability": "view",
      "type": "function"
    },
    {
      "inputs": [
        {
          "internalType": "address",
          "name": "",
          "type": "address"
        }
      ],
      "name": "compSupplyState",
      "outputs": [
        {
          "internalType": "uint224",
          "name": "index",
          "type": "uint224"
        },
        {
          "internalType": "uint32",
          "name": "block",
          "type": "uint32"
        }
      ],
      "stateMutability": "view",
      "type": "function"
    },
    {
      "inputs": [],
      "name": "comptrollerImplementation",
      "outputs": [
        {
          "internalType": "address",
          "name": "",
          "type": "address"
        }
      ],
      "stateMutability": "view",
      "type": "function"
    },
    {
      "inputs": [
        {
          "internalType": "address",
          "name": "asset",
          "type": "address"
        },
        {
          "internalType": "address",
          "name": "from",
          "type": "address"
        },
        {
          "internalType": "uint256",
          "name": "amount",
          "type": "uint256"
        }
      ],
      "name": "doTransferIn",
      "outputs": [
        {
          "internalType": "uint256",
          "name": "",
          "type": "uint256"
        }
      ],
      "stateMutability": "nonpayable",
      "type": "function"
    },
    {
      "inputs": [
        {
          "internalType": "address",
          "name": "asset",
          "type": "address"
        },
        {
          "internalType": "address payable",
          "name": "to",
          "type": "address"
        },
        {
          "internalType": "uint256",
          "name": "amount",
          "type": "uint256"
        }
      ],
      "name": "doTransferOut",
      "outputs": [],
      "stateMutability": "nonpayable",
      "type": "function"
    },
    {
      "inputs": [
        {
          "internalType": "address[]",
          "name": "cTokens",
          "type": "address[]"
        }
      ],
      "name": "enterMarkets",
      "outputs": [
        {
          "internalType": "uint256[]",
          "name": "",
          "type": "uint256[]"
        }
      ],
      "stateMutability": "nonpayable",
      "type": "function"
    },
    {
      "inputs": [],
      "name": "exchange",
      "outputs": [
        {
          "internalType": "address",
          "name": "",
          "type": "address"
        }
      ],
      "stateMutability": "view",
      "type": "function"
    },
    {
      "inputs": [
        {
          "internalType": "address",
          "name": "cTokenAddress",
          "type": "address"
        }
      ],
      "name": "exitMarket",
      "outputs": [
        {
          "internalType": "uint256",
          "name": "",
          "type": "uint256"
        }
      ],
      "stateMutability": "nonpayable",
      "type": "function"
    },
    {
      "inputs": [
        {
          "internalType": "address",
          "name": "account",
          "type": "address"
        }
      ],
      "name": "getAccountLiquidity",
      "outputs": [
        {
          "internalType": "uint256",
          "name": "",
          "type": "uint256"
        },
        {
          "internalType": "uint256",
          "name": "",
          "type": "uint256"
        },
        {
          "internalType": "uint256",
          "name": "",
          "type": "uint256"
        }
      ],
      "stateMutability": "view",
      "type": "function"
    },
    {
      "inputs": [],
      "name": "getAllMarkets",
      "outputs": [
        {
          "internalType": "contract LendingMarket[]",
          "name": "",
          "type": "address[]"
        }
      ],
      "stateMutability": "view",
      "type": "function"
    },
    {
      "inputs": [
        {
          "internalType": "address",
          "name": "account",
          "type": "address"
        }
      ],
      "name": "getAssetsIn",
      "outputs": [
        {
          "internalType": "contract LendingMarket[]",
          "name": "",
          "type": "address[]"
        }
      ],
      "stateMutability": "view",
      "type": "function"
    },
    {
      "inputs": [],
      "name": "getBlockNumber",
      "outputs": [
        {
          "internalType": "uint256",
          "name": "",
          "type": "uint256"
        }
      ],
      "stateMutability": "view",
      "type": "function"
    },
    {
      "inputs": [
        {
          "internalType": "address",
          "name": "account",
          "type": "address"
        },
        {
          "internalType": "address",
          "name": "cTokenModify",
          "type": "address"
        },
        {
          "internalType": "uint256",
          "name": "redeemTokens",
          "type": "uint256"
        },
        {
          "internalType": "uint256",
          "name": "borrowAmount",
          "type": "uint256"
        }
      ],
      "name": "getHypotheticalAccountLiquidity",
      "outputs": [
        {
          "internalType": "uint256",
          "name": "",
          "type": "uint256"
        },
        {
          "internalType": "uint256",
          "name": "",
          "type": "uint256"
        },
        {
          "internalType": "uint256",
          "name": "",
          "type": "uint256"
        }
      ],
      "stateMutability": "view",
      "type": "function"
    },
    {
      "inputs": [
        {
          "internalType": "address[]",
          "name": "holders",
          "type": "address[]"
        },
        {
          "internalType": "bool",
          "name": "borrowers",
          "type": "bool"
        },
        {
          "internalType": "bool",
          "name": "suppliers",
          "type": "bool"
        }
      ],
      "name": "getRewardBalance",
      "outputs": [
        {
          "internalType": "uint256",
          "name": "totalCompAccrued",
          "type": "uint256"
        }
      ],
      "stateMutability": "nonpayable",
      "type": "function"
    },
    {
      "inputs": [],
      "name": "isComptroller",
      "outputs": [
        {
          "internalType": "bool",
          "name": "",
          "type": "bool"
        }
      ],
      "stateMutability": "view",
      "type": "function"
    },
    {
      "inputs": [
        {
          "internalType": "contract LendingMarket",
          "name": "cToken",
          "type": "address"
        }
      ],
      "name": "isDeprecated",
      "outputs": [
        {
          "internalType": "bool",
          "name": "",
          "type": "bool"
        }
      ],
      "stateMutability": "view",
      "type": "function"
    },
    {
      "inputs": [
        {
          "internalType": "address",
          "name": "",
          "type": "address"
        }
      ],
      "name": "lastContributorBlock",
      "outputs": [
        {
          "internalType": "uint256",
          "name": "",
          "type": "uint256"
        }
      ],
      "stateMutability": "view",
      "type": "function"
    },
    {
      "inputs": [
        {
          "internalType": "address",
          "name": "cTokenBorrowed",
          "type": "address"
        },
        {
          "internalType": "address",
          "name": "cTokenCollateral",
          "type": "address"
        },
        {
          "internalType": "address",
          "name": "liquidator",
          "type": "address"
        },
        {
          "internalType": "address",
          "name": "borrower",
          "type": "address"
        },
        {
          "internalType": "address",
          "name": "caller",
          "type": "address"
        },
        {
          "internalType": "uint256",
          "name": "repayAmount",
          "type": "uint256"
        }
      ],
      "name": "liquidateBorrowAllowed",
      "outputs": [
        {
          "internalType": "uint256",
          "name": "",
          "type": "uint256"
        }
      ],
      "stateMutability": "view",
      "type": "function"
    },
    {
      "inputs": [
        {
          "internalType": "address",
          "name": "cTokenBorrowed",
          "type": "address"
        },
        {
          "internalType": "address",
          "name": "cTokenCollateral",
          "type": "address"
        },
        {
          "internalType": "address",
          "name": "liquidator",
          "type": "address"
        },
        {
          "internalType": "address",
          "name": "borrower",
          "type": "address"
        },
        {
          "internalType": "uint256",
          "name": "actualRepayAmount",
          "type": "uint256"
        },
        {
          "internalType": "uint256",
          "name": "seizeTokens",
          "type": "uint256"
        }
      ],
      "name": "liquidateBorrowVerify",
      "outputs": [],
      "stateMutability": "nonpayable",
      "type": "function"
    },
    {
      "inputs": [
        {
          "internalType": "address",
          "name": "cTokenBorrowed",
          "type": "address"
        },
        {
          "internalType": "address",
          "name": "cTokenCollateral",
          "type": "address"
        },
        {
          "internalType": "uint256",
          "name": "actualRepayAmount",
          "type": "uint256"
        }
      ],
      "name": "liquidateCalculateSeizeTokens",
      "outputs": [
        {
          "internalType": "uint256",
          "name": "",
          "type": "uint256"
        },
        {
          "internalType": "uint256",
          "name": "",
          "type": "uint256"
        }
      ],
      "stateMutability": "view",
      "type": "function"
    },
    {
      "inputs": [],
      "name": "liquidationIncentiveMantissa",
      "outputs": [
        {
          "internalType": "uint256",
          "name": "",
          "type": "uint256"
        }
      ],
      "stateMutability": "view",
      "type": "function"
    },
    {
      "inputs": [
        {
          "internalType": "address",
          "name": "",
          "type": "address"
        }
      ],
      "name": "markets",
      "outputs": [
        {
          "internalType": "bool",
          "name": "isListed",
          "type": "bool"
        },
        {
          "internalType": "uint256",
          "name": "collateralFactorMantissa",
          "type": "uint256"
        }
      ],
      "stateMutability": "view",
      "type": "function"
    },
    {
      "inputs": [],
      "name": "maxAssets",
      "outputs": [
        {
          "internalType": "uint256",
          "name": "",
          "type": "uint256"
        }
      ],
      "stateMutability": "view",
      "type": "function"
    },
    {
      "inputs": [
        {
          "internalType": "address",
          "name": "cToken",
          "type": "address"
        },
        {
          "internalType": "address",
          "name": "minter",
          "type": "address"
        },
        {
          "internalType": "address",
          "name": "caller",
          "type": "address"
        },
        {
          "internalType": "uint256",
          "name": "mintAmount",
          "type": "uint256"
        }
      ],
      "name": "mintAllowed",
      "outputs": [
        {
          "internalType": "uint256",
          "name": "",
          "type": "uint256"
        }
      ],
      "stateMutability": "nonpayable",
      "type": "function"
    },
    {
      "inputs": [
        {
          "internalType": "address",
          "name": "",
          "type": "address"
        }
      ],
      "name": "mintGuardianPaused",
      "outputs": [
        {
          "internalType": "bool",
          "name": "",
          "type": "bool"
        }
      ],
      "stateMutability": "view",
      "type": "function"
    },
    {
      "inputs": [
        {
          "internalType": "address",
          "name": "cToken",
          "type": "address"
        },
        {
          "internalType": "address",
          "name": "minter",
          "type": "address"
        },
        {
          "internalType": "uint256",
          "name": "actualMintAmount",
          "type": "uint256"
        },
        {
          "internalType": "uint256",
          "name": "mintTokens",
          "type": "uint256"
        }
      ],
      "name": "mintVerify",
      "outputs": [],
      "stateMutability": "nonpayable",
      "type": "function"
    },
    {
      "inputs": [],
      "name": "oracle",
      "outputs": [
        {
          "internalType": "contract PriceOracle",
          "name": "",
          "type": "address"
        }
      ],
      "stateMutability": "view",
      "type": "function"
    },
    {
      "inputs": [],
      "name": "pauseGuardian",
      "outputs": [
        {
          "internalType": "address",
          "name": "",
          "type": "address"
        }
      ],
      "stateMutability": "view",
      "type": "function"
    },
    {
      "inputs": [],
      "name": "pendingAdmin",
      "outputs": [
        {
          "internalType": "address",
          "name": "",
          "type": "address"
        }
      ],
      "stateMutability": "view",
      "type": "function"
    },
    {
      "inputs": [],
      "name": "pendingComptrollerImplementation",
      "outputs": [
        {
          "internalType": "address",
          "name": "",
          "type": "address"
        }
      ],
      "stateMutability": "view",
      "type": "function"
    },
    {
      "inputs": [
        {
          "internalType": "address",
          "name": "cToken",
          "type": "address"
        },
        {
          "internalType": "address",
          "name": "redeemer",
          "type": "address"
        },
        {
          "internalType": "address",
          "name": "caller",
          "type": "address"
        },
        {
          "internalType": "uint256",
          "name": "redeemTokens",
          "type": "uint256"
        }
      ],
      "name": "redeemAllowed",
      "outputs": [
        {
          "internalType": "uint256",
          "name": "",
          "type": "uint256"
        }
      ],
      "stateMutability": "nonpayable",
      "type": "function"
    },
    {
      "inputs": [
        {
          "internalType": "address",
          "name": "cToken",
          "type": "address"
        },
        {
          "internalType": "address",
          "name": "redeemer",
          "type": "address"
        },
        {
          "internalType": "uint256",
          "name": "redeemAmount",
          "type": "uint256"
        },
        {
          "internalType": "uint256",
          "name": "redeemTokens",
          "type": "uint256"
        }
      ],
      "name": "redeemVerify",
      "outputs": [],
      "stateMutability": "pure",
      "type": "function"
    },
    {
      "inputs": [
        {
          "internalType": "address",
          "name": "cToken",
          "type": "address"
        },
        {
          "internalType": "address",
          "name": "payer",
          "type": "address"
        },
        {
          "internalType": "address",
          "name": "borrower",
          "type": "address"
        },
        {
          "internalType": "address",
          "name": "caller",
          "type": "address"
        },
        {
          "internalType": "uint256",
          "name": "repayAmount",
          "type": "uint256"
        }
      ],
      "name": "repayBorrowAllowed",
      "outputs": [
        {
          "internalType": "uint256",
          "name": "",
          "type": "uint256"
        }
      ],
      "stateMutability": "nonpayable",
      "type": "function"
    },
    {
      "inputs": [
        {
          "internalType": "address",
          "name": "cToken",
          "type": "address"
        },
        {
          "internalType": "address",
          "name": "payer",
          "type": "address"
        },
        {
          "internalType": "address",
          "name": "borrower",
          "type": "address"
        },
        {
          "internalType": "uint256",
          "name": "actualRepayAmount",
          "type": "uint256"
        },
        {
          "internalType": "uint256",
          "name": "borrowerIndex",
          "type": "uint256"
        }
      ],
      "name": "repayBorrowVerify",
      "outputs": [],
      "stateMutability": "nonpayable",
      "type": "function"
    },
    {
      "inputs": [
        {
          "internalType": "address",
          "name": "cTokenCollateral",
          "type": "address"
        },
        {
          "internalType": "address",
          "name": "cTokenBorrowed",
          "type": "address"
        },
        {
          "internalType": "address",
          "name": "liquidator",
          "type": "address"
        },
        {
          "internalType": "address",
          "name": "borrower",
          "type": "address"
        },
        {
          "internalType": "uint256",
          "name": "seizeTokens",
          "type": "uint256"
        }
      ],
      "name": "seizeAllowed",
      "outputs": [
        {
          "internalType": "uint256",
          "name": "",
          "type": "uint256"
        }
      ],
      "stateMutability": "nonpayable",
      "type": "function"
    },
    {
      "inputs": [],
      "name": "seizeGuardianPaused",
      "outputs": [
        {
          "internalType": "bool",
          "name": "",
          "type": "bool"
        }
      ],
      "stateMutability": "view",
      "type": "function"
    },
    {
      "inputs": [
        {
          "internalType": "address",
          "name": "cTokenCollateral",
          "type": "address"
        },
        {
          "internalType": "address",
          "name": "cTokenBorrowed",
          "type": "address"
        },
        {
          "internalType": "address",
          "name": "liquidator",
          "type": "address"
        },
        {
          "internalType": "address",
          "name": "borrower",
          "type": "address"
        },
        {
          "internalType": "uint256",
          "name": "seizeTokens",
          "type": "uint256"
        }
      ],
      "name": "seizeVerify",
      "outputs": [],
      "stateMutability": "nonpayable",
      "type": "function"
    },
    {
      "inputs": [
        {
          "internalType": "address",
          "name": "cToken",
          "type": "address"
        },
        {
          "internalType": "address",
          "name": "src",
          "type": "address"
        },
        {
          "internalType": "address",
          "name": "dst",
          "type": "address"
        },
        {
          "internalType": "uint256",
          "name": "transferTokens",
          "type": "uint256"
        }
      ],
      "name": "transferAllowed",
      "outputs": [
        {
          "internalType": "uint256",
          "name": "",
          "type": "uint256"
        }
      ],
      "stateMutability": "nonpayable",
      "type": "function"
    },
    {
      "inputs": [],
      "name": "transferGuardianPaused",
      "outputs": [
        {
          "internalType": "bool",
          "name": "",
          "type": "bool"
        }
      ],
      "stateMutability": "view",
      "type": "function"
    },
    {
      "inputs": [
        {
          "internalType": "address",
          "name": "cToken",
          "type": "address"
        },
        {
          "internalType": "address",
          "name": "src",
          "type": "address"
        },
        {
          "internalType": "address",
          "name": "dst",
          "type": "address"
        },
        {
          "internalType": "uint256",
          "name": "transferTokens",
          "type": "uint256"
        }
      ],
      "name": "transferVerify",
      "outputs": [],
      "stateMutability": "nonpayable",
      "type": "function"
    },
    {
      "inputs": [
        {
          "internalType": "address",
          "name": "contributor",
          "type": "address"
        }
      ],
      "name": "updateContributorRewards",
      "outputs": [],
      "stateMutability": "nonpayable",
      "type": "function"
    },
    {
      "inputs": [],
      "name": "zexe",
      "outputs": [
        {
          "internalType": "contract ZEXE",
          "name": "",
          "type": "address"
        }
      ],
      "stateMutability": "view",
      "type": "function"
    }
  ],
  "bytecode": "0x6080346200009b57601f6200590d38819003918201601f19168301916001600160401b03831184841017620000a05780849260409485528339810103126200009b5780516001600160a01b0391828216918290036200009b57602001519182168092036200009b5760018060a01b0319903382600054161760005581600454161760045560065416176006556040516158569081620000b78239f35b600080fd5b634e487b7160e01b600052604160045260246000fdfe608060408181526004918236101561001657600080fd5b600092833560e01c9182627e3dd2146123ec575081630874a021146123cc57816318c882a5146122ce5781631c3db2e0146122935781631d504dc6146121105781631ededc91146120e457816321af4569146120bb57816324a3d62214612092578163267822471461206957816327efe3cb14611f675781632c24dc9c14611f485781632d70db7814611e7a5781633073f59714611e5d578163317b0b7714611db2578163391957d714611cd25781633bcf7ec114611bd95781633c94786f14611bb257816341c728b914611ba35781634220563414611b4457816342cbb15c14611b29578163467050f914611b0057816347ef3b3b14611ac75781634a58443214611a8f5781634ada90af14611a705781634d697d6d14611a515781634e79238f14611a2c5781634fd42e1714611a0c57816351dff989146119a657816352d84d1e1461194f57816355ee1fe11461191e578163598ee1cb146118735781635c7786051461185e5781635ec88c79146118015781635f5af1aa146117db578163607ef6c11461162c5781636810dfa6146113645781636a56947e1461134e5781636aa875b5146113165781636b79c38d146112bd5781636d154ea51461127f5781636d35bf9114611268578163731f0c2b1461122a578163741b2525146112085781637dc0d1d0146111df57816387f76303146111b85781638c57804e1461115f5781638e8f294b146111185781638ebf636414611047578163929fe9a114610ff757816394543c1514610fc857816394b2294b14610fa9578163986ab83814610f71578163a76b3fda14610f4b578163a7f0e23114610f22578163a8b4394814610c54578163abfceffc14610c19578163ac0b0bb714610bf2578163b0772d0b14610bc5578163b21be7fd14610b7c578163b9780f33146107a3578163bb82aa5e14610b53578163bdcdc25814610b34578163bea6b8b814610afc578163c2998238146109ec578163c37f7f7f14610947578163c488847b14610921578163c66c253614610871578163ca0af04314610823578163cc7ebdc4146107eb578163d02f7351146107cb578163d2f7265a146107a3578163dce154491461074a578163dcfbc0c714610721578163e4028eee146106f8578163e45bd55e146104a157508063e6653f3d1461047b578063e87554461461045d578063e9af02921461042c578063ede4edd014610400578063f4a433c0146103c95763f851a4401461039f57600080fd5b346103c557816003193601126103c557905490516001600160a01b039091168152602090f35b5080fd5b50346103c55760203660031901126103c55760209181906001600160a01b036103f0612407565b1681526017845220549051908152f35b50346103c55760203660031901126103c557602090610425610420612407565b612a2b565b9051908152f35b823461045a57602036600319011261045a57610457610449612407565b6104516127cf565b90615381565b80f35b80fd5b50346103c557816003193601126103c5576020906007549051908152f35b50346103c557816003193601126103c55760209060ff600c5460a81c1690519015158152f35b8383346103c55760603660031901126103c55782356001600160401b0381116106f4576104d1903690850161257b565b916104da6124ae565b906104e36124cc565b938194829360019788958680809415151494151514925b610562575b5050505081925b610515575b6020858551908152f35b909193815185101561055c576105549061054e906001600160a01b0361053b88866128c4565b51168552601660205285852054906131c7565b9461289f565b919085610506565b9361050b565b600f9693949596548110156106ea578461057b82612663565b90546001600160a01b0360039290921b1c81169161060c575b846105af575b50506105a59061289f565b83969594936104fa565b6105b882614c3e565b88865b6105c6575b5061059a565b88969192939495965181101561060157806105f0846105e86105f5948d6128c4565b511686615030565b61289f565b819695949392916105bb565b8196959493506105c0565b909192939450885163aa5af0fd60e01b815260209081818781875afa9182156106e0578a926106ad575b505089518c96959493929161064a826124db565b81526106568184614ee9565b89875b610665575b5050610594565b898098929394959697985182101561069f57906105f0848661068a84610692966128c4565b511688615191565b8197969594939291610659565b50819796959493925061065e565b90809250813d83116106d9575b6106c48183612543565b810103126106d457518c80610636565b600080fd5b503d6106ba565b8b513d8c823e3d90fd5b83969594506104ff565b8280fd5b5050346103c557806003193601126103c557602090610425610718612407565b6024359061464e565b5050346103c557816003193601126103c55760035490516001600160a01b039091168152602090f35b5050346103c557806003193601126103c557610764612407565b6001600160a01b039081168352600a6020528183208054602435949085101561045a5750602093610794916126b0565b92905490519260031b1c168152f35b9050346106f457826003193601126106f4575490516001600160a01b03909116815260209150f35b5050346103c5576020906104256107e13661245f565b50929190916134d8565b5050346103c55760203660031901126103c55760209181906001600160a01b03610813612407565b1681526016845220549051908152f35b5050346103c557806003193601126103c557602091610840612407565b8261084961241d565b6001600160a01b03928316845260158652922091166000908152908352819020549051908152f35b919050346106f45760603660031901126106f45761088d612407565b6024356001600160a01b03818116949286928690036106f4578184541690813b1561091d578360649287519889958694636336129b60e11b86521688850152602484015260443560448401525af18015610913576108e9578380f35b6001600160401b0383116109005750523880808380f35b634e487b7160e01b845260419052602483fd5b82513d86823e3d90fd5b8380fd5b82843461045a575061093b610935366126c8565b9161439d565b82519182526020820152f35b919050346106f457602083606461095d366126c8565b8754875163c37f7f7f60e01b81526001600160a01b039485169981019990995291831660248901526044880152869384929091165af19182156109e25783926109ab575b6020838351908152f35b9091506020813d82116109da575b816109c660209383612543565b810103126106f457602092505190386109a1565b3d91506109b9565b81513d85823e3d90fd5b839150346103c5576020806003193601126106f45781356001600160401b03811161091d578284610a2187933690840161257b565b91825190610a2e82612564565b91610a3b86519384612543565b808352610a4781612564565b8388019590601f1901368737845b828110610a9b575050505083519485948186019282875251809352850193925b828110610a8457505050500390f35b835185528695509381019392810192600101610a75565b9697959693959493610ac0336001600160a01b03610ab984866128c4565b51166128d8565b6012811015610ae95790610ade91610ad8828a6128c4565b5261289f565b979695939497610a55565b634e487b7160e01b865260218552602486fd5b5050346103c55760203660031901126103c55760209181906001600160a01b03610b24612407565b168152601a845220549051908152f35b5050346103c557602090610425610b4a366125e9565b9291909161364d565b5050346103c557816003193601126103c55760025490516001600160a01b039091168152602090f35b5050346103c557806003193601126103c55780602092610b9a612407565b610ba261241d565b6001600160a01b0391821683526014865283832091168252845220549051908152f35b5050346103c557816003193601126103c557610bee90610be36127cf565b90519182918261278b565b0390f35b5050346103c557816003193601126103c55760209060ff600c5460b81c1690519015158152f35b5050346103c55760203660031901126103c557610bee91610be39082906001600160a01b03610c46612407565b168152600a60205220612847565b9050346106f45760603660031901126106f4576001600160401b03918135838111610f1e57610c86903690840161257b565b926024918235828111610f1a57610ca0903690860161272d565b936044928335908111610f1657610cba903690830161272d565b610cca610cc56156bf565b6156e5565b8651968651881480610f0c575b15610eb957885b888110610ce9578980f35b6001600160a01b03610cfb82846128c4565b511690610d08818a6128c4565b51918b610d1583876128c4565b519382825260ff89602093600b855220541615610e78578d82849283835260188083528c828186205403610e33575b50505050528c6017808352858a83205403610d6d575b50505050610d68915061289f565b610cde565b895163aa5af0fd60e01b815283818b81885afa908115610e2957908392918c9491610dec575b50928792610d689892610dd67f20af8e791cc98f74b2d7a391c80980ca8e5aebf3d4060bf581997b6acae2e5379796845190610dce826124db565b815289614ee9565b878252855220558951908152a238808c81610d5a565b858095508199949692503d8311610e22575b610e088183612543565b8101031261091d579551909591928a929091610d68610d93565b503d610dfe565b8b513d85823e3d90fd5b7fdeafccd0c0b768b2529f7dcbbe58e155d6023059150b7490ed4535cc3744b92d948392610e6088614c3e565b878252855220558b51908152a2818d8238808c610d44565b885162461bcd60e51b81528089018390526019818d01527f636f6d70206d61726b6574206973206e6f74206c697374656400000000000000818c0152606490fd5b835162461bcd60e51b81526020818501526029818801527f436f6d7074726f6c6c65723a3a5f736574436f6d7053706565647320696e766181870152681b1a59081a5b9c1d5d60ba1b6064820152608490fd5b5081518814610cd7565b8780fd5b8680fd5b8480fd5b5050346103c557816003193601126103c557602090516a0c097ce7bc90715b34b9f160241b8152f35b5050346103c55760203660031901126103c557602090610425610f6c612407565b6148ae565b5050346103c55760203660031901126103c55760209181906001600160a01b03610f99612407565b1681526019845220549051908152f35b5050346103c557816003193601126103c5576020906009549051908152f35b5050346103c55760203660031901126103c557602090610fee610fe9612407565b615731565b90519015158152f35b5050346103c557806003193601126103c55760ff81602093611017612407565b6001600160a01b038061102861241d565b168352600b875260028484200191168252855220541690519015158152f35b5050346103c55760203660031901126103c557906020916110666124bd565b600c54926001600160a01b03903382861614801561110c575b61108890614b9d565b541633148015611100575b61109c90614bf9565b15159160ff60b01b8360b01b169060ff60b01b191617600c557f27ee2b767de43e8b48d1666d8c451a273fbf857e760fda6e95d0d582f68534bc60808251838152600884820152672a3930b739b332b960c11b60608201528486820152a151908152f35b50801515600114611093565b5080548216331461107f565b5050346103c55760203660031901126103c5579081906001600160a01b0361113e612407565b168152600b60205220600160ff825416910154825191151582526020820152f35b5050346103c55760203660031901126103c557610bee9181906001600160a01b03611188612407565b168152601360209081529190205491516001600160e01b038316815260e09290921c908201529081906040820190565b5050346103c557816003193601126103c55760209060ff600c5460b01c1690519015158152f35b5050346103c557816003193601126103c55760055490516001600160a01b039091168152602090f35b833461045a57602036600319011261045a57610457611225612407565b6152f9565b5050346103c55760203660031901126103c55760209160ff9082906001600160a01b03611255612407565b168152600d855220541690519015158152f35b833461045a576112773661245f565b505050505080f35b5050346103c55760203660031901126103c55760209160ff9082906001600160a01b036112aa612407565b168152600e855220541690519015158152f35b5050346103c55760203660031901126103c557610bee9181906001600160a01b036112e6612407565b168152601260209081529190205491516001600160e01b038316815260e09290921c908201529081906040820190565b5050346103c55760203660031901126103c55760209181906001600160a01b0361133e612407565b1681526018845220549051908152f35b833461045a5761135d366125e9565b5050505080f35b9050346106f45760803660031901126106f4576001600160401b03918135838111610f1e57611396903690840161257b565b916024938435908111611628576113b0903690830161257b565b906113b96124cc565b90606491823596871515809803611624578897600197969594939088149215158814885b611463575b50505050505090918381949550905b6113f9578480f35b825181101561145f57611459906001600160a01b038061141983876128c4565b51168161142684886128c4565b51168852601690611440602091838352878b2054906155ce565b9261144b85896128c4565b51168952528387205561289f565b836113f1565b8480f35b85518b101561161f576001600160a01b039a8b61148082896128c4565b51169b8c8c528b60ff8a602092600b8452205416156115e75783611520575b509b8a9b9c869b9798999a9b6114c7575b50506114bb9061289f565b9a9998979695946113dd565b878e6114d284614c3e565b905b6114df575b506114b0565b8c809992939495969798995182101561151257906105f0846105e883611504956128c4565b8198979695949392916114d4565b5081989796959493506114d9565b84818f8c519283809263aa5af0fd60e01b82525afa9182156115db57908f92918f926115a4575b5050611562908b5192839161155b836124db565b8252614ee9565b8c8c5b611570575b5061149f565b8b5181101561159f576115998f916105f08f938f90876115918589946128c4565b511690615191565b90611565565b61156a565b8193508092503d83116115d4575b6115bc8183612543565b810103126115d057518d9061156238611547565b8c80fd5b503d6115b2565b8e8c51903d90823e3d90fd5b846015878a938d519362461bcd60e51b8552840152820152741b585c9ad95d081b5d5cdd081899481b1a5cdd1959605a1b6044820152fd5b6113e2565b8880fd5b8580fd5b919050346106f457806003193601126106f4576001600160401b03918035838111610f1e5761165e90369083016126fd565b90936024359081116116285761167790369084016126fd565b909160018060a01b039384885416331480156117ce575b1561176d5781151580611764575b156117315750865b8181106116af578780f35b806116be61172c928587614a7d565b35866116d36116ce84878d614a7d565b614a8d565b168a5260209060118252888b20557f6f1951b2aad10f3fc81b86d91105b413a5b3f847a34bbc5ce1904201b14438f66117106116ce84878d614a7d565b918861171d85898b614a7d565b35938b519485521692a261289f565b6116a4565b606490602087519162461bcd60e51b8352820152600d60248201526c1a5b9d985b1a59081a5b9c1d5d609a1b6044820152fd5b5082821461169c565b608490602087519162461bcd60e51b8352820152603560248201527f6f6e6c792061646d696e206f7220626f72726f772063617020677561726469616044820152746e2063616e2073657420626f72726f77206361707360581b6064820152fd5b508460105416331461168e565b5050346103c55760203660031901126103c5576020906104256117fc612407565b614aa1565b8383346103c55760203660031901126103c55761182461181f612407565b6136be565b91929093601284101561184b57505191825260208201929092526040810191909152606090f35b634e487b7160e01b815260218652602490fd5b833461045a5761186d366126c8565b50505080f35b5050346103c557806003193601126103c5577f386537fa92edc3319af95f1f904dcf1900021e4f3f4e08169a577a09076e66b360206118b0612407565b602435906118bf610cc56156bf565b6118c8816152f9565b81611903576001600160a01b0381168652601a83528486208690555b6001600160a01b0316808652601983528486208290559351908152a280f35b6001600160a01b0381168652601a83528486204390556118e4565b9050346106f45760203660031901126106f45735916001600160a01b038316830361045a57506104256020926145b8565b9050346106f45760203660031901126106f45735600f548110156106f457600f6020935260018060a01b03907f8d1108e10bcb7c27dddfc02ed9d693a074039d026cf4ea4240b40f7d581ac8020154169051908152f35b919050346106f4576119b73661262a565b159250905081611a02575b506119cb578280f35b906020606492519162461bcd60e51b8352820152601160248201527072656465656d546f6b656e73207a65726f60781b6044820152fd5b90501515386119c2565b82843461045a57602036600319011261045a57506104256020923561481b565b8383346103c557611824611a3f3661262a565b9290916001600160a01b031690614043565b5050346103c557602090610425611a67366125e9565b92919091612e5c565b5050346103c557816003193601126103c5576020906008549051908152f35b5050346103c55760203660031901126103c55760209181906001600160a01b03611ab7612407565b1681526011845220549051908152f35b833461045a5760c036600319011261045a57611ae1612407565b50611aea61241d565b50611af3612433565b50611afc612449565b5080f35b5050346103c557816003193601126103c55760065490516001600160a01b039091168152602090f35b5050346103c557816003193601126103c55760209051438152f35b5050346103c55760c03660031901126103c557611b5f612407565b91611b6861241d565b611b70612433565b50611b79612449565b608435929091906001600160a01b038416840361045a575091602094916104259360a4359361328a565b833461045a5761135d3661262a565b5050346103c557816003193601126103c55760209060ff600c5460a01c1690519015158152f35b8383346103c557806003193601126103c5577f71aec636243f9709bb0007ae15e9afb8150ab01716d75fd7573be5cc096e03b060a082602095611c8e611c1d612407565b96611c266124ae565b938491600180881b03809a16998a8252600b8c52611c4960ff8484205416614b40565b80600c541633148015611cc6575b611c6090614b9d565b81541633148015611cba575b611c7590614bf9565b898152600d8b52209060ff801983541691151516179055565b8451958652606087870152606086015263135a5b9d60e21b60808601521515938484820152a151908152f35b50821515600114611c6c565b50815481163314611c57565b839150346103c55760203660031901126103c557611cee612407565b82546001600160a01b03929083163303611d605750601080546001600160a01b031981168484161790915593516001600160a01b039290941682168452166020830152907feda98690e518e9a05f8ec6837663e188211b2da8f4906648b323f2c1d4434e299080604081015b0390a180f35b608490602086519162461bcd60e51b8352820152602660248201527f6f6e6c792061646d696e2063616e2073657420626f72726f772063617020677560448201526530b93234b0b760d11b6064820152fd5b839150346103c55760203660031901126103c5578154813591906001600160a01b03163303611e1a5750917f3b9670cf975d26958e754b57098eaa2ac914d8d2a31b83257997b9f346110fd9816020946007549080600755825191825286820152a151908152f35b606490602085519162461bcd60e51b8352820152601f60248201527f6f6e6c792061646d696e2063616e2073657420636c6f736520666163746f72006044820152fd5b5050346103c557602090610425611e73366125e9565b5091612cf8565b5050346103c55760203660031901126103c55790602091611e996124bd565b600c54926001600160a01b039033828616148015611f3c575b611ebb90614b9d565b541633148015611f30575b611ecf90614bf9565b15159160ff60b81b8360b81b169060ff60b81b191617600c557f27ee2b767de43e8b48d1666d8c451a273fbf857e760fda6e95d0d582f68534bc60808251838152600584820152645365697a6560d81b60608201528486820152a151908152f35b50801515600114611ec6565b50805482163314611eb2565b5050346103c557602090610425611f5e366125e9565b92919091612d9a565b839150346103c557826003193601126103c557611f82612407565b60243591611f8e6156bf565b1561202657611f9d83836155ce565b611fe3575092516001600160a01b0390931683526020830152907f98b2f82a3a07f223a0be64b3d0f47711c64dccd1feafb94aa28156b38cd9695c908060408101611d5a565b606490602086519162461bcd60e51b8352820152601b60248201527f696e73756666696369656e7420636f6d7020666f72206772616e7400000000006044820152fd5b606490602086519162461bcd60e51b8352820152601960248201527f6f6e6c792061646d696e2063616e206772616e7420636f6d70000000000000006044820152fd5b5050346103c557816003193601126103c55760015490516001600160a01b039091168152602090f35b5050346103c557816003193601126103c557600c5490516001600160a01b039091168152602090f35b5050346103c557816003193601126103c55760105490516001600160a01b039091168152602090f35b833461045a5760a036600319011261045a576120fe612407565b5061210761241d565b50611afc612433565b919050346106f4576020908160031936011261091d5782356001600160a01b03818116918290036116285782516303e1469160e61b815284818781865afa908115612289578791612253575b50163303612201578285918584518094819363307a00cd60e21b83525af19081156121f75785916121ca575b50612191578380f35b5162461bcd60e51b815291820152601560248201527418da185b99d9481b9bdd08185d5d1a1bdc9a5e9959605a1b604482015260649150fd5b90508281813d83116121f0575b6121e18183612543565b81010312610f1e575138612188565b503d6121d7565b82513d87823e3d90fd5b505162461bcd60e51b815291820152602760248201527f6f6e6c7920756e6974726f6c6c65722061646d696e2063616e206368616e676560448201526620627261696e7360c81b606482015260849150fd5b90508481813d8311612282575b61226a8183612543565b81010312610f1a57518181168103610f1a573861215c565b503d612260565b84513d89823e3d90fd5b919050346106f4573660031901126103c5576122ad612407565b6024356001600160401b03811161091d57610457926104519136910161257b565b5050346103c557806003193601126103c55790817f71aec636243f9709bb0007ae15e9afb8150ab01716d75fd7573be5cc096e03b060a0602094612384612313612407565b9561231c6124ae565b928391600180871b0380991698898252600b8b5261233f60ff8484205416614b40565b80600c5416331480156123c0575b61235690614b9d565b815416331480156123b4575b61236b90614bf9565b888152600e8a52209060ff801983541691151516179055565b83519485526060868601526006606086015265426f72726f7760d01b60808601521515938484820152a151908152f35b50821515600114612362565b5081548116331461234d565b5050346103c5576020906104256123e23661245f565b50929091506131d4565b8490346103c557816003193601126103c55780600160209252f35b600435906001600160a01b03821682036106d457565b602435906001600160a01b03821682036106d457565b604435906001600160a01b03821682036106d457565b606435906001600160a01b03821682036106d457565b60a09060031901126106d4576001600160a01b039060043582811681036106d4579160243581811681036106d4579160443582811681036106d4579160643590811681036106d4579060843590565b6024359081151582036106d457565b6004359081151582036106d457565b6044359081151582036106d457565b602081019081106001600160401b038211176124f657604052565b634e487b7160e01b600052604160045260246000fd5b61014081019081106001600160401b038211176124f657604052565b604081019081106001600160401b038211176124f657604052565b90601f801991011681019081106001600160401b038211176124f657604052565b6001600160401b0381116124f65760051b60200190565b81601f820112156106d45780359161259283612564565b926125a06040519485612543565b808452602092838086019260051b8201019283116106d4578301905b8282106125ca575050505090565b81356001600160a01b03811681036106d45781529083019083016125bc565b60809060031901126106d4576001600160a01b0360043581811681036106d4579160243582811681036106d4579160443590811681036106d4579060643590565b60809060031901126106d4576001600160a01b039060043582811681036106d4579160243590811681036106d457906044359060643590565b600f5481101561269a57600f6000527f8d1108e10bcb7c27dddfc02ed9d693a074039d026cf4ea4240b40f7d581ac8020190600090565b634e487b7160e01b600052603260045260246000fd5b805482101561269a5760005260206000200190600090565b60609060031901126106d4576001600160a01b039060043582811681036106d4579160243590811681036106d4579060443590565b9181601f840112156106d4578235916001600160401b0383116106d4576020808501948460051b0101116106d457565b81601f820112156106d45780359161274483612564565b926127526040519485612543565b808452602092838086019260051b8201019283116106d4578301905b82821061277c575050505090565b8135815290830190830161276e565b6020908160408183019282815285518094520193019160005b8281106127b2575050505090565b83516001600160a01b0316855293810193928101926001016127a4565b60405190600f548083528260209182820190600f6000527f8d1108e10bcb7c27dddfc02ed9d693a074039d026cf4ea4240b40f7d581ac802936000905b8282106128245750505061282292500383612543565b565b85546001600160a01b03168452600195860195889550938101939091019061280c565b9060405191828154918282526020928383019160005283600020936000905b82821061287c5750505061282292500383612543565b85546001600160a01b031684526001958601958895509381019390910190612866565b60001981146128ae5760010190565b634e487b7160e01b600052601160045260246000fd5b805182101561269a5760209160051b010190565b6001600160a01b038082166000908152600b602052604081208054919493929160ff16156129d5576002918416855201602052600160ff6040852054161515146129d0576040808420805460ff19166001179055600a6020528320805490600160401b8210156129bc57826129798361299d9360017f3ab23ab0d51cccc0c3085aec51f99228625aa1a922b3a8ca89a26b0f2027a1a59897960181556126b0565b90919082549060031b9160018060a01b039283811b93849216901b16911916179055565b604080516001600160a01b03928316815292909116602083015290a190565b634e487b7160e01b85526041600452602485fd5b505090565b5050505050600990565b91908260809103126106d4578151916020810151916060604083015192015190565b15612a0857565b634e487b7160e01b600052600160045260246000fd5b919082039182116128ae57565b604080516361bfb47160e11b81523360048201526001600160a01b0383811693909190608082602481885afa8015612ced57600080938192612cb7575b50612c6557612c355790612a7d913390612dd2565b80612c09575082600052600b602052600282600020013360005260205260ff82600020541615612c01578160002060ff198154169055600a602052612ac482600020612847565b928351928360005b818110612bd4575b5084612ae592939495965010612a01565b33600052600a6020528060002092835494600019958681019081116128ae57612b4a9183612b16612b2093896126b0565b93905492896126b0565b92909360031b1c169082549060031b9160018060a01b039283811b93849216901b16911916179055565b8354938415612bbe577fe699a64c18b07ac5b7301aa273f36a2287239eb9501d81950672794afba29a0d95612bb6950191612b8583836126b0565b815460039190911b9290921b19909116905555516001600160a01b0390911681523360208201529081906040820190565b0390a1600090565b634e487b7160e01b600052603160045260246000fd5b8385612be0838a6128c4565b511614612bf557612bf09061289f565b612acc565b90955093508438612ad4565b505050600090565b8251600e81526003602082015292830152506000805160206158018339815191529150606090a1600e90565b50505060008051602061580183398151915291508060006060925191600c835260026020840152820152a1600c90565b845162461bcd60e51b815260206004820152602560248201527f657869744d61726b65743a206765744163636f756e74536e617073686f742066604482015264185a5b195960da1b6064820152608490fd5b915050612cdc91925060803d8111612ce6575b612cd48183612543565b8101906129df565b5090929138612a68565b503d612cca565b84513d6000823e3d90fd5b60045490926001600160a01b0391821690821603612d9257821680600052600d60205260ff60406000205416612d5c57600052600b60205260ff6040600020541615612d555781612d4b612d5093614c3e565b615030565b600090565b5050600990565b60405162461bcd60e51b815260206004820152600e60248201526d1b5a5b9d081a5cc81c185d5cd95960921b6044820152606490fd5b505050600190565b600454909391926001600160a01b03918216911603612d9257612dbe908284612dd2565b91826129d057612d509250612d4b81614c3e565b6001600160a01b039081166000818152600b60205260408120549094929060ff16156129d55760026040862001908416855260205260ff60408520541615612e5657612e1d92613a2d565b9190506012811015612e425780612e3c5750612e365790565b50600490565b91505090565b634e487b7160e01b83526021600452602483fd5b50505090565b600480549095946001600160a01b0394909392918516908516036131bd5783811693600094808652602094600e865260409260ff848920541661318757828852600b875260ff8489205416156131795760028489200181871690818a52885260ff858a205416156130d7575b5060055416868360248c8751948593849263fc57d4df60e01b84528301525afa9081156130cd5788916130a0575b501561309357818752601186528287205480612fdd575b50612f19908286613d64565b9190506012811015612fca5780612fbf5750612fb757849082519889809263aa5af0fd60e01b82525afa938415612fad578594612f78575b50612f75949596505192612f64846124db565b8352612f708382614ee9565b615191565b90565b90935086813d8311612fa6575b612f8f8183612543565b8101031261091d5794519394859492612f75612f51565b503d612f85565b81513d87823e3d90fd5b505050505050565b985050505050505050565b634e487b7160e01b885260218a52602488fd5b83516308f7a6e360e31b815287818c81875afa80156130895783908a90613058575b61300992506131c7565b10156130155738612f0d565b825162461bcd60e51b8152808a01879052601960248201527f6d61726b657420626f72726f77206361702072656163686564000000000000006044820152606490fd5b50508781813d8311613082575b61306f8183612543565b8101031261162457826130099151612fff565b503d613065565b85513d8b823e3d90fd5b50600d9750505050505050565b90508681813d83116130c6575b6130b78183612543565b81010312610f16575138612ef6565b503d6130ad565b84513d8a823e3d90fd5b83330361313e576130e887336128d8565b601281101561312b578061311e5750838952600b88526002858a2001908952875261311860ff858a205416612a01565b38612ec8565b9a50505050505050505050565b634e487b7160e01b8a5260218c5260248afd5b845162461bcd60e51b8152808c01899052601560248201527439b2b73232b91036bab9ba1031329031aa37b5b2b760591b6044820152606490fd5b506009985050505050505050565b835162461bcd60e51b8152808b01889052601060248201526f189bdc9c9bddc81a5cc81c185d5cd95960821b6044820152606490fd5b5060019450505050565b919082018092116128ae57565b600454919290916001600160a01b039190821690821603612d92578116600092818452600b60205260ff604085205416156132815760206004926040519384809263aa5af0fd60e01b82525afa918215613276578492613241575b50612f759260405192612f64846124db565b9091506020813d821161326e575b8161325c60209383612543565b8101031261091d575190612f7561322f565b3d915061324f565b6040513d86823e3d90fd5b50505050600990565b60045492946001600160a01b0394929390929085169085160361344157831692600094848652602094600b86526040948360ff878a2054161591821561342e575b50506134225784516395dd919360e01b815292821660048401528583602481845afa9283156134185787936133e7575b5061330590615731565b1561336957501061331557505090565b60849250519062461bcd60e51b82526004820152602860248201527f43616e206e6f74207265706179206d6f7265207468616e2074686520746f74616044820152676c20626f72726f7760c01b6064820152fd5b61337691939294506136be565b91905060128110156133d357806133ca5750156133c157670de0b6b3a7640000916133b1916007549051906133aa826124db565b815261346b565b5104106133bb5790565b50601190565b50505050600390565b94505050505090565b634e487b7160e01b86526021600452602486fd5b9092508581813d8311613411575b6133ff8183612543565b81010312610f1a5751916133056132fb565b503d6133f5565b85513d89823e3d90fd5b50505050505050600990565b168852508487205460ff161583386132cb565b5050505050600190565b8115613455570490565b634e487b7160e01b600052601260045260246000fd5b9061348591600060405161347e816124db565b52516134a6565b60405190613492826124db565b815290565b9060016000921517156128ae57565b818102929181159184041417156128ae57565b908160209103126106d457516001600160a01b03811681036106d45790565b9291909260ff600c5460b81c166136165760018060a01b03808216906000958287526020600b815260409160ff838a205416158015613603575b6135f5578251948286600481635fe3b56760e01b948582525afa9586156135eb578a966135c0575b5091809160048694865195869384928352165afa9283156135b7575090839291899261358a575b50501691160361358157612d4b612f759361357b83614c3e565b82615030565b50505050600290565b6135a99250803d106135b0575b6135a18183612543565b8101906134b9565b3880613561565b503d613597565b513d8a823e3d90fd5b839290839297506135e060049188963d86116135b0576135a18183612543565b97925050919261353a565b84513d8c823e3d90fd5b505050505050505050600990565b50838116895260ff838a20541615613512565b60405162461bcd60e51b815260206004820152600f60248201526e1cd95a5e99481a5cc81c185d5cd959608a1b6044820152606490fd5b909260ff600c5460b01c1661368457613667908483612dd2565b8061367d5750612d4b612d509361357b83614c3e565b9250505090565b60405162461bcd60e51b81526020600482015260126024820152711d1c985b9cd9995c881a5cc81c185d5cd95960721b6044820152606490fd5b6040516136ca8161250c565b6000815260006020820152600060408201526000606082015260006080820152600060a08201526040516136fd816124db565b6000815260c0820152604051613712816124db565b6000815260e0820152604051613727816124db565b6000815261010082015260405161373d816124db565b6000815261012082015260018060a01b038216600052600a6020526137656040600020612847565b6005549092906001600160a01b031660005b84518110156139ea576001600160a01b0361379282876128c4565b516040516361bfb47160e11b81526001600160a01b038616600482015291169190608081602481865afa80156139aa576000916000916000916000916139c7575b506080890152606088015260408701526139b65781600052600b60205260016040600020015460405190613806826124db565b815260c086015260808501516040519061381f826124db565b815260e086015260405163fc57d4df60e01b81526004810183905291602083602481875afa9283156139aa57600093613976575b508260a08701528215613964576040516138fb93613870826124db565b815261010087015261389a61388e60c088015160e089015190614369565b61010088015190614369565b806101208801526138c86040880151918851906138c1670de0b6b3a764000094859261346b565b51046131c7565b87526138e7610100880151826138c160608b015160208c01519361346b565b9182602089015215613900575b505061289f565b613777565b61393a61395892826139266101208b0151600060405161391f816124db565b5251613497565b80604051613933816124db565b52046131c7565b90816020890152613926610100890151600060405161391f816124db565b602086015238806138f4565b50505050505050600d90600090600090565b9092506020813d6020116139a2575b8161399260209383612543565b810103126106d457519138613853565b3d9150613985565b6040513d6000823e3d90fd5b505050505050600f90600090600090565b925050506139e4915060803d608011612ce657612cd48183612543565b386137d3565b505050905080516020820151808211600014613a1a575050806020613a13925191015190612a1e565b6000918290565b613a249250612a1e565b60009160009190565b9160405191613a3b8361250c565b6000835260006020840152600060408401526000606084015260006080840152600060a0840152604051613a6e816124db565b6000815260c0840152604051613a83816124db565b6000815260e0840152604051613a98816124db565b60008152610100840152604051613aae816124db565b6000815261012084015260018060a01b038416600052600a602052613ad66040600020612847565b6005549094906001600160a01b031660005b8651811015613d39576001600160a01b03613b0382896128c4565b516040516361bfb47160e11b81526001600160a01b038616600482015291169190608081602481865afa80156139aa57600091600091600091600091613d16575b5060808b015260608a01526040890152613d035781600052600b60205260016040600020015460405190613b77826124db565b815260c0880152608087015160405190613b90826124db565b815260e088015260405163fc57d4df60e01b815260048101839052602081602481875afa9081156139aa57600091613cd1575b508060a08901528015613cbd57613c7692879160405190613be3826124db565b81526101008a015288613c0e613c0260c083015160e084015190614369565b61010083015190614369565b9182610120830152613c366040830151938351906138c1670de0b6b3a764000096879261346b565b8252613c55610100830151846138c1606086015160208701519361346b565b60208301819052906001600160a01b038a1614613c7b575b5050505061289f565b613ae8565b826138c1613caf95610120613c9195015161346b565b908160208b01526139266101008b0151600060405161391f816124db565b602088015285388881613c6d565b505050505050505050600d90600090600090565b90506020813d602011613cfb575b81613cec60209383612543565b810103126106d4575138613bc3565b3d9150613cdf565b5050505050505050600f90600090600090565b92505050613d33915060803d608011612ce657612cd48183612543565b38613b44565b5050505050905080516020820151808211600014613a1a575050806020613a13925191015190612a1e565b60405191613d718361250c565b6000835260006020840152600060408401526000606084015260006080840152600060a0840152604051613da4816124db565b6000815260c0840152604051613db9816124db565b6000815260e0840152604051613dce816124db565b60008152610100840152604051613de4816124db565b6000815261012084015260018060a01b038216600052600a602052613e0c6040600020612847565b6005549094906001600160a01b031660005b8651811015613d39576001600160a01b03613e3982896128c4565b516040516361bfb47160e11b81526001600160a01b038816600482015291169190608081602481865afa80156139aa57600091600091600091600091614020575b5060808b015260608a01526040890152613d035781600052600b60205260016040600020015460405190613ead826124db565b815260c0880152608087015160405190613ec6826124db565b815260e088015260405163fc57d4df60e01b81526004810183905291602083602481875afa9283156139aa57600093613fec575b508260a08901528215613cbd57604051613fa693613f17826124db565b8152610100890152613f41613f3560c08a015160e08b015190614369565b6101008a015190614369565b806101208a0152613f6860408a0151918a51906138c1670de0b6b3a764000094859261346b565b8952613f886101008a0151826138c18c602060608201519101519361346b565b60208a01819052916001600160a01b03881614613fab57505061289f565b613e1e565b613fca613fe092826139266101208d0151600060405161391f816124db565b908160208b01526138c1876101008c015161346b565b602088015238806138f4565b9092506020813d602011614018575b8161400860209383612543565b810103126106d457519138613efa565b3d9150613ffb565b9250505061403d915060803d608011612ce657612cd48183612543565b38613e7a565b9291604051926140528461250c565b6000845260006020850152600060408501526000606085015260006080850152600060a0850152604051614085816124db565b6000815260c085015260405161409a816124db565b6000815260e08501526040516140af816124db565b600081526101008501526040516140c5816124db565b6000815261012085015260018060a01b038516600052600a6020526140ed6040600020612847565b6005549095906001600160a01b031660005b875181101561433d576001600160a01b0361411a828a6128c4565b516040516361bfb47160e11b81526001600160a01b038616600482015291169190608081602481865afa80156139aa5760009160009160009160009161431a575b5060808c015260608b015260408a01526143065781600052600b6020526001604060002001546040519061418e826124db565b815260c08901526080880151604051906141a7826124db565b815260e089015260405163fc57d4df60e01b815260048101839052602081602481875afa9081156139aa576000916142d4575b508060a08a015280156142bf57614280928791604051906141fa826124db565b81526101008b015289614219613c0260c083015160e084015190614369565b91826101208301526142416040830151938351906138c1670de0b6b3a764000096879261346b565b8252614260610100830151846138c1606086015160208701519361346b565b60208301819052906001600160a01b038c1614614285575050505061289f565b6140ff565b826138c16142b19561012061429b95015161346b565b908160208c01526138c1886101008d015161346b565b602089015285388981613c6d565b50505050505050505050600d90600090600090565b90506020813d6020116142fe575b816142ef60209383612543565b810103126106d45751386141da565b3d91506142e2565b505050505050505050600f90600090600090565b92505050614337915060803d608011612ce657612cd48183612543565b3861415b565b505050505050905080516020820151808211600014613a1a575050806020613a13925191015190612a1e565b670de0b6b3a76400009161438f916000604051614385816124db565b52519051906134a6565b0460405190613492826124db565b909160018060a01b038060055416936040938451928063fc57d4df60e01b9283865216600485015260209283856024818b5afa9485156145ad5760009561457e575b509083911691602487518099819382528560048301525afa95861561452e5760009661454f575b5082158015614547575b614539578160049186519283809263182df0f560e01b82525afa91821561452e576000926144fb575b50506144906144ab926000865161444f816124db565b526000865161445d816124db565b526000865161446b816124db565b5260085486519061447b826124db565b8152865191614489836124db565b8252614369565b9484519061449d826124db565b8152845191614489836124db565b92600083516144b9816124db565b525191670de0b6b3a764000093848402938085048614901517156128ae576144f2936144e691519061344b565b9051906133aa826124db565b51049060009190565b81819392933d8311614527575b6145128183612543565b8101031261045a5750516144906144ab614439565b503d614508565b85513d6000823e3d90fd5b505050505050600d90600090565b508515614410565b90958282813d8311614577575b6145668183612543565b8101031261045a5750519438614406565b503d61455c565b90948482813d83116145a6575b6145958183612543565b8101031261045a57505193836143df565b503d61458b565b87513d6000823e3d90fd5b6000546001600160a01b039081163303614620577fd52b2b9b7e9ee655fcb95d2e5b9e0c9f69e7ef2b8e9d2d0ea78402d576d22e229181604092600554921690816bffffffffffffffffffffffff60a01b8416176005558351921682526020820152a1600090565b50506000805160206158018339815191526060604051600181526010602082015260006040820152a1600190565b6000805490926001600160a01b03929091831633036147ec578216918284526020600b81526040918286209060ff825416156147be57835161468f816124db565b85815284519061469e826124db565b670c7d713b49da000080925251116147905782851515918261472c575b50506146ff576001018054908490558251948552908401528201527f70483e6592cd5182d45ac970e05bc62cdcc90e9d8ef2c2dbe686cf383bcd7fc590606090a190565b5091506060925092836009600080516020615801833981519152955193600d8552840152820152a1600d90565b602492506005541685519283809263fc57d4df60e01b82528a60048301525afa908115612289578791614763575b501582386146bb565b90508281813d8311614789575b61477a8183612543565b81010312610f1a57513861475a565b503d614770565b50509150606092509283600860008051602061580183398151915295519360068552840152820152a1600690565b50509150606092509283600760008051602061580183398151915295519360098552840152820152a1600990565b5050506060600080516020615801833981519152916040519060018252600660208301526040820152a1600190565b6000546001600160a01b031633036148695760407faeba5a6c40a8ac138134bff1aaa65debf25971188a58804bad717f82f0ec131691600854908060085582519182526020820152a1600090565b50600080516020615801833981519152606060405160018152600b602082015260006040820152a1600190565b908160209103126106d4575180151581036106d45790565b600080546001600160a01b0393929084163303614a4d578316808252602090600b8252604060ff8185205416614a21578051637f4e225760e11b81526004969084818981875afa8015614a17576149ea575b50828552600b84528460018382208160ff1982541617815501558490600f54915b82811061498a575050600160401b811015614977577fcf583bb0c569eb967f806b11601c4cb93c10310485c67add5f8362c2f212321f949596508261297982600161496f9401600f55612663565b51908152a190565b634e487b7160e01b855260418752602485fd5b848261499583612663565b90549060031b1c16146149b0576149ab9061289f565b614921565b835162461bcd60e51b8152808a0187905260146024820152731b585c9ad95d08185b1c9958591e48185919195960621b6044820152606490fd5b614a0990853d8711614a10575b614a018183612543565b810190614896565b5038614900565b503d6149f7565b83513d88823e3d90fd5b60008051602061580183398151915294955060609391506011815193600a8552840152820152a1600a90565b506000805160206158018339815191529192506060906040519060018252601260208301526040820152a1600190565b919081101561269a5760051b0190565b356001600160a01b03811681036106d45790565b6000546001600160a01b039081163303614b1257600c80549282166001600160a01b03198416811790915560408051929093166001600160a01b0390811683521660208201527f0613b6ee6a04f0d09f390e4d9318894b9f6ac7fd83897cd8d18896ba579c401e9181908101612bb6565b50506000805160206158018339815191526060604051600181526013602082015260006040820152a1600190565b15614b4757565b60405162461bcd60e51b815260206004820152602860248201527f63616e6e6f742070617573652061206d61726b65742074686174206973206e6f6044820152671d081b1a5cdd195960c21b6064820152608490fd5b15614ba457565b60405162461bcd60e51b815260206004820152602760248201527f6f6e6c7920706175736520677561726469616e20616e642061646d696e2063616044820152666e20706175736560c81b6064820152608490fd5b15614c0057565b60405162461bcd60e51b81526020600482015260166024820152756f6e6c792061646d696e2063616e20756e706175736560501b6044820152606490fd5b60018060a01b03169060009180835260206012815260409081852091601882528086205495614ca78251614c7181612528565b601c81527f626c6f636b206e756d6265722065786365656473203332206269747300000000858201526401000000004310614e2c565b63ffffffff431694614cbd855460e01c87612a1e565b908115158080614e23575b15614df2575090846004928551938480926318160ddd60e01b82525afa918215614de8578392614db7575b506128229798614d02916134a6565b8115614da157614d129250614eb0565b905b614d7d8454937f6e657720696e6465782065786365656473203232342062697473000000000000614d5d845195614d4a876124db565b6001600160e01b03888116885296614e93565b51935191614d6a83612528565b601a8352820152600160e01b8310614e2c565b6001600160e01b0391161660e09390931b6001600160e01b03191692909217905550565b5050815190614daf826124db565b815290614d14565b9091508481813d8311614de1575b614dcf8183612543565b810103126106f4575190612822614cf3565b503d614dc5565b84513d85823e3d90fd5b959798505050505050614e03575050565b81546001600160e01b031660e09190911b6001600160e01b031916179055565b50891515614cc8565b15614e345750565b6040519062461bcd60e51b82528160208060048301528251908160248401526000935b828510614e7a575050604492506000838284010152601f80199101168101030190fd5b8481018201518686016044015293810193859350614e57565b90613485916000604051614ea6816124db565b52519051906131c7565b906000604051614ebf816124db565b526a0c097ce7bc90715b34b9f160241b918281029281840414901517156128ae576134859161344b565b91909160018060a01b0316916000838152602060138152604080832092601783528181205496614f538351614f1d81612528565b601c81527f626c6f636b206e756d6265722065786365656473203332206269747300000000868201526401000000004310614e2c565b63ffffffff431695614f69865460e01c88612a1e565b918215158080615002575b15614ff05750856004918651928380926308f7a6e360e31b82525afa908115614fe6578491614fb7575b5098614fb1614d02926128229a9b61500b565b926134a6565b90508581813d8311614fdf575b614fce8183612543565b8101031261091d5751614fb1614f9e565b503d614fc4565b85513d86823e3d90fd5b96989950505050505050614e03575050565b508a1515614f74565b670de0b6b3a7640000908181029181830414901517156128ae57612f7591519061344b565b6001600160a01b03908116600081815260126020908152604080832054601483528184209690951680845295825280832080546001600160e01b03909616908190559196959490929190801580615179575b615164575b6150919082612a1e565b9683519761509e896124db565b885283516370a0823160e01b8152600481018790528181602481895afa908115614fe6578491615135575b506151096a0c097ce7bc90715b34b9f160241b917f2caecd17d02f56fa897705dcc740da2d237c373f70686f4e0d9bd3bf0400ea7a9798999a51906134a6565b0492878152601682528461512085828420546131c7565b918981526016845220558351928352820152a3565b90508181813d831161515d575b61514c8183612543565b8101031261091d57516151096150c9565b503d615142565b506a0c097ce7bc90715b34b9f160241b615087565b506a0c097ce7bc90715b34b9f160241b821015615082565b6001600160a01b03908116600081815260136020908152604080832054601583528184209690951680845295825280832080546001600160e01b03909616908190559697969394909391908015806152e1575b6152cc575b6151f39083612a1e565b978451986152008a6124db565b895284516395dd919360e01b81526004810188905282816024818a5afa9081156152c2578591615275575b507f1fc3ecc087d8d2d15e23d0032af5a47059c3892d003d8e139fdcb6bb327c99a69697989961526d6a0c097ce7bc90715b34b9f160241b936151099361500b565b9051906134a6565b90508281813d83116152bb575b61528c8183612543565b81010312610f1e57517f1fc3ecc087d8d2d15e23d0032af5a47059c3892d003d8e139fdcb6bb327c99a661522b565b503d615282565b86513d87823e3d90fd5b506a0c097ce7bc90715b34b9f160241b6151e9565b506a0c097ce7bc90715b34b9f160241b8310156151e4565b60018060a01b031660009080825260196020526040822054601a602052615324604084205443612a1e565b80151580615378575b615338575b50505050565b61535791615345916134a6565b828452601660205260408420546131c7565b90825260166020526040822055601a60205260404391205538808080615332565b5081151561532d565b60408051918183018381106001600160401b038211176124f6578252600193848452602090818501908236833785511561269a576001600160a01b039384169091526000865b615445575b5050846000905b6153df57505050505050565b84518110156154405780836153f761543a93886128c4565b51168461540483896128c4565b511660005261541d6016918286528760002054906155ce565b9085615429848a6128c4565b51166000528452856000205561289f565b856153d3565b612fb7565b81518110156155c9578361545982846128c4565b511680600052600b845260ff8660002054161561558d57855163aa5af0fd60e01b81528481600481855afa9081156145ad57600091615560575b50865189949392916154a4826124db565b81526154b08183614ee9565b886000865b61551d575b5050506154c681614c3e565b6000845b6154e1575b50506154da9061289f565b90916153c7565b8894919293945181101561551357806105f088615501615509948d6128c4565b511685615030565b81949392916154ca565b81949392506154cf565b88829793949596975182101561555457846105f09161553f84615547966128c4565b511687615191565b89908296959493926154b5565b508296959493506154ba565b908582813d8311615586575b6155768183612543565b8101031261045a57505138615493565b503d61556c565b855162461bcd60e51b81526004810185905260156024820152741b585c9ad95d081b5d5cdd081899481b1a5cdd1959605a1b6044820152606490fd5b6153cc565b6006546040516370a0823160e01b8152306004820152602093926001600160a01b0390921691908481602481865afa9081156139aa57600091615692575b508315159081615687575b50615623575050905090565b60405163a9059cbb60e01b81526001600160a01b0391909116600482015260248101929092528290829060449082906000905af180156139aa57615669575b5050600090565b8161567f92903d10614a1057614a018183612543565b503880615662565b905083111538615617565b908582813d83116156b8575b6156a88183612543565b8101031261045a5750513861560c565b503d61569e565b600054336001600160a01b03918216149081156156da575090565b905060025416331490565b156156ec57565b60405162461bcd60e51b815260206004820152601d60248201527f6f6e6c792061646d696e2063616e2073657420636f6d702073706565640000006044820152606490fd5b6001600160a01b03166000818152600b602090815260408220600101541592909190836157e8575b836157645750505090565b6040516305cee64160e21b815293508290849060049082905afa9182156157db5781926157a2575b5050670de0b6b3a7640000915014388080612e56565b90915082813d83116157d4575b6157b98183612543565b8101031261045a5750670de0b6b3a76400009051388061578c565b503d6157af565b50604051903d90823e3d90fd5b600e8352604082205460ff161515600114935061575956fe45b96fe442630264581b197e84bbada861235052c5a1aadfff9ea4e40a969aa0a2646970667358221220363c26eb481ae3019446ad3a5353d0ed6c44b873af9737f6549a4e83311644bc64736f6c63430008110033",
  "linkReferences": {},
  "deployedLinkReferences": {}
}