{
  "contractName": "Vault",
  "abi": [
    {
      "inputs": [
        {
          "internalType": "address",
          "name": "_system",
          "type": "address"
        }
      ],
      "stateMutability": "nonpayable",
      "type": "constructor"
    },
    {
      "anonymous": false,
      "inputs": [
        {
          "indexed": false,
          "internalType": "address",
          "name": "account",
          "type": "address"
        },
        {
          "indexed": false,
          "internalType": "address",
          "name": "token",
          "type": "address"
        },
        {
          "indexed": false,
          "internalType": "uint256",
          "name": "amount",
          "type": "uint256"
        }
      ],
      "name": "TokenWithdrawn",
      "type": "event"
    },
    {
      "anonymous": false,
      "inputs": [
        {
          "indexed": false,
          "internalType": "address",
          "name": "account",
          "type": "address"
        },
        {
          "indexed": false,
          "internalType": "address",
          "name": "token",
          "type": "address"
        },
        {
          "indexed": false,
          "internalType": "uint256",
          "name": "amount",
          "type": "uint256"
        }
      ],
      "name": "TokensDeposited",
      "type": "event"
    },
    {
      "inputs": [
        {
          "internalType": "address",
          "name": "token",
          "type": "address"
        },
        {
          "internalType": "uint256",
          "name": "amount",
          "type": "uint256"
        },
        {
          "internalType": "address",
          "name": "account",
          "type": "address"
        }
      ],
      "name": "decreaseBalance",
      "outputs": [],
      "stateMutability": "nonpayable",
      "type": "function"
    },
    {
      "inputs": [
        {
          "internalType": "address",
          "name": "token",
          "type": "address"
        },
        {
          "internalType": "uint256",
          "name": "amount",
          "type": "uint256"
        }
      ],
      "name": "deposit",
      "outputs": [],
      "stateMutability": "nonpayable",
      "type": "function"
    },
    {
      "inputs": [
        {
          "internalType": "address",
          "name": "token",
          "type": "address"
        }
      ],
      "name": "getBalance",
      "outputs": [
        {
          "internalType": "uint256",
          "name": "",
          "type": "uint256"
        }
      ],
      "stateMutability": "view",
      "type": "function"
    },
    {
      "inputs": [
        {
          "internalType": "address",
          "name": "token",
          "type": "address"
        },
        {
          "internalType": "uint256",
          "name": "amount",
          "type": "uint256"
        },
        {
          "internalType": "address",
          "name": "account",
          "type": "address"
        }
      ],
      "name": "increaseBalance",
      "outputs": [],
      "stateMutability": "nonpayable",
      "type": "function"
    },
    {
      "inputs": [
        {
          "internalType": "address",
          "name": "token",
          "type": "address"
        },
        {
          "internalType": "uint256",
          "name": "amount",
          "type": "uint256"
        },
        {
          "internalType": "address",
          "name": "account",
          "type": "address"
        }
      ],
      "name": "lockToken",
      "outputs": [],
      "stateMutability": "nonpayable",
      "type": "function"
    },
    {
      "inputs": [],
      "name": "system",
      "outputs": [
        {
          "internalType": "contract System",
          "name": "",
          "type": "address"
        }
      ],
      "stateMutability": "view",
      "type": "function"
    },
    {
      "inputs": [
        {
          "internalType": "address",
          "name": "token",
          "type": "address"
        },
        {
          "internalType": "uint256",
          "name": "amount",
          "type": "uint256"
        },
        {
          "internalType": "address",
          "name": "account",
          "type": "address"
        }
      ],
      "name": "unlockToken",
      "outputs": [],
      "stateMutability": "nonpayable",
      "type": "function"
    },
    {
      "inputs": [
        {
          "internalType": "address",
          "name": "",
          "type": "address"
        },
        {
          "internalType": "address",
          "name": "",
          "type": "address"
        }
      ],
      "name": "userTokenBalance",
      "outputs": [
        {
          "internalType": "uint256",
          "name": "",
          "type": "uint256"
        }
      ],
      "stateMutability": "view",
      "type": "function"
    },
    {
      "inputs": [
        {
          "internalType": "address",
          "name": "",
          "type": "address"
        },
        {
          "internalType": "address",
          "name": "",
          "type": "address"
        }
      ],
      "name": "userTokenBalanceInOrder",
      "outputs": [
        {
          "internalType": "uint256",
          "name": "",
          "type": "uint256"
        }
      ],
      "stateMutability": "view",
      "type": "function"
    },
    {
      "inputs": [
        {
          "internalType": "address",
          "name": "token",
          "type": "address"
        },
        {
          "internalType": "uint256",
          "name": "amount",
          "type": "uint256"
        }
      ],
      "name": "withdraw",
      "outputs": [],
      "stateMutability": "nonpayable",
      "type": "function"
    }
  ],
  "bytecode": "0x608060405234801561001057600080fd5b50d3801561001d57600080fd5b50d2801561002a57600080fd5b50604051610f13380380610f138339810160408190526100499161006e565b600080546001600160a01b0319166001600160a01b03929092169190911790556100a7565b60006020828403121561008057600080fd5b81516001600160a81b038116811461009757600080fd5b6001600160a01b03169392505050565b610e5d806100b66000396000f3fe608060405234801561001057600080fd5b50d3801561001d57600080fd5b50d2801561002a57600080fd5b50600436106100d85760003560e01c806395bf75fd11610090578063f3fef3a311610075578063f3fef3a3146101bf578063f4ac6275146101d2578063f8b2cb4f146101e557600080fd5b806395bf75fd14610169578063b47064c81461019457600080fd5b806347e7ef24116100c157806347e7ef2414610130578063480450a6146101435780635a9c78ab1461015657600080fd5b806309eb2728146100dd5780631379cdce146100f2575b600080fd5b6100f06100eb366004610c98565b61021b565b005b61011d610100366004610c1d565b600260209081526000928352604080842090915290825290205481565b6040519081526020015b60405180910390f35b6100f061013e366004610c63565b610353565b6100f0610151366004610c98565b61043a565b6100f0610164366004610c98565b61056d565b60005461017c906001600160a01b031681565b6040516001600160a01b039091168152602001610127565b61011d6101a2366004610c1d565b600160209081526000928352604080842090915290825290205481565b6100f06101cd366004610c63565b610671565b6100f06101e0366004610c98565b61074f565b61011d6101f3366004610bf0565b3360009081526001602090815260408083206001600160a01b03949094168352929052205490565b60008054906101000a90046001600160a01b03166001600160a01b031663d2f7265a6040518163ffffffff1660e01b815260040160206040518083038186803b15801561026757600080fd5b505afa15801561027b573d6000803e3d6000fd5b505050506040513d601f19601f8201168201806040525081019061029f9190610d0b565b6001600160a01b0316336001600160a01b0316146102f45760405162461bcd60e51b815260206004820152600d60248201526c139bdd105d5d1a1bdc9a5e9959609a1b60448201526064015b60405180910390fd5b6001600160a01b03808216600090815260026020908152604080832093871683529290522054610324908361084f565b6001600160a01b0391821660009081526002602090815260408083209690941682529490945292209190915550565b8061038a5760405162461bcd60e51b815260206004820152600760248201526616995c9bd05b5d60ca1b60448201526064016102eb565b3360009081526001602090815260408083206001600160a01b03861684529091529020546103b8908261084f565b3360008181526001602090815260408083206001600160a01b0388168085529252909120929092556103ec91903084610862565b604080513381526001600160a01b03841660208201529081018290527fcbc4a4091b012bb1329c38bbbb15455f5cac5aa3673da0a7f38cd61a4f495517906060015b60405180910390a15050565b60008054906101000a90046001600160a01b03166001600160a01b031663d2f7265a6040518163ffffffff1660e01b815260040160206040518083038186803b15801561048657600080fd5b505afa15801561049a573d6000803e3d6000fd5b505050506040513d601f19601f820116820180604052508101906104be9190610d0b565b6001600160a01b0316336001600160a01b03161461050e5760405162461bcd60e51b815260206004820152600d60248201526c139bdd105d5d1a1bdc9a5e9959609a1b60448201526064016102eb565b6001600160a01b0380821660009081526001602090815260408083209387168352929052205461053e9083610919565b6001600160a01b0391821660009081526001602090815260408083209690941682529490945292209190915550565b60008054906101000a90046001600160a01b03166001600160a01b031663d2f7265a6040518163ffffffff1660e01b815260040160206040518083038186803b1580156105b957600080fd5b505afa1580156105cd573d6000803e3d6000fd5b505050506040513d601f19601f820116820180604052508101906105f19190610d0b565b6001600160a01b0316336001600160a01b0316146106415760405162461bcd60e51b815260206004820152600d60248201526c139bdd105d5d1a1bdc9a5e9959609a1b60448201526064016102eb565b6001600160a01b038082166000908152600260209081526040808320938716835292905220546103249083610919565b806106a85760405162461bcd60e51b815260206004820152600760248201526616995c9bd05b5d60ca1b60448201526064016102eb565b3360009081526001602090815260408083206001600160a01b03861684529091529020546106d69082610919565b3360008181526001602090815260408083206001600160a01b038816808552925290912092909255610709919083610925565b604080513381526001600160a01b03841660208201529081018290527f8210728e7c071f615b840ee026032693858fbcd5e5359e67e438c890f59e56209060600161042e565b60008054906101000a90046001600160a01b03166001600160a01b031663d2f7265a6040518163ffffffff1660e01b815260040160206040518083038186803b15801561079b57600080fd5b505afa1580156107af573d6000803e3d6000fd5b505050506040513d601f19601f820116820180604052508101906107d39190610d0b565b6001600160a01b0316336001600160a01b0316146108235760405162461bcd60e51b815260206004820152600d60248201526c139bdd105d5d1a1bdc9a5e9959609a1b60448201526064016102eb565b6001600160a01b0380821660009081526001602090815260408083209387168352929052205461053e90835b600061085b8284610d77565b9392505050565b6040516001600160a01b03808516602483015283166044820152606481018290526109139085907f23b872dd00000000000000000000000000000000000000000000000000000000906084015b60408051601f198184030181529190526020810180517bffffffffffffffffffffffffffffffffffffffffffffffffffffffff167fffffffff0000000000000000000000000000000000000000000000000000000090931692909217909152610973565b50505050565b600061085b8284610d8f565b6040516001600160a01b03831660248201526044810182905261096e9084907fa9059cbb00000000000000000000000000000000000000000000000000000000906064016108af565b505050565b60006109c8826040518060400160405280602081526020017f5361666545524332303a206c6f772d6c6576656c2063616c6c206661696c6564815250856001600160a01b0316610a589092919063ffffffff16565b80519091501561096e57808060200190518101906109e69190610ce9565b61096e5760405162461bcd60e51b815260206004820152602a60248201527f5361666545524332303a204552433230206f7065726174696f6e20646964206e60448201527f6f7420737563636565640000000000000000000000000000000000000000000060648201526084016102eb565b6060610a678484600085610a6f565b949350505050565b606082471015610ae75760405162461bcd60e51b815260206004820152602660248201527f416464726573733a20696e73756666696369656e742062616c616e636520666f60448201527f722063616c6c000000000000000000000000000000000000000000000000000060648201526084016102eb565b6001600160a01b0385163b610b3e5760405162461bcd60e51b815260206004820152601d60248201527f416464726573733a2063616c6c20746f206e6f6e2d636f6e747261637400000060448201526064016102eb565b600080866001600160a01b03168587604051610b5a9190610d28565b60006040518083038185875af1925050503d8060008114610b97576040519150601f19603f3d011682016040523d82523d6000602084013e610b9c565b606091505b5091509150610bac828286610bb7565b979650505050505050565b60608315610bc657508161085b565b825115610bd65782518084602001fd5b8160405162461bcd60e51b81526004016102eb9190610d44565b600060208284031215610c0257600080fd5b8135610c0d81610e01565b6001600160a01b03169392505050565b60008060408385031215610c3057600080fd5b8235610c3b81610e01565b6001600160a01b039081169250602084013590610c5782610e01565b92959216935090915050565b60008060408385031215610c7657600080fd5b8235610c8181610e01565b6001600160a01b0316946020939093013593505050565b600080600060608486031215610cad57600080fd5b8335610cb881610e01565b6001600160a01b03908116935060208501359250604085013590610cdb82610e01565b808216925050509250925092565b600060208284031215610cfb57600080fd5b8151801515811461085b57600080fd5b600060208284031215610d1d57600080fd5b8151610c0d81610e01565b60008251610d3a818460208701610da6565b9190910192915050565b6020815260008251806020840152610d63816040850160208701610da6565b601f01601f19169190910160400192915050565b60008219821115610d8a57610d8a610dd2565b500190565b600082821015610da157610da1610dd2565b500390565b60005b83811015610dc1578181015183820152602001610da9565b838111156109135750506000910152565b7f4e487b7100000000000000000000000000000000000000000000000000000000600052601160045260246000fd5b74ffffffffffffffffffffffffffffffffffffffffff81168114610e2457600080fd5b5056fea26474726f6e582212207f632c27eac600732df55a6bd59ffbbed1940b8c6cc6b0606a927b2d58d85ad764736f6c63430008060033",
  "source": "// SPDX-License-Identifier: MIT\npragma solidity ^0.8.6;\n\nimport \"@openzeppelin/contracts/token/ERC20/utils/SafeERC20.sol\";\nimport \"@openzeppelin/contracts/token/ERC20/IERC20.sol\";\n// import {Errors} from \"./libraries/Errors.sol\";\nimport \"@openzeppelin/contracts/utils/math/SafeMath.sol\";\nimport './System.sol';\n\ncontract Vault {\n    using SafeERC20 for IERC20;\n    using SafeMath for uint256;\n    System public system;\n\n    event TokensDeposited(address account, address token, uint256 amount);\n    event TokenWithdrawn(address account, address token, uint256 amount);\n\n    constructor(address _system) {\n        system = System(_system);\n    }\n\n    mapping(address => mapping(address => uint256)) public userTokenBalance;\n    mapping(address => mapping(address => uint256)) public userTokenBalanceInOrder;\n\n    function deposit(address token, uint256 amount) external {\n        if (amount == 0) revert('ZeroAmt'); // Errors.ZeroAmt();\n        userTokenBalance[msg.sender][token] = userTokenBalance[msg.sender][token].add(amount);\n        IERC20(token).safeTransferFrom(msg.sender, address(this), amount);\n        emit TokensDeposited(msg.sender, token, amount);\n    }\n\n    function withdraw(address token, uint256 amount) external {\n        if (amount == 0) revert('ZeroAmt'); // Errors.ZeroAmt();\n        userTokenBalance[msg.sender][token] = userTokenBalance[msg.sender][token].sub(amount);\n        IERC20(token).safeTransfer(msg.sender, amount);\n        emit TokenWithdrawn(msg.sender, token, amount);\n    }\n\n    function getBalance(address token) public view returns (uint256) {\n        return userTokenBalance[msg.sender][token];\n    }\n\n    // Update sellers asset details only on LIMITSELL\n    function lockToken(\n        address token,\n        uint256 amount,\n        address account\n    ) external onlyExchanger {\n        userTokenBalanceInOrder[account][token] = userTokenBalanceInOrder[account][token].add(amount);\n    }\n\n    //Update data on order execution\n    function increaseBalance(\n        address token,\n        uint256 amount,\n        address account\n    ) external onlyExchanger {\n        userTokenBalance[account][token] = userTokenBalance[account][token].add(amount);\n    }\n\n    function decreaseBalance(\n        address token,\n        uint256 amount,\n        address account\n    ) external onlyExchanger {\n        userTokenBalance[account][token] = userTokenBalance[account][token].sub(amount);\n    }\n\n    // Update sellers asset details only on LIMITSELL\n    function unlockToken(\n        address token,\n        uint256 amount,\n        address account\n    ) external onlyExchanger {\n        userTokenBalanceInOrder[account][token] = userTokenBalanceInOrder[account][token].sub(amount);\n    }\n\n    modifier onlyExchanger() {\n        if(msg.sender != address(system.exchange())) revert('NotAuthorized'); // Errors.NotAuthorized();\n        _;\n    }\n}\n",
  "sourcePath": "/Users/prasad/projects/synthex/zexe/contracts/Vault.sol",
  "compiler": {
    "name": "solc",
    "version": "0.8.6+commit.0e36fba0.mod.Emscripten.clang"
  },
  "schemaVersion": "2.0.1",
  "updatedAt": "2022-11-02T06:51:28.196Z"
}